{
  "_format": "hh-sol-artifact-1",
  "contractName": "FakeErc1155",
  "sourceName": "contracts/FakeErc1155.sol",
  "abi": [
    {
      "inputs": [],
      "stateMutability": "nonpayable",
      "type": "constructor"
    },
    {
      "anonymous": false,
      "inputs": [
        {
          "indexed": true,
          "internalType": "address",
          "name": "account",
          "type": "address"
        },
        {
          "indexed": true,
          "internalType": "address",
          "name": "operator",
          "type": "address"
        },
        {
          "indexed": false,
          "internalType": "bool",
          "name": "approved",
          "type": "bool"
        }
      ],
      "name": "ApprovalForAll",
      "type": "event"
    },
    {
      "anonymous": false,
      "inputs": [
        {
          "indexed": true,
          "internalType": "address",
          "name": "operator",
          "type": "address"
        },
        {
          "indexed": true,
          "internalType": "address",
          "name": "from",
          "type": "address"
        },
        {
          "indexed": true,
          "internalType": "address",
          "name": "to",
          "type": "address"
        },
        {
          "indexed": false,
          "internalType": "uint256[]",
          "name": "ids",
          "type": "uint256[]"
        },
        {
          "indexed": false,
          "internalType": "uint256[]",
          "name": "values",
          "type": "uint256[]"
        }
      ],
      "name": "TransferBatch",
      "type": "event"
    },
    {
      "anonymous": false,
      "inputs": [
        {
          "indexed": true,
          "internalType": "address",
          "name": "operator",
          "type": "address"
        },
        {
          "indexed": true,
          "internalType": "address",
          "name": "from",
          "type": "address"
        },
        {
          "indexed": true,
          "internalType": "address",
          "name": "to",
          "type": "address"
        },
        {
          "indexed": false,
          "internalType": "uint256",
          "name": "id",
          "type": "uint256"
        },
        {
          "indexed": false,
          "internalType": "uint256",
          "name": "value",
          "type": "uint256"
        }
      ],
      "name": "TransferSingle",
      "type": "event"
    },
    {
      "anonymous": false,
      "inputs": [
        {
          "indexed": false,
          "internalType": "string",
          "name": "value",
          "type": "string"
        },
        {
          "indexed": true,
          "internalType": "uint256",
          "name": "id",
          "type": "uint256"
        }
      ],
      "name": "URI",
      "type": "event"
    },
    {
      "inputs": [
        {
          "internalType": "address",
          "name": "account",
          "type": "address"
        },
        {
          "internalType": "uint256",
          "name": "id",
          "type": "uint256"
        }
      ],
      "name": "balanceOf",
      "outputs": [
        {
          "internalType": "uint256",
          "name": "",
          "type": "uint256"
        }
      ],
      "stateMutability": "view",
      "type": "function"
    },
    {
      "inputs": [
        {
          "internalType": "address[]",
          "name": "accounts",
          "type": "address[]"
        },
        {
          "internalType": "uint256[]",
          "name": "ids",
          "type": "uint256[]"
        }
      ],
      "name": "balanceOfBatch",
      "outputs": [
        {
          "internalType": "uint256[]",
          "name": "",
          "type": "uint256[]"
        }
      ],
      "stateMutability": "view",
      "type": "function"
    },
    {
      "inputs": [
        {
          "internalType": "uint256",
          "name": "id",
          "type": "uint256"
        }
      ],
      "name": "exists",
      "outputs": [
        {
          "internalType": "bool",
          "name": "",
          "type": "bool"
        }
      ],
      "stateMutability": "view",
      "type": "function"
    },
    {
      "inputs": [
        {
          "internalType": "address",
          "name": "account",
          "type": "address"
        },
        {
          "internalType": "address",
          "name": "operator",
          "type": "address"
        }
      ],
      "name": "isApprovedForAll",
      "outputs": [
        {
          "internalType": "bool",
          "name": "",
          "type": "bool"
        }
      ],
      "stateMutability": "view",
      "type": "function"
    },
    {
      "inputs": [
        {
          "internalType": "address",
          "name": "_to",
          "type": "address"
        },
        {
          "internalType": "uint256[]",
          "name": "_tokensId",
          "type": "uint256[]"
        },
        {
          "internalType": "uint256[]",
          "name": "_amounts",
          "type": "uint256[]"
        }
      ],
      "name": "mint",
      "outputs": [],
      "stateMutability": "nonpayable",
      "type": "function"
    },
    {
      "inputs": [
        {
          "internalType": "address",
          "name": "from",
          "type": "address"
        },
        {
          "internalType": "address",
          "name": "to",
          "type": "address"
        },
        {
          "internalType": "uint256[]",
          "name": "ids",
          "type": "uint256[]"
        },
        {
          "internalType": "uint256[]",
          "name": "amounts",
          "type": "uint256[]"
        },
        {
          "internalType": "bytes",
          "name": "data",
          "type": "bytes"
        }
      ],
      "name": "safeBatchTransferFrom",
      "outputs": [],
      "stateMutability": "nonpayable",
      "type": "function"
    },
    {
      "inputs": [
        {
          "internalType": "address",
          "name": "from",
          "type": "address"
        },
        {
          "internalType": "address",
          "name": "to",
          "type": "address"
        },
        {
          "internalType": "uint256",
          "name": "id",
          "type": "uint256"
        },
        {
          "internalType": "uint256",
          "name": "amount",
          "type": "uint256"
        },
        {
          "internalType": "bytes",
          "name": "data",
          "type": "bytes"
        }
      ],
      "name": "safeTransferFrom",
      "outputs": [],
      "stateMutability": "nonpayable",
      "type": "function"
    },
    {
      "inputs": [
        {
          "internalType": "address",
          "name": "operator",
          "type": "address"
        },
        {
          "internalType": "bool",
          "name": "approved",
          "type": "bool"
        }
      ],
      "name": "setApprovalForAll",
      "outputs": [],
      "stateMutability": "nonpayable",
      "type": "function"
    },
    {
      "inputs": [
        {
          "internalType": "bytes4",
          "name": "interfaceId",
          "type": "bytes4"
        }
      ],
      "name": "supportsInterface",
      "outputs": [
        {
          "internalType": "bool",
          "name": "",
          "type": "bool"
        }
      ],
      "stateMutability": "view",
      "type": "function"
    },
    {
      "inputs": [
        {
          "internalType": "uint256",
          "name": "id",
          "type": "uint256"
        }
      ],
      "name": "totalSupply",
      "outputs": [
        {
          "internalType": "uint256",
          "name": "",
          "type": "uint256"
        }
      ],
      "stateMutability": "view",
      "type": "function"
    },
    {
      "inputs": [
        {
          "internalType": "uint256",
          "name": "",
          "type": "uint256"
        }
      ],
      "name": "uri",
      "outputs": [
        {
          "internalType": "string",
          "name": "",
          "type": "string"
        }
      ],
      "stateMutability": "view",
      "type": "function"
    }
  ],
  "bytecode": "0x60806040523480156200001157600080fd5b506040518060400160405280600c81526020017f46616b652045524331313535000000000000000000000000000000000000000081525062000059816200006060201b60201c565b5062000191565b8060029080519060200190620000789291906200007c565b5050565b8280546200008a906200012c565b90600052602060002090601f016020900481019282620000ae5760008555620000fa565b82601f10620000c957805160ff1916838001178555620000fa565b82800160010185558215620000fa579182015b82811115620000f9578251825591602001919060010190620000dc565b5b5090506200010991906200010d565b5090565b5b80821115620001285760008160009055506001016200010e565b5090565b600060028204905060018216806200014557607f821691505b602082108114156200015c576200015b62000162565b5b50919050565b7f4e487b7100000000000000000000000000000000000000000000000000000000600052602260045260246000fd5b612cef80620001a16000396000f3fe608060405234801561001057600080fd5b50600436106100a85760003560e01c80634f558e79116100715780634f558e79146101895780639727756a146101b9578063a22cb465146101d5578063bd85b039146101f1578063e985e9c514610221578063f242432a14610251576100a8565b8062fdd58e146100ad57806301ffc9a7146100dd5780630e89341c1461010d5780632eb2c2d61461013d5780634e1273f414610159575b600080fd5b6100c760048036038101906100c29190611dc6565b61026d565b6040516100d49190612446565b60405180910390f35b6100f760048036038101906100f29190611e6e565b610336565b60405161010491906122a9565b60405180910390f35b61012760048036038101906101229190611ec0565b610418565b60405161013491906122c4565b60405180910390f35b61015760048036038101906101529190611bbd565b6104ac565b005b610173600480360381019061016e9190611e02565b61054d565b6040516101809190612250565b60405180910390f35b6101a3600480360381019061019e9190611ec0565b6106fe565b6040516101b091906122a9565b60405180910390f35b6101d360048036038101906101ce9190611d0b565b610712565b005b6101ef60048036038101906101ea9190611d8a565b610732565b005b61020b60048036038101906102069190611ec0565b6108b3565b6040516102189190612446565b60405180910390f35b61023b60048036038101906102369190611b81565b6108d0565b60405161024891906122a9565b60405180910390f35b61026b60048036038101906102669190611c7c565b610964565b005b60008073ffffffffffffffffffffffffffffffffffffffff168373ffffffffffffffffffffffffffffffffffffffff1614156102de576040517f08c379a00000000000000000000000000000000000000000000000000000000081526004016102d590612326565b60405180910390fd5b60008083815260200190815260200160002060008473ffffffffffffffffffffffffffffffffffffffff1673ffffffffffffffffffffffffffffffffffffffff16815260200190815260200160002054905092915050565b60007fd9b67a26000000000000000000000000000000000000000000000000000000007bffffffffffffffffffffffffffffffffffffffffffffffffffffffff1916827bffffffffffffffffffffffffffffffffffffffffffffffffffffffff1916148061040157507f0e89341c000000000000000000000000000000000000000000000000000000007bffffffffffffffffffffffffffffffffffffffffffffffffffffffff1916827bffffffffffffffffffffffffffffffffffffffffffffffffffffffff1916145b80610411575061041082610a05565b5b9050919050565b606060028054610427906126e9565b80601f0160208091040260200160405190810160405280929190818152602001828054610453906126e9565b80156104a05780601f10610475576101008083540402835291602001916104a0565b820191906000526020600020905b81548152906001019060200180831161048357829003601f168201915b50505050509050919050565b6104b4610a6f565b73ffffffffffffffffffffffffffffffffffffffff168573ffffffffffffffffffffffffffffffffffffffff1614806104fa57506104f9856104f4610a6f565b6108d0565b5b610539576040517f08c379a000000000000000000000000000000000000000000000000000000000815260040161053090612386565b60405180910390fd5b6105468585858585610a77565b5050505050565b60608151835114610593576040517f08c379a000000000000000000000000000000000000000000000000000000000815260040161058a906123e6565b60405180910390fd5b6000835167ffffffffffffffff8111156105d6577f4e487b7100000000000000000000000000000000000000000000000000000000600052604160045260246000fd5b6040519080825280602002602001820160405280156106045781602001602082028036833780820191505090505b50905060005b84518110156106f35761069d85828151811061064f577f4e487b7100000000000000000000000000000000000000000000000000000000600052603260045260246000fd5b6020026020010151858381518110610690577f4e487b7100000000000000000000000000000000000000000000000000000000600052603260045260246000fd5b602002602001015161026d565b8282815181106106d6577f4e487b7100000000000000000000000000000000000000000000000000000000600052603260045260246000fd5b602002602001018181525050806106ec9061274c565b905061060a565b508091505092915050565b60008061070a836108b3565b119050919050565b61072d83838360405180602001604052806000815250610dd7565b505050565b8173ffffffffffffffffffffffffffffffffffffffff16610751610a6f565b73ffffffffffffffffffffffffffffffffffffffff1614156107a8576040517f08c379a000000000000000000000000000000000000000000000000000000000815260040161079f906123c6565b60405180910390fd5b80600160006107b5610a6f565b73ffffffffffffffffffffffffffffffffffffffff1673ffffffffffffffffffffffffffffffffffffffff16815260200190815260200160002060008473ffffffffffffffffffffffffffffffffffffffff1673ffffffffffffffffffffffffffffffffffffffff16815260200190815260200160002060006101000a81548160ff0219169083151502179055508173ffffffffffffffffffffffffffffffffffffffff16610862610a6f565b73ffffffffffffffffffffffffffffffffffffffff167f17307eab39ab6107e8899845ad3d59bd9653f200f220920489ca2b5937696c31836040516108a791906122a9565b60405180910390a35050565b600060036000838152602001908152602001600020549050919050565b6000600160008473ffffffffffffffffffffffffffffffffffffffff1673ffffffffffffffffffffffffffffffffffffffff16815260200190815260200160002060008373ffffffffffffffffffffffffffffffffffffffff1673ffffffffffffffffffffffffffffffffffffffff16815260200190815260200160002060009054906101000a900460ff16905092915050565b61096c610a6f565b73ffffffffffffffffffffffffffffffffffffffff168573ffffffffffffffffffffffffffffffffffffffff1614806109b257506109b1856109ac610a6f565b6108d0565b5b6109f1576040517f08c379a00000000000000000000000000000000000000000000000000000000081526004016109e890612346565b60405180910390fd5b6109fe8585858585611041565b5050505050565b60007f01ffc9a7000000000000000000000000000000000000000000000000000000007bffffffffffffffffffffffffffffffffffffffffffffffffffffffff1916827bffffffffffffffffffffffffffffffffffffffffffffffffffffffff1916149050919050565b600033905090565b8151835114610abb576040517f08c379a0000000000000000000000000000000000000000000000000000000008152600401610ab290612406565b60405180910390fd5b600073ffffffffffffffffffffffffffffffffffffffff168473ffffffffffffffffffffffffffffffffffffffff161415610b2b576040517f08c379a0000000000000000000000000000000000000000000000000000000008152600401610b2290612366565b60405180910390fd5b6000610b35610a6f565b9050610b458187878787876112c3565b60005b8451811015610d42576000858281518110610b8c577f4e487b7100000000000000000000000000000000000000000000000000000000600052603260045260246000fd5b602002602001015190506000858381518110610bd1577f4e487b7100000000000000000000000000000000000000000000000000000000600052603260045260246000fd5b60200260200101519050600080600084815260200190815260200160002060008b73ffffffffffffffffffffffffffffffffffffffff1673ffffffffffffffffffffffffffffffffffffffff16815260200190815260200160002054905081811015610c72576040517f08c379a0000000000000000000000000000000000000000000000000000000008152600401610c69906123a6565b60405180910390fd5b81810360008085815260200190815260200160002060008c73ffffffffffffffffffffffffffffffffffffffff1673ffffffffffffffffffffffffffffffffffffffff168152602001908152602001600020819055508160008085815260200190815260200160002060008b73ffffffffffffffffffffffffffffffffffffffff1673ffffffffffffffffffffffffffffffffffffffff1681526020019081526020016000206000828254610d2791906125a9565b9250508190555050505080610d3b9061274c565b9050610b48565b508473ffffffffffffffffffffffffffffffffffffffff168673ffffffffffffffffffffffffffffffffffffffff168273ffffffffffffffffffffffffffffffffffffffff167f4a39dc06d4c0dbc64b70af90fd698a233a518aa5d07e595d983b8c0526c8f7fb8787604051610db9929190612272565b60405180910390a4610dcf8187878787876114d5565b505050505050565b600073ffffffffffffffffffffffffffffffffffffffff168473ffffffffffffffffffffffffffffffffffffffff161415610e47576040517f08c379a0000000000000000000000000000000000000000000000000000000008152600401610e3e90612426565b60405180910390fd5b8151835114610e8b576040517f08c379a0000000000000000000000000000000000000000000000000000000008152600401610e8290612406565b60405180910390fd5b6000610e95610a6f565b9050610ea6816000878787876112c3565b60005b8451811015610fab57838181518110610eeb577f4e487b7100000000000000000000000000000000000000000000000000000000600052603260045260246000fd5b6020026020010151600080878481518110610f2f577f4e487b7100000000000000000000000000000000000000000000000000000000600052603260045260246000fd5b6020026020010151815260200190815260200160002060008873ffffffffffffffffffffffffffffffffffffffff1673ffffffffffffffffffffffffffffffffffffffff1681526020019081526020016000206000828254610f9191906125a9565b925050819055508080610fa39061274c565b915050610ea9565b508473ffffffffffffffffffffffffffffffffffffffff16600073ffffffffffffffffffffffffffffffffffffffff168273ffffffffffffffffffffffffffffffffffffffff167f4a39dc06d4c0dbc64b70af90fd698a233a518aa5d07e595d983b8c0526c8f7fb8787604051611023929190612272565b60405180910390a461103a816000878787876114d5565b5050505050565b600073ffffffffffffffffffffffffffffffffffffffff168473ffffffffffffffffffffffffffffffffffffffff1614156110b1576040517f08c379a00000000000000000000000000000000000000000000000000000000081526004016110a890612366565b60405180910390fd5b60006110bb610a6f565b90506110db8187876110cc886116bc565b6110d5886116bc565b876112c3565b600080600086815260200190815260200160002060008873ffffffffffffffffffffffffffffffffffffffff1673ffffffffffffffffffffffffffffffffffffffff16815260200190815260200160002054905083811015611172576040517f08c379a0000000000000000000000000000000000000000000000000000000008152600401611169906123a6565b60405180910390fd5b83810360008087815260200190815260200160002060008973ffffffffffffffffffffffffffffffffffffffff1673ffffffffffffffffffffffffffffffffffffffff168152602001908152602001600020819055508360008087815260200190815260200160002060008873ffffffffffffffffffffffffffffffffffffffff1673ffffffffffffffffffffffffffffffffffffffff168152602001908152602001600020600082825461122791906125a9565b925050819055508573ffffffffffffffffffffffffffffffffffffffff168773ffffffffffffffffffffffffffffffffffffffff168373ffffffffffffffffffffffffffffffffffffffff167fc3d58168c5ae7397731d063d5bbf3d657854427343f4c083240f7aacaa2d0f6288886040516112a4929190612461565b60405180910390a46112ba828888888888611782565b50505050505050565b6112d1868686868686611969565b600073ffffffffffffffffffffffffffffffffffffffff168573ffffffffffffffffffffffffffffffffffffffff1614156113cf5760005b83518110156113cd5782818151811061134b577f4e487b7100000000000000000000000000000000000000000000000000000000600052603260045260246000fd5b602002602001015160036000868481518110611390577f4e487b7100000000000000000000000000000000000000000000000000000000600052603260045260246000fd5b6020026020010151815260200190815260200160002060008282546113b591906125a9565b92505081905550806113c69061274c565b9050611309565b505b600073ffffffffffffffffffffffffffffffffffffffff168473ffffffffffffffffffffffffffffffffffffffff1614156114cd5760005b83518110156114cb57828181518110611449577f4e487b7100000000000000000000000000000000000000000000000000000000600052603260045260246000fd5b60200260200101516003600086848151811061148e577f4e487b7100000000000000000000000000000000000000000000000000000000600052603260045260246000fd5b6020026020010151815260200190815260200160002060008282546114b391906125ff565b92505081905550806114c49061274c565b9050611407565b505b505050505050565b6114f48473ffffffffffffffffffffffffffffffffffffffff16611971565b156116b4578373ffffffffffffffffffffffffffffffffffffffff1663bc197c8187878686866040518663ffffffff1660e01b815260040161153a95949392919061218e565b602060405180830381600087803b15801561155457600080fd5b505af192505050801561158557506040513d601f19601f820116820180604052508101906115829190611e97565b60015b61162b57611591612822565b806308c379a014156115ee57506115a6612bc7565b806115b157506115f0565b806040517f08c379a00000000000000000000000000000000000000000000000000000000081526004016115e591906122c4565b60405180910390fd5b505b6040517f08c379a0000000000000000000000000000000000000000000000000000000008152600401611622906122e6565b60405180910390fd5b63bc197c8160e01b7bffffffffffffffffffffffffffffffffffffffffffffffffffffffff1916817bffffffffffffffffffffffffffffffffffffffffffffffffffffffff1916146116b2576040517f08c379a00000000000000000000000000000000000000000000000000000000081526004016116a990612306565b60405180910390fd5b505b505050505050565b60606000600167ffffffffffffffff811115611701577f4e487b7100000000000000000000000000000000000000000000000000000000600052604160045260246000fd5b60405190808252806020026020018201604052801561172f5781602001602082028036833780820191505090505b509050828160008151811061176d577f4e487b7100000000000000000000000000000000000000000000000000000000600052603260045260246000fd5b60200260200101818152505080915050919050565b6117a18473ffffffffffffffffffffffffffffffffffffffff16611971565b15611961578373ffffffffffffffffffffffffffffffffffffffff1663f23a6e6187878686866040518663ffffffff1660e01b81526004016117e79594939291906121f6565b602060405180830381600087803b15801561180157600080fd5b505af192505050801561183257506040513d601f19601f8201168201806040525081019061182f9190611e97565b60015b6118d85761183e612822565b806308c379a0141561189b5750611853612bc7565b8061185e575061189d565b806040517f08c379a000000000000000000000000000000000000000000000000000000000815260040161189291906122c4565b60405180910390fd5b505b6040517f08c379a00000000000000000000000000000000000000000000000000000000081526004016118cf906122e6565b60405180910390fd5b63f23a6e6160e01b7bffffffffffffffffffffffffffffffffffffffffffffffffffffffff1916817bffffffffffffffffffffffffffffffffffffffffffffffffffffffff19161461195f576040517f08c379a000000000000000000000000000000000000000000000000000000000815260040161195690612306565b60405180910390fd5b505b505050505050565b505050505050565b600080823b905060008111915050919050565b6000611997611992846124af565b61248a565b905080838252602082019050828560208602820111156119b657600080fd5b60005b858110156119e657816119cc8882611a9a565b8452602084019350602083019250506001810190506119b9565b5050509392505050565b6000611a036119fe846124db565b61248a565b90508083825260208201905082856020860282011115611a2257600080fd5b60005b85811015611a525781611a388882611b6c565b845260208401935060208301925050600181019050611a25565b5050509392505050565b6000611a6f611a6a84612507565b61248a565b905082815260208101848484011115611a8757600080fd5b611a928482856126a7565b509392505050565b600081359050611aa981612c5d565b92915050565b600082601f830112611ac057600080fd5b8135611ad0848260208601611984565b91505092915050565b600082601f830112611aea57600080fd5b8135611afa8482602086016119f0565b91505092915050565b600081359050611b1281612c74565b92915050565b600081359050611b2781612c8b565b92915050565b600081519050611b3c81612c8b565b92915050565b600082601f830112611b5357600080fd5b8135611b63848260208601611a5c565b91505092915050565b600081359050611b7b81612ca2565b92915050565b60008060408385031215611b9457600080fd5b6000611ba285828601611a9a565b9250506020611bb385828601611a9a565b9150509250929050565b600080600080600060a08688031215611bd557600080fd5b6000611be388828901611a9a565b9550506020611bf488828901611a9a565b945050604086013567ffffffffffffffff811115611c1157600080fd5b611c1d88828901611ad9565b935050606086013567ffffffffffffffff811115611c3a57600080fd5b611c4688828901611ad9565b925050608086013567ffffffffffffffff811115611c6357600080fd5b611c6f88828901611b42565b9150509295509295909350565b600080600080600060a08688031215611c9457600080fd5b6000611ca288828901611a9a565b9550506020611cb388828901611a9a565b9450506040611cc488828901611b6c565b9350506060611cd588828901611b6c565b925050608086013567ffffffffffffffff811115611cf257600080fd5b611cfe88828901611b42565b9150509295509295909350565b600080600060608486031215611d2057600080fd5b6000611d2e86828701611a9a565b935050602084013567ffffffffffffffff811115611d4b57600080fd5b611d5786828701611ad9565b925050604084013567ffffffffffffffff811115611d7457600080fd5b611d8086828701611ad9565b9150509250925092565b60008060408385031215611d9d57600080fd5b6000611dab85828601611a9a565b9250506020611dbc85828601611b03565b9150509250929050565b60008060408385031215611dd957600080fd5b6000611de785828601611a9a565b9250506020611df885828601611b6c565b9150509250929050565b60008060408385031215611e1557600080fd5b600083013567ffffffffffffffff811115611e2f57600080fd5b611e3b85828601611aaf565b925050602083013567ffffffffffffffff811115611e5857600080fd5b611e6485828601611ad9565b9150509250929050565b600060208284031215611e8057600080fd5b6000611e8e84828501611b18565b91505092915050565b600060208284031215611ea957600080fd5b6000611eb784828501611b2d565b91505092915050565b600060208284031215611ed257600080fd5b6000611ee084828501611b6c565b91505092915050565b6000611ef58383612170565b60208301905092915050565b611f0a81612633565b82525050565b6000611f1b82612548565b611f258185612576565b9350611f3083612538565b8060005b83811015611f61578151611f488882611ee9565b9750611f5383612569565b925050600181019050611f34565b5085935050505092915050565b611f7781612645565b82525050565b6000611f8882612553565b611f928185612587565b9350611fa28185602086016126b6565b611fab81612844565b840191505092915050565b6000611fc18261255e565b611fcb8185612598565b9350611fdb8185602086016126b6565b611fe481612844565b840191505092915050565b6000611ffc603483612598565b915061200782612862565b604082019050919050565b600061201f602883612598565b915061202a826128b1565b604082019050919050565b6000612042602b83612598565b915061204d82612900565b604082019050919050565b6000612065602983612598565b91506120708261294f565b604082019050919050565b6000612088602583612598565b91506120938261299e565b604082019050919050565b60006120ab603283612598565b91506120b6826129ed565b604082019050919050565b60006120ce602a83612598565b91506120d982612a3c565b604082019050919050565b60006120f1602983612598565b91506120fc82612a8b565b604082019050919050565b6000612114602983612598565b915061211f82612ada565b604082019050919050565b6000612137602883612598565b915061214282612b29565b604082019050919050565b600061215a602183612598565b915061216582612b78565b604082019050919050565b6121798161269d565b82525050565b6121888161269d565b82525050565b600060a0820190506121a36000830188611f01565b6121b06020830187611f01565b81810360408301526121c28186611f10565b905081810360608301526121d68185611f10565b905081810360808301526121ea8184611f7d565b90509695505050505050565b600060a08201905061220b6000830188611f01565b6122186020830187611f01565b612225604083018661217f565b612232606083018561217f565b81810360808301526122448184611f7d565b90509695505050505050565b6000602082019050818103600083015261226a8184611f10565b905092915050565b6000604082019050818103600083015261228c8185611f10565b905081810360208301526122a08184611f10565b90509392505050565b60006020820190506122be6000830184611f6e565b92915050565b600060208201905081810360008301526122de8184611fb6565b905092915050565b600060208201905081810360008301526122ff81611fef565b9050919050565b6000602082019050818103600083015261231f81612012565b9050919050565b6000602082019050818103600083015261233f81612035565b9050919050565b6000602082019050818103600083015261235f81612058565b9050919050565b6000602082019050818103600083015261237f8161207b565b9050919050565b6000602082019050818103600083015261239f8161209e565b9050919050565b600060208201905081810360008301526123bf816120c1565b9050919050565b600060208201905081810360008301526123df816120e4565b9050919050565b600060208201905081810360008301526123ff81612107565b9050919050565b6000602082019050818103600083015261241f8161212a565b9050919050565b6000602082019050818103600083015261243f8161214d565b9050919050565b600060208201905061245b600083018461217f565b92915050565b6000604082019050612476600083018561217f565b612483602083018461217f565b9392505050565b60006124946124a5565b90506124a0828261271b565b919050565b6000604051905090565b600067ffffffffffffffff8211156124ca576124c96127f3565b5b602082029050602081019050919050565b600067ffffffffffffffff8211156124f6576124f56127f3565b5b602082029050602081019050919050565b600067ffffffffffffffff821115612522576125216127f3565b5b61252b82612844565b9050602081019050919050565b6000819050602082019050919050565b600081519050919050565b600081519050919050565b600081519050919050565b6000602082019050919050565b600082825260208201905092915050565b600082825260208201905092915050565b600082825260208201905092915050565b60006125b48261269d565b91506125bf8361269d565b9250827fffffffffffffffffffffffffffffffffffffffffffffffffffffffffffffffff038211156125f4576125f3612795565b5b828201905092915050565b600061260a8261269d565b91506126158361269d565b92508282101561262857612627612795565b5b828203905092915050565b600061263e8261267d565b9050919050565b60008115159050919050565b60007fffffffff0000000000000000000000000000000000000000000000000000000082169050919050565b600073ffffffffffffffffffffffffffffffffffffffff82169050919050565b6000819050919050565b82818337600083830152505050565b60005b838110156126d45780820151818401526020810190506126b9565b838111156126e3576000848401525b50505050565b6000600282049050600182168061270157607f821691505b60208210811415612715576127146127c4565b5b50919050565b61272482612844565b810181811067ffffffffffffffff82111715612743576127426127f3565b5b80604052505050565b60006127578261269d565b91507fffffffffffffffffffffffffffffffffffffffffffffffffffffffffffffffff82141561278a57612789612795565b5b600182019050919050565b7f4e487b7100000000000000000000000000000000000000000000000000000000600052601160045260246000fd5b7f4e487b7100000000000000000000000000000000000000000000000000000000600052602260045260246000fd5b7f4e487b7100000000000000000000000000000000000000000000000000000000600052604160045260246000fd5b600060033d11156128415760046000803e61283e600051612855565b90505b90565b6000601f19601f8301169050919050565b60008160e01c9050919050565b7f455243313135353a207472616e7366657220746f206e6f6e204552433131353560008201527f526563656976657220696d706c656d656e746572000000000000000000000000602082015250565b7f455243313135353a204552433131353552656365697665722072656a6563746560008201527f6420746f6b656e73000000000000000000000000000000000000000000000000602082015250565b7f455243313135353a2062616c616e636520717565727920666f7220746865207a60008201527f65726f2061646472657373000000000000000000000000000000000000000000602082015250565b7f455243313135353a2063616c6c6572206973206e6f74206f776e6572206e6f7260008201527f20617070726f7665640000000000000000000000000000000000000000000000602082015250565b7f455243313135353a207472616e7366657220746f20746865207a65726f20616460008201527f6472657373000000000000000000000000000000000000000000000000000000602082015250565b7f455243313135353a207472616e736665722063616c6c6572206973206e6f742060008201527f6f776e6572206e6f7220617070726f7665640000000000000000000000000000602082015250565b7f455243313135353a20696e73756666696369656e742062616c616e636520666f60008201527f72207472616e7366657200000000000000000000000000000000000000000000602082015250565b7f455243313135353a2073657474696e6720617070726f76616c2073746174757360008201527f20666f722073656c660000000000000000000000000000000000000000000000602082015250565b7f455243313135353a206163636f756e747320616e6420696473206c656e67746860008201527f206d69736d617463680000000000000000000000000000000000000000000000602082015250565b7f455243313135353a2069647320616e6420616d6f756e7473206c656e6774682060008201527f6d69736d61746368000000000000000000000000000000000000000000000000602082015250565b7f455243313135353a206d696e7420746f20746865207a65726f2061646472657360008201527f7300000000000000000000000000000000000000000000000000000000000000602082015250565b600060443d1015612bd757612c5a565b612bdf6124a5565b60043d036004823e80513d602482011167ffffffffffffffff82111715612c07575050612c5a565b808201805167ffffffffffffffff811115612c255750505050612c5a565b80602083010160043d038501811115612c42575050505050612c5a565b612c518260200185018661271b565b82955050505050505b90565b612c6681612633565b8114612c7157600080fd5b50565b612c7d81612645565b8114612c8857600080fd5b50565b612c9481612651565b8114612c9f57600080fd5b50565b612cab8161269d565b8114612cb657600080fd5b5056fea2646970667358221220fba79564d66e6b993d9d6db39c88f2938018812b64bd3cb3d42cb7618fe3692264736f6c63430008040033",
  "linkReferences": {},
  "deployedLinkReferences": {}
}