{
  "_format": "hh-sol-artifact-1",
  "contractName": "Gateway1155",
  "sourceName": "contracts/Gateway1155.sol",
  "abi": [
    {
      "inputs": [
        {
          "internalType": "address",
          "name": "_starknetCore",
          "type": "address"
        }
      ],
      "stateMutability": "nonpayable",
      "type": "constructor"
    },
    {
      "anonymous": false,
      "inputs": [
        {
          "indexed": false,
          "internalType": "address",
          "name": "addr",
          "type": "address"
        },
        {
          "indexed": false,
          "internalType": "uint256",
          "name": "salt",
          "type": "uint256"
        }
      ],
      "name": "Deployed",
      "type": "event"
    },
    {
      "inputs": [
        {
          "internalType": "contract FakeErc1155",
          "name": "_l1TokenContract",
          "type": "address"
        },
        {
          "internalType": "uint256",
          "name": "_l2TokenContract",
          "type": "uint256"
        },
        {
          "internalType": "uint256[]",
          "name": "_tokensId",
          "type": "uint256[]"
        },
        {
          "internalType": "uint256[]",
          "name": "_amounts",
          "type": "uint256[]"
        }
      ],
      "name": "bridgeFromStarknet",
      "outputs": [],
      "stateMutability": "nonpayable",
      "type": "function"
    },
    {
      "inputs": [
        {
          "internalType": "contract ERC1155",
          "name": "_l1TokenContract",
          "type": "address"
        },
        {
          "internalType": "uint256",
          "name": "_l2TokenContract",
          "type": "uint256"
        },
        {
          "internalType": "uint256[]",
          "name": "_tokensId",
          "type": "uint256[]"
        },
        {
          "internalType": "uint256[]",
          "name": "_amounts",
          "type": "uint256[]"
        }
      ],
      "name": "bridgeFromStarknetAvailable",
      "outputs": [
        {
          "internalType": "bool",
          "name": "",
          "type": "bool"
        }
      ],
      "stateMutability": "view",
      "type": "function"
    },
    {
      "inputs": [
        {
          "internalType": "contract ERC1155",
          "name": "_l1TokenContract",
          "type": "address"
        },
        {
          "internalType": "uint256",
          "name": "_l2TokenContract",
          "type": "uint256"
        },
        {
          "internalType": "uint256[]",
          "name": "_tokensId",
          "type": "uint256[]"
        },
        {
          "internalType": "uint256[]",
          "name": "_amounts",
          "type": "uint256[]"
        },
        {
          "internalType": "uint256",
          "name": "_account",
          "type": "uint256"
        }
      ],
      "name": "bridgeToStarknet",
      "outputs": [],
      "stateMutability": "nonpayable",
      "type": "function"
    },
    {
      "inputs": [
        {
          "internalType": "bytes",
          "name": "bytecode",
          "type": "bytes"
        },
        {
          "internalType": "uint256",
          "name": "_salt",
          "type": "uint256"
        }
      ],
      "name": "deploy",
      "outputs": [
        {
          "internalType": "address",
          "name": "",
          "type": "address"
        }
      ],
      "stateMutability": "payable",
      "type": "function"
    },
    {
      "inputs": [],
      "name": "endpointGateway",
      "outputs": [
        {
          "internalType": "uint256",
          "name": "",
          "type": "uint256"
        }
      ],
      "stateMutability": "view",
      "type": "function"
    },
    {
      "inputs": [
        {
          "internalType": "bytes",
          "name": "bytecode",
          "type": "bytes"
        },
        {
          "internalType": "uint256",
          "name": "_salt",
          "type": "uint256"
        }
      ],
      "name": "getAddress",
      "outputs": [
        {
          "internalType": "address",
          "name": "",
          "type": "address"
        }
      ],
      "stateMutability": "view",
      "type": "function"
    },
    {
      "inputs": [],
      "name": "getBytecode",
      "outputs": [
        {
          "internalType": "bytes",
          "name": "",
          "type": "bytes"
        }
      ],
      "stateMutability": "view",
      "type": "function"
    },
    {
      "inputs": [],
      "name": "initialEndpointGatewaySetter",
      "outputs": [
        {
          "internalType": "address",
          "name": "",
          "type": "address"
        }
      ],
      "stateMutability": "view",
      "type": "function"
    },
    {
      "inputs": [
        {
          "internalType": "uint256[]",
          "name": "_tokensId",
          "type": "uint256[]"
        },
        {
          "internalType": "uint256[]",
          "name": "_amounts",
          "type": "uint256[]"
        }
      ],
      "name": "mintNFTFromStarknet",
      "outputs": [],
      "stateMutability": "nonpayable",
      "type": "function"
    },
    {
      "inputs": [
        {
          "internalType": "uint256",
          "name": "_endpointGateway",
          "type": "uint256"
        }
      ],
      "name": "setEndpointGateway",
      "outputs": [],
      "stateMutability": "nonpayable",
      "type": "function"
    },
    {
      "inputs": [],
      "name": "starknetCore",
      "outputs": [
        {
          "internalType": "contract IStarknetCore",
          "name": "",
          "type": "address"
        }
      ],
      "stateMutability": "view",
      "type": "function"
    }
  ],
  "bytecode": "0x60806040523480156200001157600080fd5b5060405162005f9838038062005f98833981810160405281019062000037919062000149565b600073ffffffffffffffffffffffffffffffffffffffff168173ffffffffffffffffffffffffffffffffffffffff161415620000aa576040517f08c379a0000000000000000000000000000000000000000000000000000000008152600401620000a1906200019c565b60405180910390fd5b80600260006101000a81548173ffffffffffffffffffffffffffffffffffffffff021916908373ffffffffffffffffffffffffffffffffffffffff160217905550336000806101000a81548173ffffffffffffffffffffffffffffffffffffffff021916908373ffffffffffffffffffffffffffffffffffffffff160217905550506200026c565b600081519050620001438162000252565b92915050565b6000602082840312156200015c57600080fd5b60006200016c8482850162000132565b91505092915050565b600062000184602583620001be565b9150620001918262000203565b604082019050919050565b60006020820190508181036000830152620001b78162000175565b9050919050565b600082825260208201905092915050565b6000620001dc82620001e3565b9050919050565b600073ffffffffffffffffffffffffffffffffffffffff82169050919050565b7f476174657761792f696e76616c69642d737461726b6e65742d636f72652d616460008201527f6472657373000000000000000000000000000000000000000000000000000000602082015250565b6200025d81620001cf565b81146200026957600080fd5b50565b615d1c806200027c6000396000f3fe608060405260043610620000aa5760003560e01c806352c7420d116200006d57806352c7420d14620001af578063749e91ba14620001df57806394ca2cb5146200020d5780639c4ae2d01462000251578063aa5afdc41462000287578063c5cf2d5e14620002b557620000aa565b80631814104b14620000af578063378eb3b314620000dd5780633986c2d9146200012157806339e730ab146200014f57806341b3a0a1146200017f575b600080fd5b348015620000bc57600080fd5b50620000db6004803603810190620000d5919062001fda565b620002e5565b005b348015620000ea57600080fd5b5062000109600480360381019062000103919062001e88565b62000876565b604051620001189190620025ba565b60405180910390f35b3480156200012e57600080fd5b506200014d600480360381019062000147919062001f26565b62000ce3565b005b3480156200015c57600080fd5b506200016762001196565b6040516200017691906200264c565b60405180910390f35b3480156200018c57600080fd5b5062000197620011bc565b604051620001a6919062002757565b60405180910390f35b348015620001bc57600080fd5b50620001c7620011c2565b604051620001d69190620025f4565b60405180910390f35b348015620001ec57600080fd5b506200020b600480360381019062000205919062001d4a565b62001239565b005b3480156200021a57600080fd5b5062000239600480360381019062000233919062001e2e565b6200192d565b60405162000248919062002525565b60405180910390f35b6200026f600480360381019062000269919062001e2e565b62001979565b6040516200027e919062002525565b60405180910390f35b3480156200029457600080fd5b50620002b36004803603810190620002ad919062002078565b620019d9565b005b348015620002c257600080fd5b50620002cd62001abc565b604051620002dc919062002525565b60405180910390f35b80518251146200032c576040517f08c379a0000000000000000000000000000000000000000000000000000000008152600401620003239062002713565b60405180910390fd5b6000600283516200033e919062002953565b60046200034c9190620028f6565b90506000808267ffffffffffffffff81111562000392577f4e487b7100000000000000000000000000000000000000000000000000000000600052604160045260246000fd5b604051908082528060200260200182016040528015620003c15781602001602082028036833780820191505090505b50905060018160008151811062000401577f4e487b7100000000000000000000000000000000000000000000000000000000600052603260045260246000fd5b602002602001018181525050620004183362001ae0565b8160018151811062000453577f4e487b7100000000000000000000000000000000000000000000000000000000600052603260045260246000fd5b6020026020010181815250506200046a8762001ae0565b81600281518110620004a5577f4e487b7100000000000000000000000000000000000000000000000000000000600052603260045260246000fd5b6020026020010181815250508581600381518110620004ed577f4e487b7100000000000000000000000000000000000000000000000000000000600052603260045260246000fd5b6020026020010181815250506000600490505b838110156200069557855183106200054f576040517f08c379a000000000000000000000000000000000000000000000000000000000815260040162000546906200268b565b60405180910390fd5b85838151811062000589577f4e487b7100000000000000000000000000000000000000000000000000000000600052603260045260246000fd5b6020026020010151828281518110620005cb577f4e487b7100000000000000000000000000000000000000000000000000000000600052603260045260246000fd5b6020026020010181815250508080620005e49062002b4e565b91505084838151811062000621577f4e487b7100000000000000000000000000000000000000000000000000000000600052603260045260246000fd5b602002602001015182828151811062000663577f4e487b7100000000000000000000000000000000000000000000000000000000600052603260045260246000fd5b60200260200101818152505082806200067c9062002b4e565b93505080806200068c9062002b4e565b91505062000500565b50600260009054906101000a900473ffffffffffffffffffffffffffffffffffffffff1673ffffffffffffffffffffffffffffffffffffffff16632c9dd5c0600154836040518363ffffffff1660e01b8152600401620006f792919062002774565b602060405180830381600087803b1580156200071257600080fd5b505af115801562000727573d6000803e3d6000fd5b505050506040513d601f19601f820116820180604052508101906200074d919062001dbd565b5060005b85518110156200086c5784818151811062000795577f4e487b7100000000000000000000000000000000000000000000000000000000600052603260045260246000fd5b6020026020010151600460003373ffffffffffffffffffffffffffffffffffffffff1673ffffffffffffffffffffffffffffffffffffffff168152602001908152602001600020600088848151811062000818577f4e487b7100000000000000000000000000000000000000000000000000000000600052603260045260246000fd5b6020026020010151815260200190815260200160002060008282546200083f9190620028f6565b925050819055508080620008539062002b4e565b9150508080620008639062002b4e565b91505062000751565b5050505050505050565b6000806002845162000889919062002953565b6004620008979190620028f6565b90506000808267ffffffffffffffff811115620008dd577f4e487b7100000000000000000000000000000000000000000000000000000000600052604160045260246000fd5b6040519080825280602002602001820160405280156200090c5781602001602082028036833780820191505090505b5090506001816000815181106200094c577f4e487b7100000000000000000000000000000000000000000000000000000000600052603260045260246000fd5b602002602001018181525050620009633362001ae0565b816001815181106200099e577f4e487b7100000000000000000000000000000000000000000000000000000000600052603260045260246000fd5b602002602001018181525050620009b58862001ae0565b81600281518110620009f0577f4e487b7100000000000000000000000000000000000000000000000000000000600052603260045260246000fd5b602002602001018181525050868160038151811062000a38577f4e487b7100000000000000000000000000000000000000000000000000000000600052603260045260246000fd5b6020026020010181815250506000600490505b8381101562000be0578651831062000a9a576040517f08c379a000000000000000000000000000000000000000000000000000000000815260040162000a91906200268b565b60405180910390fd5b86838151811062000ad4577f4e487b7100000000000000000000000000000000000000000000000000000000600052603260045260246000fd5b602002602001015182828151811062000b16577f4e487b7100000000000000000000000000000000000000000000000000000000600052603260045260246000fd5b602002602001018181525050808062000b2f9062002b4e565b91505085838151811062000b6c577f4e487b7100000000000000000000000000000000000000000000000000000000600052603260045260246000fd5b602002602001015182828151811062000bae577f4e487b7100000000000000000000000000000000000000000000000000000000600052603260045260246000fd5b602002602001018181525050828062000bc79062002b4e565b935050808062000bd79062002b4e565b91505062000a4b565b50600060015462000bf13062001ae0565b83518460405160200162000c099493929190620024d3565b6040516020818303038152906040528051906020012090506000600260009054906101000a900473ffffffffffffffffffffffffffffffffffffffff1673ffffffffffffffffffffffffffffffffffffffff1663a46efaf3836040518263ffffffff1660e01b815260040162000c809190620025d7565b60206040518083038186803b15801562000c9957600080fd5b505afa15801562000cae573d6000803e3d6000fd5b505050506040513d601f19601f8201168201806040525081019062000cd49190620020a4565b11945050505050949350505050565b815183511462000d2a576040517f08c379a000000000000000000000000000000000000000000000000000000000815260040162000d219062002713565b60405180910390fd5b60006002845162000d3c919062002953565b600562000d4a9190620028f6565b90506000806004905060008367ffffffffffffffff81111562000d96577f4e487b7100000000000000000000000000000000000000000000000000000000600052604160045260246000fd5b60405190808252806020026020018201604052801562000dc55781602001602082028036833780820191505090505b509050848160008151811062000e04577f4e487b7100000000000000000000000000000000000000000000000000000000600052603260045260246000fd5b60200260200101818152505062000e1b8962001ae0565b8160018151811062000e56577f4e487b7100000000000000000000000000000000000000000000000000000000600052603260045260246000fd5b602002602001018181525050878160028151811062000e9e577f4e487b7100000000000000000000000000000000000000000000000000000000600052603260045260246000fd5b60200260200101818152505086518160038151811062000ee7577f4e487b7100000000000000000000000000000000000000000000000000000000600052603260045260246000fd5b6020026020010181815250505b865183101562000fac5786838151811062000f38577f4e487b7100000000000000000000000000000000000000000000000000000000600052603260045260246000fd5b602002602001015181838151811062000f7a577f4e487b7100000000000000000000000000000000000000000000000000000000600052603260045260246000fd5b602002602001018181525050828062000f939062002b4e565b935050818062000fa39062002b4e565b92505062000ef4565b60009250855181838151811062000fec577f4e487b7100000000000000000000000000000000000000000000000000000000600052603260045260246000fd5b6020026020010181815250505b8551831015620010b1578180620010109062002b4e565b9250508583815181106200104d577f4e487b7100000000000000000000000000000000000000000000000000000000600052603260045260246000fd5b60200260200101518183815181106200108f577f4e487b7100000000000000000000000000000000000000000000000000000000600052603260045260246000fd5b6020026020010181815250508280620010a89062002b4e565b93505062000ff9565b600260009054906101000a900473ffffffffffffffffffffffffffffffffffffffff1673ffffffffffffffffffffffffffffffffffffffff16633e3aa6c56001547f03d7e9aabaee46b2e84062eb3bca33a0c08e1142b329c095d47ec3d6af1adbc6846040518463ffffffff1660e01b81526004016200113493929190620027a8565b602060405180830381600087803b1580156200114f57600080fd5b505af115801562001164573d6000803e3d6000fd5b505050506040513d601f19601f820116820180604052508101906200118a919062001dbd565b50505050505050505050565b600260009054906101000a900473ffffffffffffffffffffffffffffffffffffffff1681565b60015481565b6060600060405180602001620011d89062001b00565b6020820181038252601f19601f820116604052509050803060405160200162001202919062002525565b60405160208183030381529060405260405160200162001224929190620024ab565b60405160208183030381529060405291505090565b8181805182511462001282576040517f08c379a0000000000000000000000000000000000000000000000000000000008152600401620012799062002713565b60405180910390fd5b60005b82518110156200146f576000838281518110620012cb577f4e487b7100000000000000000000000000000000000000000000000000000000600052603260045260246000fd5b60200260200101519050600083838151811062001311577f4e487b7100000000000000000000000000000000000000000000000000000000600052603260045260246000fd5b602002602001015190506000600460003373ffffffffffffffffffffffffffffffffffffffff1673ffffffffffffffffffffffffffffffffffffffff16815260200190815260200160002060008481526020019081526020016000205411620013b1576040517f08c379a0000000000000000000000000000000000000000000000000000000008152600401620013a890620026f1565b60405180910390fd5b80600460003373ffffffffffffffffffffffffffffffffffffffff1673ffffffffffffffffffffffffffffffffffffffff168152602001908152602001600020600084815260200190815260200160002054101562001447576040517f08c379a00000000000000000000000000000000000000000000000000000000081526004016200143e9062002735565b60405180910390fd5b8280620014549062002b4e565b93505050508080620014669062002b4e565b91505062001285565b5060003073ffffffffffffffffffffffffffffffffffffffff166352c7420d6040518163ffffffff1660e01b815260040160006040518083038186803b158015620014b957600080fd5b505afa158015620014ce573d6000803e3d6000fd5b505050506040513d6000823e3d601f19601f82011682018060405250810190620014f9919062001de9565b905060003073ffffffffffffffffffffffffffffffffffffffff166394ca2cb5836401234567886040518363ffffffff1660e01b81526004016200153f92919062002618565b60206040518083038186803b1580156200155857600080fd5b505afa1580156200156d573d6000803e3d6000fd5b505050506040513d601f19601f8201168201806040525081019062001593919062001d1e565b9050600360008273ffffffffffffffffffffffffffffffffffffffff1673ffffffffffffffffffffffffffffffffffffffff16815260200190815260200160002060009054906101000a900460ff166200178c5760007f307831323334353637383800000000000000000000000000000000000000000030604051620016199062001b00565b62001625919062002525565b8190604051809103906000f590508015801562001646573d6000803e3d6000fd5b5090508173ffffffffffffffffffffffffffffffffffffffff168173ffffffffffffffffffffffffffffffffffffffff1614620016ba576040517f08c379a0000000000000000000000000000000000000000000000000000000008152600401620016b190620026cf565b60405180910390fd5b6001600360008373ffffffffffffffffffffffffffffffffffffffff1673ffffffffffffffffffffffffffffffffffffffff16815260200190815260200160002060006101000a81548160ff0219169083151502179055508073ffffffffffffffffffffffffffffffffffffffff1663f03614163389896040518463ffffffff1660e01b8152600401620017519392919062002542565b600060405180830381600087803b1580156200176c57600080fd5b505af115801562001781573d6000803e3d6000fd5b505050505062001806565b60008190508073ffffffffffffffffffffffffffffffffffffffff1663f03614163389896040518463ffffffff1660e01b8152600401620017d09392919062002542565b600060405180830381600087803b158015620017eb57600080fd5b505af115801562001800573d6000803e3d6000fd5b50505050505b60005b865181101562001924578581815181106200184d577f4e487b7100000000000000000000000000000000000000000000000000000000600052603260045260246000fd5b6020026020010151600460003373ffffffffffffffffffffffffffffffffffffffff1673ffffffffffffffffffffffffffffffffffffffff1681526020019081526020016000206000898481518110620018d0577f4e487b7100000000000000000000000000000000000000000000000000000000600052603260045260246000fd5b602002602001015181526020019081526020016000206000828254620018f79190620029b4565b9250508190555080806200190b9062002b4e565b91505080806200191b9062002b4e565b91505062001809565b50505050505050565b60008060ff60f81b3084868051906020012060405160200162001954949392919062002455565b6040516020818303038152906040528051906020012090508060001c91505092915050565b600080828451602086016000f59050803b6200199457600080fd5b7fb03c53b28e78a88e31607a27e1fa48234dce28d5d9d9ec7b295aeb02e674a1e18184604051620019c79291906200258d565b60405180910390a18091505092915050565b60008054906101000a900473ffffffffffffffffffffffffffffffffffffffff1673ffffffffffffffffffffffffffffffffffffffff163373ffffffffffffffffffffffffffffffffffffffff161462001a6a576040517f08c379a000000000000000000000000000000000000000000000000000000000815260040162001a6190620026ad565b60405180910390fd5b60006001541462001ab2576040517f08c379a000000000000000000000000000000000000000000000000000000000815260040162001aa99062002669565b60405180910390fd5b8060018190555050565b60008054906101000a900473ffffffffffffffffffffffffffffffffffffffff1681565b60008173ffffffffffffffffffffffffffffffffffffffff169050919050565b612e038062002ee483390190565b600062001b2562001b1f8462002815565b620027ec565b9050808382526020820190508285602086028201111562001b4557600080fd5b60005b8581101562001b79578162001b5e888262001cf0565b84526020840193506020830192505060018101905062001b48565b5050509392505050565b600062001b9a62001b948462002844565b620027ec565b90508281526020810184848401111562001bb357600080fd5b62001bc084828562002ad3565b509392505050565b600062001bdf62001bd98462002844565b620027ec565b90508281526020810184848401111562001bf857600080fd5b62001c0584828562002ae2565b509392505050565b60008151905062001c1e8162002e61565b92915050565b600082601f83011262001c3657600080fd5b813562001c4884826020860162001b0e565b91505092915050565b60008151905062001c628162002e7b565b92915050565b600082601f83011262001c7a57600080fd5b813562001c8c84826020860162001b83565b91505092915050565b600082601f83011262001ca757600080fd5b815162001cb984826020860162001bc8565b91505092915050565b60008135905062001cd38162002e95565b92915050565b60008135905062001cea8162002eaf565b92915050565b60008135905062001d018162002ec9565b92915050565b60008151905062001d188162002ec9565b92915050565b60006020828403121562001d3157600080fd5b600062001d418482850162001c0d565b91505092915050565b6000806040838503121562001d5e57600080fd5b600083013567ffffffffffffffff81111562001d7957600080fd5b62001d878582860162001c24565b925050602083013567ffffffffffffffff81111562001da557600080fd5b62001db38582860162001c24565b9150509250929050565b60006020828403121562001dd057600080fd5b600062001de08482850162001c51565b91505092915050565b60006020828403121562001dfc57600080fd5b600082015167ffffffffffffffff81111562001e1757600080fd5b62001e258482850162001c95565b91505092915050565b6000806040838503121562001e4257600080fd5b600083013567ffffffffffffffff81111562001e5d57600080fd5b62001e6b8582860162001c68565b925050602062001e7e8582860162001cf0565b9150509250929050565b6000806000806080858703121562001e9f57600080fd5b600062001eaf8782880162001cc2565b945050602062001ec28782880162001cf0565b935050604085013567ffffffffffffffff81111562001ee057600080fd5b62001eee8782880162001c24565b925050606085013567ffffffffffffffff81111562001f0c57600080fd5b62001f1a8782880162001c24565b91505092959194509250565b600080600080600060a0868803121562001f3f57600080fd5b600062001f4f8882890162001cc2565b955050602062001f628882890162001cf0565b945050604086013567ffffffffffffffff81111562001f8057600080fd5b62001f8e8882890162001c24565b935050606086013567ffffffffffffffff81111562001fac57600080fd5b62001fba8882890162001c24565b925050608062001fcd8882890162001cf0565b9150509295509295909350565b6000806000806080858703121562001ff157600080fd5b6000620020018782880162001cd9565b9450506020620020148782880162001cf0565b935050604085013567ffffffffffffffff8111156200203257600080fd5b620020408782880162001c24565b925050606085013567ffffffffffffffff8111156200205e57600080fd5b6200206c8782880162001c24565b91505092959194509250565b6000602082840312156200208b57600080fd5b60006200209b8482850162001cf0565b91505092915050565b600060208284031215620020b757600080fd5b6000620020c78482850162001d07565b91505092915050565b6000620020de838362002407565b60208301905092915050565b6000620020f8838362002429565b60208301905092915050565b6200210f81620029ef565b82525050565b6200212a6200212482620029ef565b62002b9c565b82525050565b60006200213d826200288a565b620021498185620028ad565b935062002156836200287a565b8060005b838110156200218d578151620021718882620020d0565b97506200217e83620028a0565b9250506001810190506200215a565b5085935050505092915050565b6000620021a7826200288a565b620021b38185620028be565b9350620021c0836200287a565b8060005b83811015620021f7578151620021db8882620020ea565b9750620021e883620028a0565b925050600181019050620021c4565b5085935050505092915050565b6200220f8162002a03565b82525050565b6200222a620022248262002a0f565b62002bb0565b82525050565b6200223b8162002a3b565b82525050565b62002256620022508262002a3b565b62002bba565b82525050565b6000620022698262002895565b620022758185620028c9565b93506200228781856020860162002ae2565b620022928162002c40565b840191505092915050565b6000620022aa8262002895565b620022b68185620028da565b9350620022c881856020860162002ae2565b80840191505092915050565b620022df8162002a97565b82525050565b620022f08162002abf565b82525050565b600062002305602483620028e5565b9150620023128262002c5e565b604082019050919050565b60006200232c602283620028e5565b9150620023398262002cad565b604082019050919050565b600062002353601483620028e5565b9150620023608262002cfc565b602082019050919050565b60006200237a603883620028e5565b9150620023878262002d25565b604082019050919050565b6000620023a1603d83620028e5565b9150620023ae8262002d74565b604082019050919050565b6000620023c8603e83620028e5565b9150620023d58262002dc3565b604082019050919050565b6000620023ef602783620028e5565b9150620023fc8262002e12565b604082019050919050565b620024128162002a8d565b82525050565b620024238162002a8d565b82525050565b620024348162002a8d565b82525050565b6200244f620024498262002a8d565b62002bd8565b82525050565b600062002463828762002215565b60018201915062002475828662002115565b6014820191506200248782856200243a565b60208201915062002499828462002241565b60208201915081905095945050505050565b6000620024b982856200229d565b9150620024c782846200229d565b91508190509392505050565b6000620024e182876200243a565b602082019150620024f382866200243a565b6020820191506200250582856200243a565b6020820191506200251782846200219a565b915081905095945050505050565b60006020820190506200253c600083018462002104565b92915050565b600060608201905062002559600083018662002104565b81810360208301526200256d818562002130565b9050818103604083015262002583818462002130565b9050949350505050565b6000604082019050620025a4600083018562002104565b620025b3602083018462002418565b9392505050565b6000602082019050620025d1600083018462002204565b92915050565b6000602082019050620025ee600083018462002230565b92915050565b600060208201905081810360008301526200261081846200225c565b905092915050565b600060408201905081810360008301526200263481856200225c565b9050620026456020830184620022e5565b9392505050565b6000602082019050620026636000830184620022d4565b92915050565b600060208201905081810360008301526200268481620022f6565b9050919050565b60006020820190508181036000830152620026a6816200231d565b9050919050565b60006020820190508181036000830152620026c88162002344565b9050919050565b60006020820190508181036000830152620026ea816200236b565b9050919050565b600060208201905081810360008301526200270c8162002392565b9050919050565b600060208201905081810360008301526200272e81620023b9565b9050919050565b600060208201905081810360008301526200275081620023e0565b9050919050565b60006020820190506200276e600083018462002418565b92915050565b60006040820190506200278b600083018562002418565b81810360208301526200279f818462002130565b90509392505050565b6000606082019050620027bf600083018662002418565b620027ce602083018562002418565b8181036040830152620027e2818462002130565b9050949350505050565b6000620027f86200280b565b905062002806828262002b18565b919050565b6000604051905090565b600067ffffffffffffffff82111562002833576200283262002c11565b5b602082029050602081019050919050565b600067ffffffffffffffff82111562002862576200286162002c11565b5b6200286d8262002c40565b9050602081019050919050565b6000819050602082019050919050565b600081519050919050565b600081519050919050565b6000602082019050919050565b600082825260208201905092915050565b600081905092915050565b600082825260208201905092915050565b600081905092915050565b600082825260208201905092915050565b6000620029038262002a8d565b9150620029108362002a8d565b9250827fffffffffffffffffffffffffffffffffffffffffffffffffffffffffffffffff0382111562002948576200294762002be2565b5b828201905092915050565b6000620029608262002a8d565b91506200296d8362002a8d565b9250817fffffffffffffffffffffffffffffffffffffffffffffffffffffffffffffffff0483118215151615620029a957620029a862002be2565b5b828202905092915050565b6000620029c18262002a8d565b9150620029ce8362002a8d565b925082821015620029e457620029e362002be2565b5b828203905092915050565b6000620029fc8262002a6d565b9050919050565b60008115159050919050565b60007fff0000000000000000000000000000000000000000000000000000000000000082169050919050565b6000819050919050565b600062002a5282620029ef565b9050919050565b600062002a6682620029ef565b9050919050565b600073ffffffffffffffffffffffffffffffffffffffff82169050919050565b6000819050919050565b600062002aa48262002aab565b9050919050565b600062002ab88262002a6d565b9050919050565b600062002acc8262002a8d565b9050919050565b82818337600083830152505050565b60005b8381101562002b0257808201518184015260208101905062002ae5565b8381111562002b12576000848401525b50505050565b62002b238262002c40565b810181811067ffffffffffffffff8211171562002b455762002b4462002c11565b5b80604052505050565b600062002b5b8262002a8d565b91507fffffffffffffffffffffffffffffffffffffffffffffffffffffffffffffffff82141562002b915762002b9062002be2565b5b600182019050919050565b600062002ba98262002bc4565b9050919050565b6000819050919050565b6000819050919050565b600062002bd18262002c51565b9050919050565b6000819050919050565b7f4e487b7100000000000000000000000000000000000000000000000000000000600052601160045260246000fd5b7f4e487b7100000000000000000000000000000000000000000000000000000000600052604160045260246000fd5b6000601f19601f8301169050919050565b60008160601b9050919050565b7f476174657761792f656e64706f696e742d676174657761792d616c726561647960008201527f2d73657400000000000000000000000000000000000000000000000000000000602082015250565b7f596f752063616e206e6f742061636365737320746f207468617420656c656d6560008201527f6e74000000000000000000000000000000000000000000000000000000000000602082015250565b7f476174657761792f756e617574686f72697a6564000000000000000000000000600082015250565b7f507265636f6d70757465206164647265737320616e64206465706c6f7965642060008201527f6164647265737320617265206e6f74207468652073616d650000000000000000602082015250565b7f596f752063616e206e6f74206d696e7420696620796f7520646f6e277420686160008201527f766520616d6f756e7420666f72206120676976656e20746f6b656e4944000000602082015250565b7f5468652053697a65206f6620617272617920746f6b656e494420616e6420617260008201527f72617920616d6f756e74732073686f756c64206265207468652073616d650000602082015250565b7f746f6b656e20496420646f6573206e6f74206578697374206f722077726f6e6760008201527f20616d6f756e7400000000000000000000000000000000000000000000000000602082015250565b62002e6c81620029ef565b811462002e7857600080fd5b50565b62002e868162002a3b565b811462002e9257600080fd5b50565b62002ea08162002a45565b811462002eac57600080fd5b50565b62002eba8162002a59565b811462002ec657600080fd5b50565b62002ed48162002a8d565b811462002ee057600080fd5b5056fe60806040523480156200001157600080fd5b5060405162002e0338038062002e038339818101604052810190620000379190620001aa565b6040518060400160405280600e81526020017f42726964676520455243313135350000000000000000000000000000000000008152506200007e81620000c760201b60201c565b5080600360006101000a81548173ffffffffffffffffffffffffffffffffffffffff021916908373ffffffffffffffffffffffffffffffffffffffff1602179055505062000289565b8060029080519060200190620000df929190620000e3565b5050565b828054620000f1906200020a565b90600052602060002090601f01602090048101928262000115576000855562000161565b82601f106200013057805160ff191683800117855562000161565b8280016001018555821562000161579182015b828111156200016057825182559160200191906001019062000143565b5b50905062000170919062000174565b5090565b5b808211156200018f57600081600090555060010162000175565b5090565b600081519050620001a4816200026f565b92915050565b600060208284031215620001bd57600080fd5b6000620001cd8482850162000193565b91505092915050565b6000620001e382620001ea565b9050919050565b600073ffffffffffffffffffffffffffffffffffffffff82169050919050565b600060028204905060018216806200022357607f821691505b602082108114156200023a576200023962000240565b5b50919050565b7f4e487b7100000000000000000000000000000000000000000000000000000000600052602260045260246000fd5b6200027a81620001d6565b81146200028657600080fd5b50565b612b6a80620002996000396000f3fe608060405234801561001057600080fd5b506004361061009d5760003560e01c80638b851b95116100665780638b851b951461017e578063a22cb4651461019c578063e985e9c5146101b8578063f0361416146101e8578063f242432a146102045761009d565b8062fdd58e146100a257806301ffc9a7146100d25780630e89341c146101025780632eb2c2d6146101325780634e1273f41461014e575b600080fd5b6100bc60048036038101906100b79190611bee565b610220565b6040516100c991906122cc565b60405180910390f35b6100ec60048036038101906100e79190611c96565b6102e9565b6040516100f9919061210f565b60405180910390f35b61011c60048036038101906101179190611ce8565b6103cb565b604051610129919061212a565b60405180910390f35b61014c600480360381019061014791906119e5565b61045f565b005b61016860048036038101906101639190611c2a565b610500565b60405161017591906120b6565b60405180910390f35b6101866106b1565b6040516101939190611fd9565b60405180910390f35b6101b660048036038101906101b19190611bb2565b6106d7565b005b6101d260048036038101906101cd91906119a9565b6106ed565b6040516101df919061210f565b60405180910390f35b61020260048036038101906101fd9190611b33565b610781565b005b61021e60048036038101906102199190611aa4565b610831565b005b60008073ffffffffffffffffffffffffffffffffffffffff168373ffffffffffffffffffffffffffffffffffffffff161415610291576040517f08c379a0000000000000000000000000000000000000000000000000000000008152600401610288906121ac565b60405180910390fd5b60008083815260200190815260200160002060008473ffffffffffffffffffffffffffffffffffffffff1673ffffffffffffffffffffffffffffffffffffffff16815260200190815260200160002054905092915050565b60007fd9b67a26000000000000000000000000000000000000000000000000000000007bffffffffffffffffffffffffffffffffffffffffffffffffffffffff1916827bffffffffffffffffffffffffffffffffffffffffffffffffffffffff191614806103b457507f0e89341c000000000000000000000000000000000000000000000000000000007bffffffffffffffffffffffffffffffffffffffffffffffffffffffff1916827bffffffffffffffffffffffffffffffffffffffffffffffffffffffff1916145b806103c457506103c3826108d2565b5b9050919050565b6060600280546103da9061253b565b80601f01602080910402602001604051908101604052809291908181526020018280546104069061253b565b80156104535780601f1061042857610100808354040283529160200191610453565b820191906000526020600020905b81548152906001019060200180831161043657829003601f168201915b50505050509050919050565b61046761093c565b73ffffffffffffffffffffffffffffffffffffffff168573ffffffffffffffffffffffffffffffffffffffff1614806104ad57506104ac856104a761093c565b6106ed565b5b6104ec576040517f08c379a00000000000000000000000000000000000000000000000000000000081526004016104e39061220c565b60405180910390fd5b6104f98585858585610944565b5050505050565b60608151835114610546576040517f08c379a000000000000000000000000000000000000000000000000000000000815260040161053d9061226c565b60405180910390fd5b6000835167ffffffffffffffff811115610589577f4e487b7100000000000000000000000000000000000000000000000000000000600052604160045260246000fd5b6040519080825280602002602001820160405280156105b75781602001602082028036833780820191505090505b50905060005b84518110156106a657610650858281518110610602577f4e487b7100000000000000000000000000000000000000000000000000000000600052603260045260246000fd5b6020026020010151858381518110610643577f4e487b7100000000000000000000000000000000000000000000000000000000600052603260045260246000fd5b6020026020010151610220565b828281518110610689577f4e487b7100000000000000000000000000000000000000000000000000000000600052603260045260246000fd5b6020026020010181815250508061069f9061259e565b90506105bd565b508091505092915050565b600360009054906101000a900473ffffffffffffffffffffffffffffffffffffffff1681565b6106e96106e261093c565b8383610ca4565b5050565b6000600160008473ffffffffffffffffffffffffffffffffffffffff1673ffffffffffffffffffffffffffffffffffffffff16815260200190815260200160002060008373ffffffffffffffffffffffffffffffffffffffff1673ffffffffffffffffffffffffffffffffffffffff16815260200190815260200160002060009054906101000a900460ff16905092915050565b600360009054906101000a900473ffffffffffffffffffffffffffffffffffffffff1673ffffffffffffffffffffffffffffffffffffffff163373ffffffffffffffffffffffffffffffffffffffff1614610811576040517f08c379a00000000000000000000000000000000000000000000000000000000081526004016108089061218c565b60405180910390fd5b61082c83838360405180602001604052806000815250610e11565b505050565b61083961093c565b73ffffffffffffffffffffffffffffffffffffffff168573ffffffffffffffffffffffffffffffffffffffff16148061087f575061087e8561087961093c565b6106ed565b5b6108be576040517f08c379a00000000000000000000000000000000000000000000000000000000081526004016108b5906121cc565b60405180910390fd5b6108cb858585858561107b565b5050505050565b60007f01ffc9a7000000000000000000000000000000000000000000000000000000007bffffffffffffffffffffffffffffffffffffffffffffffffffffffff1916827bffffffffffffffffffffffffffffffffffffffffffffffffffffffff1916149050919050565b600033905090565b8151835114610988576040517f08c379a000000000000000000000000000000000000000000000000000000000815260040161097f9061228c565b60405180910390fd5b600073ffffffffffffffffffffffffffffffffffffffff168473ffffffffffffffffffffffffffffffffffffffff1614156109f8576040517f08c379a00000000000000000000000000000000000000000000000000000000081526004016109ef906121ec565b60405180910390fd5b6000610a0261093c565b9050610a128187878787876112fd565b60005b8451811015610c0f576000858281518110610a59577f4e487b7100000000000000000000000000000000000000000000000000000000600052603260045260246000fd5b602002602001015190506000858381518110610a9e577f4e487b7100000000000000000000000000000000000000000000000000000000600052603260045260246000fd5b60200260200101519050600080600084815260200190815260200160002060008b73ffffffffffffffffffffffffffffffffffffffff1673ffffffffffffffffffffffffffffffffffffffff16815260200190815260200160002054905081811015610b3f576040517f08c379a0000000000000000000000000000000000000000000000000000000008152600401610b369061222c565b60405180910390fd5b81810360008085815260200190815260200160002060008c73ffffffffffffffffffffffffffffffffffffffff1673ffffffffffffffffffffffffffffffffffffffff168152602001908152602001600020819055508160008085815260200190815260200160002060008b73ffffffffffffffffffffffffffffffffffffffff1673ffffffffffffffffffffffffffffffffffffffff1681526020019081526020016000206000828254610bf4919061242f565b9250508190555050505080610c089061259e565b9050610a15565b508473ffffffffffffffffffffffffffffffffffffffff168673ffffffffffffffffffffffffffffffffffffffff168273ffffffffffffffffffffffffffffffffffffffff167f4a39dc06d4c0dbc64b70af90fd698a233a518aa5d07e595d983b8c0526c8f7fb8787604051610c869291906120d8565b60405180910390a4610c9c818787878787611305565b505050505050565b8173ffffffffffffffffffffffffffffffffffffffff168373ffffffffffffffffffffffffffffffffffffffff161415610d13576040517f08c379a0000000000000000000000000000000000000000000000000000000008152600401610d0a9061224c565b60405180910390fd5b80600160008573ffffffffffffffffffffffffffffffffffffffff1673ffffffffffffffffffffffffffffffffffffffff16815260200190815260200160002060008473ffffffffffffffffffffffffffffffffffffffff1673ffffffffffffffffffffffffffffffffffffffff16815260200190815260200160002060006101000a81548160ff0219169083151502179055508173ffffffffffffffffffffffffffffffffffffffff168373ffffffffffffffffffffffffffffffffffffffff167f17307eab39ab6107e8899845ad3d59bd9653f200f220920489ca2b5937696c3183604051610e04919061210f565b60405180910390a3505050565b600073ffffffffffffffffffffffffffffffffffffffff168473ffffffffffffffffffffffffffffffffffffffff161415610e81576040517f08c379a0000000000000000000000000000000000000000000000000000000008152600401610e78906122ac565b60405180910390fd5b8151835114610ec5576040517f08c379a0000000000000000000000000000000000000000000000000000000008152600401610ebc9061228c565b60405180910390fd5b6000610ecf61093c565b9050610ee0816000878787876112fd565b60005b8451811015610fe557838181518110610f25577f4e487b7100000000000000000000000000000000000000000000000000000000600052603260045260246000fd5b6020026020010151600080878481518110610f69577f4e487b7100000000000000000000000000000000000000000000000000000000600052603260045260246000fd5b6020026020010151815260200190815260200160002060008873ffffffffffffffffffffffffffffffffffffffff1673ffffffffffffffffffffffffffffffffffffffff1681526020019081526020016000206000828254610fcb919061242f565b925050819055508080610fdd9061259e565b915050610ee3565b508473ffffffffffffffffffffffffffffffffffffffff16600073ffffffffffffffffffffffffffffffffffffffff168273ffffffffffffffffffffffffffffffffffffffff167f4a39dc06d4c0dbc64b70af90fd698a233a518aa5d07e595d983b8c0526c8f7fb878760405161105d9291906120d8565b60405180910390a461107481600087878787611305565b5050505050565b600073ffffffffffffffffffffffffffffffffffffffff168473ffffffffffffffffffffffffffffffffffffffff1614156110eb576040517f08c379a00000000000000000000000000000000000000000000000000000000081526004016110e2906121ec565b60405180910390fd5b60006110f561093c565b9050611115818787611106886114ec565b61110f886114ec565b876112fd565b600080600086815260200190815260200160002060008873ffffffffffffffffffffffffffffffffffffffff1673ffffffffffffffffffffffffffffffffffffffff168152602001908152602001600020549050838110156111ac576040517f08c379a00000000000000000000000000000000000000000000000000000000081526004016111a39061222c565b60405180910390fd5b83810360008087815260200190815260200160002060008973ffffffffffffffffffffffffffffffffffffffff1673ffffffffffffffffffffffffffffffffffffffff168152602001908152602001600020819055508360008087815260200190815260200160002060008873ffffffffffffffffffffffffffffffffffffffff1673ffffffffffffffffffffffffffffffffffffffff1681526020019081526020016000206000828254611261919061242f565b925050819055508573ffffffffffffffffffffffffffffffffffffffff168773ffffffffffffffffffffffffffffffffffffffff168373ffffffffffffffffffffffffffffffffffffffff167fc3d58168c5ae7397731d063d5bbf3d657854427343f4c083240f7aacaa2d0f6288886040516112de9291906122e7565b60405180910390a46112f48288888888886115b2565b50505050505050565b505050505050565b6113248473ffffffffffffffffffffffffffffffffffffffff16611799565b156114e4578373ffffffffffffffffffffffffffffffffffffffff1663bc197c8187878686866040518663ffffffff1660e01b815260040161136a959493929190611ff4565b602060405180830381600087803b15801561138457600080fd5b505af19250505080156113b557506040513d601f19601f820116820180604052508101906113b29190611cbf565b60015b61145b576113c1612674565b806308c379a0141561141e57506113d6612a42565b806113e15750611420565b806040517f08c379a0000000000000000000000000000000000000000000000000000000008152600401611415919061212a565b60405180910390fd5b505b6040517f08c379a00000000000000000000000000000000000000000000000000000000081526004016114529061214c565b60405180910390fd5b63bc197c8160e01b7bffffffffffffffffffffffffffffffffffffffffffffffffffffffff1916817bffffffffffffffffffffffffffffffffffffffffffffffffffffffff1916146114e2576040517f08c379a00000000000000000000000000000000000000000000000000000000081526004016114d99061216c565b60405180910390fd5b505b505050505050565b60606000600167ffffffffffffffff811115611531577f4e487b7100000000000000000000000000000000000000000000000000000000600052604160045260246000fd5b60405190808252806020026020018201604052801561155f5781602001602082028036833780820191505090505b509050828160008151811061159d577f4e487b7100000000000000000000000000000000000000000000000000000000600052603260045260246000fd5b60200260200101818152505080915050919050565b6115d18473ffffffffffffffffffffffffffffffffffffffff16611799565b15611791578373ffffffffffffffffffffffffffffffffffffffff1663f23a6e6187878686866040518663ffffffff1660e01b815260040161161795949392919061205c565b602060405180830381600087803b15801561163157600080fd5b505af192505050801561166257506040513d601f19601f8201168201806040525081019061165f9190611cbf565b60015b6117085761166e612674565b806308c379a014156116cb5750611683612a42565b8061168e57506116cd565b806040517f08c379a00000000000000000000000000000000000000000000000000000000081526004016116c2919061212a565b60405180910390fd5b505b6040517f08c379a00000000000000000000000000000000000000000000000000000000081526004016116ff9061214c565b60405180910390fd5b63f23a6e6160e01b7bffffffffffffffffffffffffffffffffffffffffffffffffffffffff1916817bffffffffffffffffffffffffffffffffffffffffffffffffffffffff19161461178f576040517f08c379a00000000000000000000000000000000000000000000000000000000081526004016117869061216c565b60405180910390fd5b505b505050505050565b600080823b905060008111915050919050565b60006117bf6117ba84612335565b612310565b905080838252602082019050828560208602820111156117de57600080fd5b60005b8581101561180e57816117f488826118c2565b8452602084019350602083019250506001810190506117e1565b5050509392505050565b600061182b61182684612361565b612310565b9050808382526020820190508285602086028201111561184a57600080fd5b60005b8581101561187a57816118608882611994565b84526020840193506020830192505060018101905061184d565b5050509392505050565b60006118976118928461238d565b612310565b9050828152602081018484840111156118af57600080fd5b6118ba8482856124f9565b509392505050565b6000813590506118d181612ad8565b92915050565b600082601f8301126118e857600080fd5b81356118f88482602086016117ac565b91505092915050565b600082601f83011261191257600080fd5b8135611922848260208601611818565b91505092915050565b60008135905061193a81612aef565b92915050565b60008135905061194f81612b06565b92915050565b60008151905061196481612b06565b92915050565b600082601f83011261197b57600080fd5b813561198b848260208601611884565b91505092915050565b6000813590506119a381612b1d565b92915050565b600080604083850312156119bc57600080fd5b60006119ca858286016118c2565b92505060206119db858286016118c2565b9150509250929050565b600080600080600060a086880312156119fd57600080fd5b6000611a0b888289016118c2565b9550506020611a1c888289016118c2565b945050604086013567ffffffffffffffff811115611a3957600080fd5b611a4588828901611901565b935050606086013567ffffffffffffffff811115611a6257600080fd5b611a6e88828901611901565b925050608086013567ffffffffffffffff811115611a8b57600080fd5b611a978882890161196a565b9150509295509295909350565b600080600080600060a08688031215611abc57600080fd5b6000611aca888289016118c2565b9550506020611adb888289016118c2565b9450506040611aec88828901611994565b9350506060611afd88828901611994565b925050608086013567ffffffffffffffff811115611b1a57600080fd5b611b268882890161196a565b9150509295509295909350565b600080600060608486031215611b4857600080fd5b6000611b56868287016118c2565b935050602084013567ffffffffffffffff811115611b7357600080fd5b611b7f86828701611901565b925050604084013567ffffffffffffffff811115611b9c57600080fd5b611ba886828701611901565b9150509250925092565b60008060408385031215611bc557600080fd5b6000611bd3858286016118c2565b9250506020611be48582860161192b565b9150509250929050565b60008060408385031215611c0157600080fd5b6000611c0f858286016118c2565b9250506020611c2085828601611994565b9150509250929050565b60008060408385031215611c3d57600080fd5b600083013567ffffffffffffffff811115611c5757600080fd5b611c63858286016118d7565b925050602083013567ffffffffffffffff811115611c8057600080fd5b611c8c85828601611901565b9150509250929050565b600060208284031215611ca857600080fd5b6000611cb684828501611940565b91505092915050565b600060208284031215611cd157600080fd5b6000611cdf84828501611955565b91505092915050565b600060208284031215611cfa57600080fd5b6000611d0884828501611994565b91505092915050565b6000611d1d8383611fbb565b60208301905092915050565b611d3281612485565b82525050565b6000611d43826123ce565b611d4d81856123fc565b9350611d58836123be565b8060005b83811015611d89578151611d708882611d11565b9750611d7b836123ef565b925050600181019050611d5c565b5085935050505092915050565b611d9f81612497565b82525050565b6000611db0826123d9565b611dba818561240d565b9350611dca818560208601612508565b611dd381612696565b840191505092915050565b6000611de9826123e4565b611df3818561241e565b9350611e03818560208601612508565b611e0c81612696565b840191505092915050565b6000611e2460348361241e565b9150611e2f826126b4565b604082019050919050565b6000611e4760288361241e565b9150611e5282612703565b604082019050919050565b6000611e6a601c8361241e565b9150611e7582612752565b602082019050919050565b6000611e8d602b8361241e565b9150611e988261277b565b604082019050919050565b6000611eb060298361241e565b9150611ebb826127ca565b604082019050919050565b6000611ed360258361241e565b9150611ede82612819565b604082019050919050565b6000611ef660328361241e565b9150611f0182612868565b604082019050919050565b6000611f19602a8361241e565b9150611f24826128b7565b604082019050919050565b6000611f3c60298361241e565b9150611f4782612906565b604082019050919050565b6000611f5f60298361241e565b9150611f6a82612955565b604082019050919050565b6000611f8260288361241e565b9150611f8d826129a4565b604082019050919050565b6000611fa560218361241e565b9150611fb0826129f3565b604082019050919050565b611fc4816124ef565b82525050565b611fd3816124ef565b82525050565b6000602082019050611fee6000830184611d29565b92915050565b600060a0820190506120096000830188611d29565b6120166020830187611d29565b81810360408301526120288186611d38565b9050818103606083015261203c8185611d38565b905081810360808301526120508184611da5565b90509695505050505050565b600060a0820190506120716000830188611d29565b61207e6020830187611d29565b61208b6040830186611fca565b6120986060830185611fca565b81810360808301526120aa8184611da5565b90509695505050505050565b600060208201905081810360008301526120d08184611d38565b905092915050565b600060408201905081810360008301526120f28185611d38565b905081810360208301526121068184611d38565b90509392505050565b60006020820190506121246000830184611d96565b92915050565b600060208201905081810360008301526121448184611dde565b905092915050565b6000602082019050818103600083015261216581611e17565b9050919050565b6000602082019050818103600083015261218581611e3a565b9050919050565b600060208201905081810360008301526121a581611e5d565b9050919050565b600060208201905081810360008301526121c581611e80565b9050919050565b600060208201905081810360008301526121e581611ea3565b9050919050565b6000602082019050818103600083015261220581611ec6565b9050919050565b6000602082019050818103600083015261222581611ee9565b9050919050565b6000602082019050818103600083015261224581611f0c565b9050919050565b6000602082019050818103600083015261226581611f2f565b9050919050565b6000602082019050818103600083015261228581611f52565b9050919050565b600060208201905081810360008301526122a581611f75565b9050919050565b600060208201905081810360008301526122c581611f98565b9050919050565b60006020820190506122e16000830184611fca565b92915050565b60006040820190506122fc6000830185611fca565b6123096020830184611fca565b9392505050565b600061231a61232b565b9050612326828261256d565b919050565b6000604051905090565b600067ffffffffffffffff8211156123505761234f612645565b5b602082029050602081019050919050565b600067ffffffffffffffff82111561237c5761237b612645565b5b602082029050602081019050919050565b600067ffffffffffffffff8211156123a8576123a7612645565b5b6123b182612696565b9050602081019050919050565b6000819050602082019050919050565b600081519050919050565b600081519050919050565b600081519050919050565b6000602082019050919050565b600082825260208201905092915050565b600082825260208201905092915050565b600082825260208201905092915050565b600061243a826124ef565b9150612445836124ef565b9250827fffffffffffffffffffffffffffffffffffffffffffffffffffffffffffffffff0382111561247a576124796125e7565b5b828201905092915050565b6000612490826124cf565b9050919050565b60008115159050919050565b60007fffffffff0000000000000000000000000000000000000000000000000000000082169050919050565b600073ffffffffffffffffffffffffffffffffffffffff82169050919050565b6000819050919050565b82818337600083830152505050565b60005b8381101561252657808201518184015260208101905061250b565b83811115612535576000848401525b50505050565b6000600282049050600182168061255357607f821691505b6020821081141561256757612566612616565b5b50919050565b61257682612696565b810181811067ffffffffffffffff8211171561259557612594612645565b5b80604052505050565b60006125a9826124ef565b91507fffffffffffffffffffffffffffffffffffffffffffffffffffffffffffffffff8214156125dc576125db6125e7565b5b600182019050919050565b7f4e487b7100000000000000000000000000000000000000000000000000000000600052601160045260246000fd5b7f4e487b7100000000000000000000000000000000000000000000000000000000600052602260045260246000fd5b7f4e487b7100000000000000000000000000000000000000000000000000000000600052604160045260246000fd5b600060033d11156126935760046000803e6126906000516126a7565b90505b90565b6000601f19601f8301169050919050565b60008160e01c9050919050565b7f455243313135353a207472616e7366657220746f206e6f6e204552433131353560008201527f526563656976657220696d706c656d656e746572000000000000000000000000602082015250565b7f455243313135353a204552433131353552656365697665722072656a6563746560008201527f6420746f6b656e73000000000000000000000000000000000000000000000000602082015250565b7f596f7520617265206e6f74204761746577617920436f6e747261637400000000600082015250565b7f455243313135353a2062616c616e636520717565727920666f7220746865207a60008201527f65726f2061646472657373000000000000000000000000000000000000000000602082015250565b7f455243313135353a2063616c6c6572206973206e6f74206f776e6572206e6f7260008201527f20617070726f7665640000000000000000000000000000000000000000000000602082015250565b7f455243313135353a207472616e7366657220746f20746865207a65726f20616460008201527f6472657373000000000000000000000000000000000000000000000000000000602082015250565b7f455243313135353a207472616e736665722063616c6c6572206973206e6f742060008201527f6f776e6572206e6f7220617070726f7665640000000000000000000000000000602082015250565b7f455243313135353a20696e73756666696369656e742062616c616e636520666f60008201527f72207472616e7366657200000000000000000000000000000000000000000000602082015250565b7f455243313135353a2073657474696e6720617070726f76616c2073746174757360008201527f20666f722073656c660000000000000000000000000000000000000000000000602082015250565b7f455243313135353a206163636f756e747320616e6420696473206c656e67746860008201527f206d69736d617463680000000000000000000000000000000000000000000000602082015250565b7f455243313135353a2069647320616e6420616d6f756e7473206c656e6774682060008201527f6d69736d61746368000000000000000000000000000000000000000000000000602082015250565b7f455243313135353a206d696e7420746f20746865207a65726f2061646472657360008201527f7300000000000000000000000000000000000000000000000000000000000000602082015250565b600060443d1015612a5257612ad5565b612a5a61232b565b60043d036004823e80513d602482011167ffffffffffffffff82111715612a82575050612ad5565b808201805167ffffffffffffffff811115612aa05750505050612ad5565b80602083010160043d038501811115612abd575050505050612ad5565b612acc8260200185018661256d565b82955050505050505b90565b612ae181612485565b8114612aec57600080fd5b50565b612af881612497565b8114612b0357600080fd5b50565b612b0f816124a3565b8114612b1a57600080fd5b50565b612b26816124ef565b8114612b3157600080fd5b5056fea264697066735822122077b427acffeb49b70a83666b6493149cda815f06ead9655f155533dae935ac7c64736f6c63430008040033a2646970667358221220e8bc0bae3d76006379b9f63476ca8390aa1663a1f167c8bd1a89f85d1be88b8664736f6c63430008040033",
  "linkReferences": {},
  "deployedLinkReferences": {}
}