{
  "_format": "hh-sol-artifact-1",
  "contractName": "Gateway1155",
  "sourceName": "contracts/Gateway1155.sol",
  "abi": [
    {
      "inputs": [
        {
          "internalType": "address",
          "name": "_starknetCore",
          "type": "address"
        }
      ],
      "stateMutability": "nonpayable",
      "type": "constructor"
    },
    {
      "inputs": [
        {
          "internalType": "contract IERC1155",
          "name": "_l1TokenContract",
          "type": "address"
        },
        {
          "internalType": "uint256",
          "name": "_l2TokenContract",
          "type": "uint256"
        },
        {
          "internalType": "uint256[]",
          "name": "_tokensId",
          "type": "uint256[]"
        },
        {
          "internalType": "uint256[]",
          "name": "_amounts",
          "type": "uint256[]"
        }
      ],
      "name": "bridgeFromStarknet",
      "outputs": [],
      "stateMutability": "nonpayable",
      "type": "function"
    },
    {
      "inputs": [],
      "name": "endpointGateway",
      "outputs": [
        {
          "internalType": "uint256",
          "name": "",
          "type": "uint256"
        }
      ],
      "stateMutability": "view",
      "type": "function"
    },
    {
      "inputs": [],
      "name": "initialEndpointGatewaySetter",
      "outputs": [
        {
          "internalType": "address",
          "name": "",
          "type": "address"
        }
      ],
      "stateMutability": "view",
      "type": "function"
    },
    {
      "inputs": [
        {
          "internalType": "uint256",
          "name": "_endpointGateway",
          "type": "uint256"
        }
      ],
      "name": "setEndpointGateway",
      "outputs": [],
      "stateMutability": "nonpayable",
      "type": "function"
    },
    {
      "inputs": [],
      "name": "starknetCore",
      "outputs": [
        {
          "internalType": "contract IStarknetCore",
          "name": "",
          "type": "address"
        }
      ],
      "stateMutability": "view",
      "type": "function"
    }
  ],
  "bytecode": "0x60806040523480156200001157600080fd5b506040516200113d3803806200113d833981810160405281019062000037919062000149565b600073ffffffffffffffffffffffffffffffffffffffff168173ffffffffffffffffffffffffffffffffffffffff161415620000aa576040517f08c379a0000000000000000000000000000000000000000000000000000000008152600401620000a1906200019c565b60405180910390fd5b80600260006101000a81548173ffffffffffffffffffffffffffffffffffffffff021916908373ffffffffffffffffffffffffffffffffffffffff160217905550336000806101000a81548173ffffffffffffffffffffffffffffffffffffffff021916908373ffffffffffffffffffffffffffffffffffffffff160217905550506200026c565b600081519050620001438162000252565b92915050565b6000602082840312156200015c57600080fd5b60006200016c8482850162000132565b91505092915050565b600062000184602583620001be565b9150620001918262000203565b604082019050919050565b60006020820190508181036000830152620001b78162000175565b9050919050565b600082825260208201905092915050565b6000620001dc82620001e3565b9050919050565b600073ffffffffffffffffffffffffffffffffffffffff82169050919050565b7f476174657761792f696e76616c69642d737461726b6e65742d636f72652d616460008201527f6472657373000000000000000000000000000000000000000000000000000000602082015250565b6200025d81620001cf565b81146200026957600080fd5b50565b610ec1806200027c6000396000f3fe608060405234801561001057600080fd5b50600436106100575760003560e01c80631814104b1461005c57806339e730ab1461007857806341b3a0a114610096578063aa5afdc4146100b4578063c5cf2d5e146100d0575b600080fd5b61007660048036038101906100719190610785565b6100ee565b005b61008061053a565b60405161008d919061099a565b60405180910390f35b61009e610560565b6040516100ab9190610a35565b60405180910390f35b6100ce60048036038101906100c99190610818565b610566565b005b6100d8610643565b6040516100e5919061097f565b60405180910390f35b8051825114610132576040517f08c379a000000000000000000000000000000000000000000000000000000000815260040161012990610a15565b60405180910390fd5b6000600283516101429190610b71565b600461014e9190610b1b565b90506000808267ffffffffffffffff811115610193577f4e487b7100000000000000000000000000000000000000000000000000000000600052604160045260246000fd5b6040519080825280602002602001820160405280156101c15781602001602082028036833780820191505090505b509050600181600081518110610200577f4e487b7100000000000000000000000000000000000000000000000000000000600052603260045260246000fd5b60200260200101818152505061021533610667565b8160018151811061024f577f4e487b7100000000000000000000000000000000000000000000000000000000600052603260045260246000fd5b60200260200101818152505061026487610667565b8160028151811061029e577f4e487b7100000000000000000000000000000000000000000000000000000000600052603260045260246000fd5b60200260200101818152505085816003815181106102e5577f4e487b7100000000000000000000000000000000000000000000000000000000600052603260045260246000fd5b6020026020010181815250506000600490505b8381101561047e5785518310610343576040517f08c379a000000000000000000000000000000000000000000000000000000000815260040161033a906109d5565b60405180910390fd5b85838151811061037c577f4e487b7100000000000000000000000000000000000000000000000000000000600052603260045260246000fd5b60200260200101518282815181106103bd577f4e487b7100000000000000000000000000000000000000000000000000000000600052603260045260246000fd5b60200260200101818152505080806103d490610c78565b915050848381518110610410577f4e487b7100000000000000000000000000000000000000000000000000000000600052603260045260246000fd5b6020026020010151828281518110610451577f4e487b7100000000000000000000000000000000000000000000000000000000600052603260045260246000fd5b602002602001018181525050828061046890610c78565b935050808061047690610c78565b9150506102f8565b50600260009054906101000a900473ffffffffffffffffffffffffffffffffffffffff1673ffffffffffffffffffffffffffffffffffffffff16632c9dd5c0600154836040518363ffffffff1660e01b81526004016104de929190610a50565b602060405180830381600087803b1580156104f857600080fd5b505af115801561050c573d6000803e3d6000fd5b505050506040513d601f19601f82011682018060405250810190610530919061075c565b5050505050505050565b600260009054906101000a900473ffffffffffffffffffffffffffffffffffffffff1681565b60015481565b60008054906101000a900473ffffffffffffffffffffffffffffffffffffffff1673ffffffffffffffffffffffffffffffffffffffff163373ffffffffffffffffffffffffffffffffffffffff16146105f4576040517f08c379a00000000000000000000000000000000000000000000000000000000081526004016105eb906109f5565b60405180910390fd5b600060015414610639576040517f08c379a0000000000000000000000000000000000000000000000000000000008152600401610630906109b5565b60405180910390fd5b8060018190555050565b60008054906101000a900473ffffffffffffffffffffffffffffffffffffffff1681565b60008173ffffffffffffffffffffffffffffffffffffffff169050919050565b600061069a61069584610aa5565b610a80565b905080838252602082019050828560208602820111156106b957600080fd5b60005b858110156106e957816106cf8882610747565b8452602084019350602083019250506001810190506106bc565b5050509392505050565b600082601f83011261070457600080fd5b8135610714848260208601610687565b91505092915050565b60008151905061072c81610e46565b92915050565b60008135905061074181610e5d565b92915050565b60008135905061075681610e74565b92915050565b60006020828403121561076e57600080fd5b600061077c8482850161071d565b91505092915050565b6000806000806080858703121561079b57600080fd5b60006107a987828801610732565b94505060206107ba87828801610747565b935050604085013567ffffffffffffffff8111156107d757600080fd5b6107e3878288016106f3565b925050606085013567ffffffffffffffff81111561080057600080fd5b61080c878288016106f3565b91505092959194509250565b60006020828403121561082a57600080fd5b600061083884828501610747565b91505092915050565b600061084d8383610961565b60208301905092915050565b61086281610bcb565b82525050565b600061087382610ae1565b61087d8185610af9565b935061088883610ad1565b8060005b838110156108b95781516108a08882610841565b97506108ab83610aec565b92505060018101905061088c565b5085935050505092915050565b6108cf81610c23565b82525050565b60006108e2602483610b0a565b91506108ed82610d30565b604082019050919050565b6000610905602283610b0a565b915061091082610d7f565b604082019050919050565b6000610928601483610b0a565b915061093382610dce565b602082019050919050565b600061094b603e83610b0a565b915061095682610df7565b604082019050919050565b61096a81610c19565b82525050565b61097981610c19565b82525050565b60006020820190506109946000830184610859565b92915050565b60006020820190506109af60008301846108c6565b92915050565b600060208201905081810360008301526109ce816108d5565b9050919050565b600060208201905081810360008301526109ee816108f8565b9050919050565b60006020820190508181036000830152610a0e8161091b565b9050919050565b60006020820190508181036000830152610a2e8161093e565b9050919050565b6000602082019050610a4a6000830184610970565b92915050565b6000604082019050610a656000830185610970565b8181036020830152610a778184610868565b90509392505050565b6000610a8a610a9b565b9050610a968282610c47565b919050565b6000604051905090565b600067ffffffffffffffff821115610ac057610abf610cf0565b5b602082029050602081019050919050565b6000819050602082019050919050565b600081519050919050565b6000602082019050919050565b600082825260208201905092915050565b600082825260208201905092915050565b6000610b2682610c19565b9150610b3183610c19565b9250827fffffffffffffffffffffffffffffffffffffffffffffffffffffffffffffffff03821115610b6657610b65610cc1565b5b828201905092915050565b6000610b7c82610c19565b9150610b8783610c19565b9250817fffffffffffffffffffffffffffffffffffffffffffffffffffffffffffffffff0483118215151615610bc057610bbf610cc1565b5b828202905092915050565b6000610bd682610bf9565b9050919050565b6000819050919050565b6000610bf282610bcb565b9050919050565b600073ffffffffffffffffffffffffffffffffffffffff82169050919050565b6000819050919050565b6000610c2e82610c35565b9050919050565b6000610c4082610bf9565b9050919050565b610c5082610d1f565b810181811067ffffffffffffffff82111715610c6f57610c6e610cf0565b5b80604052505050565b6000610c8382610c19565b91507fffffffffffffffffffffffffffffffffffffffffffffffffffffffffffffffff821415610cb657610cb5610cc1565b5b600182019050919050565b7f4e487b7100000000000000000000000000000000000000000000000000000000600052601160045260246000fd5b7f4e487b7100000000000000000000000000000000000000000000000000000000600052604160045260246000fd5b6000601f19601f8301169050919050565b7f476174657761792f656e64706f696e742d676174657761792d616c726561647960008201527f2d73657400000000000000000000000000000000000000000000000000000000602082015250565b7f596f752063616e206e6f742061636365737320746f207468617420656c656d6560008201527f6e74000000000000000000000000000000000000000000000000000000000000602082015250565b7f476174657761792f756e617574686f72697a6564000000000000000000000000600082015250565b7f5468652053697a65206f6620617272617920746f6b656e494420616e6420617260008201527f72617920616d6f756e74732073686f756c64206265207468652073616d650000602082015250565b610e4f81610bdd565b8114610e5a57600080fd5b50565b610e6681610be7565b8114610e7157600080fd5b50565b610e7d81610c19565b8114610e8857600080fd5b5056fea2646970667358221220c8f7e3fc89e442e19bddb4ec58b2983c4df12f66ec657c914d6f09812617a3ad64736f6c63430008040033",
  "linkReferences": {},
  "deployedLinkReferences": {}
}