{
  "_format": "hh-sol-artifact-1",
  "contractName": "Gateway1155",
  "sourceName": "contracts/Gateway1155.sol",
  "abi": [
    {
      "inputs": [
        {
          "internalType": "address",
          "name": "_starknetCore",
          "type": "address"
        }
      ],
      "stateMutability": "nonpayable",
      "type": "constructor"
    },
    {
      "anonymous": false,
      "inputs": [
        {
          "indexed": false,
          "internalType": "address",
          "name": "addr",
          "type": "address"
        }
      ],
      "name": "Deployed",
      "type": "event"
    },
    {
      "inputs": [
        {
          "internalType": "contract ERC1155",
          "name": "_l1TokenContract",
          "type": "address"
        },
        {
          "internalType": "uint256",
          "name": "_l2TokenContract",
          "type": "uint256"
        },
        {
          "internalType": "uint256[]",
          "name": "_tokensId",
          "type": "uint256[]"
        },
        {
          "internalType": "uint256[]",
          "name": "_amounts",
          "type": "uint256[]"
        }
      ],
      "name": "bridgeFromStarknet",
      "outputs": [],
      "stateMutability": "nonpayable",
      "type": "function"
    },
    {
      "inputs": [
        {
          "internalType": "contract ERC1155",
          "name": "_l1TokenContract",
          "type": "address"
        },
        {
          "internalType": "uint256",
          "name": "_l2TokenContract",
          "type": "uint256"
        },
        {
          "internalType": "uint256[]",
          "name": "_tokensId",
          "type": "uint256[]"
        },
        {
          "internalType": "uint256[]",
          "name": "_amounts",
          "type": "uint256[]"
        },
        {
          "internalType": "uint256",
          "name": "_account",
          "type": "uint256"
        }
      ],
      "name": "bridgeToStarknet",
      "outputs": [],
      "stateMutability": "nonpayable",
      "type": "function"
    },
    {
      "inputs": [
        {
          "internalType": "bytes",
          "name": "bytecode",
          "type": "bytes"
        },
        {
          "internalType": "uint256",
          "name": "_salt",
          "type": "uint256"
        }
      ],
      "name": "deploy",
      "outputs": [
        {
          "internalType": "address",
          "name": "",
          "type": "address"
        }
      ],
      "stateMutability": "payable",
      "type": "function"
    },
    {
      "inputs": [],
      "name": "endpointGateway",
      "outputs": [
        {
          "internalType": "uint256",
          "name": "",
          "type": "uint256"
        }
      ],
      "stateMutability": "view",
      "type": "function"
    },
    {
      "inputs": [
        {
          "internalType": "bytes",
          "name": "bytecode",
          "type": "bytes"
        },
        {
          "internalType": "uint256",
          "name": "_salt",
          "type": "uint256"
        }
      ],
      "name": "getAddress",
      "outputs": [
        {
          "internalType": "address",
          "name": "",
          "type": "address"
        }
      ],
      "stateMutability": "view",
      "type": "function"
    },
    {
      "inputs": [],
      "name": "getBytecode",
      "outputs": [
        {
          "internalType": "bytes",
          "name": "",
          "type": "bytes"
        }
      ],
      "stateMutability": "view",
      "type": "function"
    },
    {
      "inputs": [],
      "name": "initialEndpointGatewaySetter",
      "outputs": [
        {
          "internalType": "address",
          "name": "",
          "type": "address"
        }
      ],
      "stateMutability": "view",
      "type": "function"
    },
    {
      "inputs": [
        {
          "internalType": "uint256[]",
          "name": "_tokensId",
          "type": "uint256[]"
        },
        {
          "internalType": "uint256[]",
          "name": "_amounts",
          "type": "uint256[]"
        }
      ],
      "name": "mintNFTFromStarknet",
      "outputs": [],
      "stateMutability": "nonpayable",
      "type": "function"
    },
    {
      "inputs": [
        {
          "internalType": "uint256",
          "name": "_endpointGateway",
          "type": "uint256"
        }
      ],
      "name": "setEndpointGateway",
      "outputs": [],
      "stateMutability": "nonpayable",
      "type": "function"
    },
    {
      "inputs": [],
      "name": "starknetCore",
      "outputs": [
        {
          "internalType": "contract IStarknetCore",
          "name": "",
          "type": "address"
        }
      ],
      "stateMutability": "view",
      "type": "function"
    }
  ],
  "bytecode": "0x60806040523480156200001157600080fd5b5060405162005fcd38038062005fcd833981810160405281019062000037919062000149565b600073ffffffffffffffffffffffffffffffffffffffff168173ffffffffffffffffffffffffffffffffffffffff161415620000aa576040517f08c379a0000000000000000000000000000000000000000000000000000000008152600401620000a1906200019c565b60405180910390fd5b80600260006101000a81548173ffffffffffffffffffffffffffffffffffffffff021916908373ffffffffffffffffffffffffffffffffffffffff160217905550336000806101000a81548173ffffffffffffffffffffffffffffffffffffffff021916908373ffffffffffffffffffffffffffffffffffffffff160217905550506200026c565b600081519050620001438162000252565b92915050565b6000602082840312156200015c57600080fd5b60006200016c8482850162000132565b91505092915050565b600062000184602583620001be565b9150620001918262000203565b604082019050919050565b60006020820190508181036000830152620001b78162000175565b9050919050565b600082825260208201905092915050565b6000620001dc82620001e3565b9050919050565b600073ffffffffffffffffffffffffffffffffffffffff82169050919050565b7f476174657761792f696e76616c69642d737461726b6e65742d636f72652d616460008201527f6472657373000000000000000000000000000000000000000000000000000000602082015250565b6200025d81620001cf565b81146200026957600080fd5b50565b615d51806200027c6000396000f3fe6080604052600436106200009e5760003560e01c8063749e91ba1162000061578063749e91ba146200018f57806394ca2cb514620001bd5780639c4ae2d01462000201578063aa5afdc41462000237578063c5cf2d5e1462000265576200009e565b80631814104b14620000a35780633986c2d914620000d157806339e730ab14620000ff57806341b3a0a1146200012f57806352c7420d146200015f575b600080fd5b348015620000b057600080fd5b50620000cf6004803603810190620000c991906200194e565b62000295565b005b348015620000de57600080fd5b50620000fd6004803603810190620000f79190620019ec565b62000826565b005b3480156200010c57600080fd5b506200011762000d52565b60405162000126919062001ed8565b60405180910390f35b3480156200013c57600080fd5b506200014762000d78565b60405162000156919062001fe3565b60405180910390f35b3480156200016c57600080fd5b506200017762000d7e565b60405162000186919062001e80565b60405180910390f35b3480156200019c57600080fd5b50620001bb6004803603810190620001b5919062001810565b62000df5565b005b348015620001ca57600080fd5b50620001e96004803603810190620001e39190620018f4565b62001423565b604051620001f8919062001e18565b60405180910390f35b6200021f6004803603810190620002199190620018f4565b6200146f565b6040516200022e919062001e18565b60405180910390f35b3480156200024457600080fd5b506200026360048036038101906200025d919062001aa0565b620014cd565b005b3480156200027257600080fd5b506200027d620015b0565b6040516200028c919062001e18565b60405180910390f35b8051825114620002dc576040517f08c379a0000000000000000000000000000000000000000000000000000000008152600401620002d39062001f9f565b60405180910390fd5b600060028351620002ee9190620021d4565b6004620002fc919062002177565b90506000808267ffffffffffffffff81111562000342577f4e487b7100000000000000000000000000000000000000000000000000000000600052604160045260246000fd5b604051908082528060200260200182016040528015620003715781602001602082028036833780820191505090505b509050600181600081518110620003b1577f4e487b7100000000000000000000000000000000000000000000000000000000600052603260045260246000fd5b602002602001018181525050620003c833620015d4565b8160018151811062000403577f4e487b7100000000000000000000000000000000000000000000000000000000600052603260045260246000fd5b6020026020010181815250506200041a87620015d4565b8160028151811062000455577f4e487b7100000000000000000000000000000000000000000000000000000000600052603260045260246000fd5b60200260200101818152505085816003815181106200049d577f4e487b7100000000000000000000000000000000000000000000000000000000600052603260045260246000fd5b6020026020010181815250506000600490505b83811015620006455785518310620004ff576040517f08c379a0000000000000000000000000000000000000000000000000000000008152600401620004f69062001f17565b60405180910390fd5b85838151811062000539577f4e487b7100000000000000000000000000000000000000000000000000000000600052603260045260246000fd5b60200260200101518282815181106200057b577f4e487b7100000000000000000000000000000000000000000000000000000000600052603260045260246000fd5b60200260200101818152505080806200059490620023af565b915050848381518110620005d1577f4e487b7100000000000000000000000000000000000000000000000000000000600052603260045260246000fd5b602002602001015182828151811062000613577f4e487b7100000000000000000000000000000000000000000000000000000000600052603260045260246000fd5b60200260200101818152505082806200062c90620023af565b93505080806200063c90620023af565b915050620004b0565b50600260009054906101000a900473ffffffffffffffffffffffffffffffffffffffff1673ffffffffffffffffffffffffffffffffffffffff16632c9dd5c0600154836040518363ffffffff1660e01b8152600401620006a792919062002000565b602060405180830381600087803b158015620006c257600080fd5b505af1158015620006d7573d6000803e3d6000fd5b505050506040513d601f19601f82011682018060405250810190620006fd919062001883565b5060005b85518110156200081c5784818151811062000745577f4e487b7100000000000000000000000000000000000000000000000000000000600052603260045260246000fd5b6020026020010151600460003373ffffffffffffffffffffffffffffffffffffffff1673ffffffffffffffffffffffffffffffffffffffff1681526020019081526020016000206000888481518110620007c8577f4e487b7100000000000000000000000000000000000000000000000000000000600052603260045260246000fd5b602002602001015181526020019081526020016000206000828254620007ef919062002177565b9250508190555080806200080390620023af565b91505080806200081390620023af565b91505062000701565b5050505050505050565b81518351146200086d576040517f08c379a0000000000000000000000000000000000000000000000000000000008152600401620008649062001f9f565b60405180910390fd5b60008590508073ffffffffffffffffffffffffffffffffffffffff166350f1ae663386866040518463ffffffff1660e01b8152600401620008b19392919062001e35565b600060405180830381600087803b158015620008cc57600080fd5b505af1158015620008e1573d6000803e3d6000fd5b50505050600060028551620008f79190620021d4565b600562000905919062002177565b90506000806004905060008367ffffffffffffffff81111562000951577f4e487b7100000000000000000000000000000000000000000000000000000000600052604160045260246000fd5b604051908082528060200260200182016040528015620009805781602001602082028036833780820191505090505b5090508581600081518110620009bf577f4e487b7100000000000000000000000000000000000000000000000000000000600052603260045260246000fd5b602002602001018181525050620009d68a620015d4565b8160018151811062000a11577f4e487b7100000000000000000000000000000000000000000000000000000000600052603260045260246000fd5b602002602001018181525050888160028151811062000a59577f4e487b7100000000000000000000000000000000000000000000000000000000600052603260045260246000fd5b60200260200101818152505087518160038151811062000aa2577f4e487b7100000000000000000000000000000000000000000000000000000000600052603260045260246000fd5b6020026020010181815250505b875183101562000b675787838151811062000af3577f4e487b7100000000000000000000000000000000000000000000000000000000600052603260045260246000fd5b602002602001015181838151811062000b35577f4e487b7100000000000000000000000000000000000000000000000000000000600052603260045260246000fd5b602002602001018181525050828062000b4e90620023af565b935050818062000b5e90620023af565b92505062000aaf565b60009250865181838151811062000ba7577f4e487b7100000000000000000000000000000000000000000000000000000000600052603260045260246000fd5b6020026020010181815250505b865183101562000c6c57818062000bcb90620023af565b92505086838151811062000c08577f4e487b7100000000000000000000000000000000000000000000000000000000600052603260045260246000fd5b602002602001015181838151811062000c4a577f4e487b7100000000000000000000000000000000000000000000000000000000600052603260045260246000fd5b602002602001018181525050828062000c6390620023af565b93505062000bb4565b600260009054906101000a900473ffffffffffffffffffffffffffffffffffffffff1673ffffffffffffffffffffffffffffffffffffffff16633e3aa6c56001547f03d7e9aabaee46b2e84062eb3bca33a0c08e1142b329c095d47ec3d6af1adbc6846040518463ffffffff1660e01b815260040162000cef9392919062002034565b602060405180830381600087803b15801562000d0a57600080fd5b505af115801562000d1f573d6000803e3d6000fd5b505050506040513d601f19601f8201168201806040525081019062000d45919062001883565b5050505050505050505050565b600260009054906101000a900473ffffffffffffffffffffffffffffffffffffffff1681565b60015481565b606060006040518060200162000d9490620015f4565b6020820181038252601f19601f820116604052509050803060405160200162000dbe919062001e18565b60405160208183030381529060405260405160200162000de092919062001df0565b60405160208183030381529060405291505090565b8181805182511462000e3e576040517f08c379a000000000000000000000000000000000000000000000000000000000815260040162000e359062001f9f565b60405180910390fd5b60005b82518110156200102b57600083828151811062000e87577f4e487b7100000000000000000000000000000000000000000000000000000000600052603260045260246000fd5b60200260200101519050600083838151811062000ecd577f4e487b7100000000000000000000000000000000000000000000000000000000600052603260045260246000fd5b602002602001015190506000600460003373ffffffffffffffffffffffffffffffffffffffff1673ffffffffffffffffffffffffffffffffffffffff1681526020019081526020016000206000848152602001908152602001600020541162000f6d576040517f08c379a000000000000000000000000000000000000000000000000000000000815260040162000f649062001f7d565b60405180910390fd5b80600460003373ffffffffffffffffffffffffffffffffffffffff1673ffffffffffffffffffffffffffffffffffffffff168152602001908152602001600020600084815260200190815260200160002054101562001003576040517f08c379a000000000000000000000000000000000000000000000000000000000815260040162000ffa9062001fc1565b60405180910390fd5b82806200101090620023af565b935050505080806200102290620023af565b91505062000e41565b5060003073ffffffffffffffffffffffffffffffffffffffff166352c7420d6040518163ffffffff1660e01b815260040160006040518083038186803b1580156200107557600080fd5b505afa1580156200108a573d6000803e3d6000fd5b505050506040513d6000823e3d601f19601f82011682018060405250810190620010b59190620018af565b905060003073ffffffffffffffffffffffffffffffffffffffff166394ca2cb5836401234567886040518363ffffffff1660e01b8152600401620010fb92919062001ea4565b60206040518083038186803b1580156200111457600080fd5b505afa15801562001129573d6000803e3d6000fd5b505050506040513d601f19601f820116820180604052508101906200114f9190620017e4565b9050600360008273ffffffffffffffffffffffffffffffffffffffff1673ffffffffffffffffffffffffffffffffffffffff16815260200190815260200160002060009054906101000a900460ff1662001283576000620011b6836401234567886200146f565b90508173ffffffffffffffffffffffffffffffffffffffff168173ffffffffffffffffffffffffffffffffffffffff161462001229576040517f08c379a0000000000000000000000000000000000000000000000000000000008152600401620012209062001f5b565b60405180910390fd5b6001600360008373ffffffffffffffffffffffffffffffffffffffff1673ffffffffffffffffffffffffffffffffffffffff16815260200190815260200160002060006101000a81548160ff021916908315150217905550505b60008190508073ffffffffffffffffffffffffffffffffffffffff1663f03614163389896040518463ffffffff1660e01b8152600401620012c79392919062001e35565b600060405180830381600087803b158015620012e257600080fd5b505af1158015620012f7573d6000803e3d6000fd5b5050505060005b8751811015620014195786818151811062001342577f4e487b7100000000000000000000000000000000000000000000000000000000600052603260045260246000fd5b6020026020010151600460003373ffffffffffffffffffffffffffffffffffffffff1673ffffffffffffffffffffffffffffffffffffffff16815260200190815260200160002060008a8481518110620013c5577f4e487b7100000000000000000000000000000000000000000000000000000000600052603260045260246000fd5b602002602001015181526020019081526020016000206000828254620013ec919062002235565b9250508190555080806200140090620023af565b91505080806200141090620023af565b915050620012fe565b5050505050505050565b60008060ff60f81b308486805190602001206040516020016200144a949392919062001d9a565b6040516020818303038152906040528051906020012090508060001c91505092915050565b600080828451602086016000f59050803b6200148a57600080fd5b7ff40fcec21964ffb566044d083b4073f29f7f7929110ea19e1b3ebe375d89055e81604051620014bb919062001e18565b60405180910390a18091505092915050565b60008054906101000a900473ffffffffffffffffffffffffffffffffffffffff1673ffffffffffffffffffffffffffffffffffffffff163373ffffffffffffffffffffffffffffffffffffffff16146200155e576040517f08c379a0000000000000000000000000000000000000000000000000000000008152600401620015559062001f39565b60405180910390fd5b600060015414620015a6576040517f08c379a00000000000000000000000000000000000000000000000000000000081526004016200159d9062001ef5565b60405180910390fd5b8060018190555050565b60008054906101000a900473ffffffffffffffffffffffffffffffffffffffff1681565b60008173ffffffffffffffffffffffffffffffffffffffff169050919050565b6135f1806200272b83390190565b6000620016196200161384620020a1565b62002078565b905080838252602082019050828560208602820111156200163957600080fd5b60005b858110156200166d5781620016528882620017cd565b8452602084019350602083019250506001810190506200163c565b5050509392505050565b60006200168e6200168884620020d0565b62002078565b905082815260208101848484011115620016a757600080fd5b620016b484828562002334565b509392505050565b6000620016d3620016cd84620020d0565b62002078565b905082815260208101848484011115620016ec57600080fd5b620016f984828562002343565b509392505050565b6000815190506200171281620026c2565b92915050565b600082601f8301126200172a57600080fd5b81356200173c84826020860162001602565b91505092915050565b6000815190506200175681620026dc565b92915050565b600082601f8301126200176e57600080fd5b81356200178084826020860162001677565b91505092915050565b600082601f8301126200179b57600080fd5b8151620017ad848260208601620016bc565b91505092915050565b600081359050620017c781620026f6565b92915050565b600081359050620017de8162002710565b92915050565b600060208284031215620017f757600080fd5b6000620018078482850162001701565b91505092915050565b600080604083850312156200182457600080fd5b600083013567ffffffffffffffff8111156200183f57600080fd5b6200184d8582860162001718565b925050602083013567ffffffffffffffff8111156200186b57600080fd5b620018798582860162001718565b9150509250929050565b6000602082840312156200189657600080fd5b6000620018a68482850162001745565b91505092915050565b600060208284031215620018c257600080fd5b600082015167ffffffffffffffff811115620018dd57600080fd5b620018eb8482850162001789565b91505092915050565b600080604083850312156200190857600080fd5b600083013567ffffffffffffffff8111156200192357600080fd5b62001931858286016200175c565b92505060206200194485828601620017cd565b9150509250929050565b600080600080608085870312156200196557600080fd5b60006200197587828801620017b6565b94505060206200198887828801620017cd565b935050604085013567ffffffffffffffff811115620019a657600080fd5b620019b48782880162001718565b925050606085013567ffffffffffffffff811115620019d257600080fd5b620019e08782880162001718565b91505092959194509250565b600080600080600060a0868803121562001a0557600080fd5b600062001a1588828901620017b6565b955050602062001a2888828901620017cd565b945050604086013567ffffffffffffffff81111562001a4657600080fd5b62001a548882890162001718565b935050606086013567ffffffffffffffff81111562001a7257600080fd5b62001a808882890162001718565b925050608062001a9388828901620017cd565b9150509295509295909350565b60006020828403121562001ab357600080fd5b600062001ac384828501620017cd565b91505092915050565b600062001ada838362001d5d565b60208301905092915050565b62001af18162002270565b82525050565b62001b0c62001b068262002270565b620023fd565b82525050565b600062001b1f8262002116565b62001b2b818562002139565b935062001b388362002106565b8060005b8381101562001b6f57815162001b53888262001acc565b975062001b60836200212c565b92505060018101905062001b3c565b5085935050505092915050565b62001b9162001b8b8262002284565b62002411565b82525050565b62001bac62001ba682620022b0565b6200241b565b82525050565b600062001bbf8262002121565b62001bcb81856200214a565b935062001bdd81856020860162002343565b62001be881620024a1565b840191505092915050565b600062001c008262002121565b62001c0c81856200215b565b935062001c1e81856020860162002343565b80840191505092915050565b62001c3581620022f8565b82525050565b62001c468162002320565b82525050565b600062001c5b60248362002166565b915062001c6882620024bf565b604082019050919050565b600062001c8260228362002166565b915062001c8f826200250e565b604082019050919050565b600062001ca960148362002166565b915062001cb6826200255d565b602082019050919050565b600062001cd060388362002166565b915062001cdd8262002586565b604082019050919050565b600062001cf7603d8362002166565b915062001d0482620025d5565b604082019050919050565b600062001d1e603e8362002166565b915062001d2b8262002624565b604082019050919050565b600062001d4560278362002166565b915062001d528262002673565b604082019050919050565b62001d6881620022ee565b82525050565b62001d7981620022ee565b82525050565b62001d9462001d8e82620022ee565b62002439565b82525050565b600062001da8828762001b7c565b60018201915062001dba828662001af7565b60148201915062001dcc828562001d7f565b60208201915062001dde828462001b97565b60208201915081905095945050505050565b600062001dfe828562001bf3565b915062001e0c828462001bf3565b91508190509392505050565b600060208201905062001e2f600083018462001ae6565b92915050565b600060608201905062001e4c600083018662001ae6565b818103602083015262001e60818562001b12565b9050818103604083015262001e76818462001b12565b9050949350505050565b6000602082019050818103600083015262001e9c818462001bb2565b905092915050565b6000604082019050818103600083015262001ec0818562001bb2565b905062001ed1602083018462001c3b565b9392505050565b600060208201905062001eef600083018462001c2a565b92915050565b6000602082019050818103600083015262001f108162001c4c565b9050919050565b6000602082019050818103600083015262001f328162001c73565b9050919050565b6000602082019050818103600083015262001f548162001c9a565b9050919050565b6000602082019050818103600083015262001f768162001cc1565b9050919050565b6000602082019050818103600083015262001f988162001ce8565b9050919050565b6000602082019050818103600083015262001fba8162001d0f565b9050919050565b6000602082019050818103600083015262001fdc8162001d36565b9050919050565b600060208201905062001ffa600083018462001d6e565b92915050565b600060408201905062002017600083018562001d6e565b81810360208301526200202b818462001b12565b90509392505050565b60006060820190506200204b600083018662001d6e565b6200205a602083018562001d6e565b81810360408301526200206e818462001b12565b9050949350505050565b60006200208462002097565b905062002092828262002379565b919050565b6000604051905090565b600067ffffffffffffffff821115620020bf57620020be62002472565b5b602082029050602081019050919050565b600067ffffffffffffffff821115620020ee57620020ed62002472565b5b620020f982620024a1565b9050602081019050919050565b6000819050602082019050919050565b600081519050919050565b600081519050919050565b6000602082019050919050565b600082825260208201905092915050565b600082825260208201905092915050565b600081905092915050565b600082825260208201905092915050565b60006200218482620022ee565b91506200219183620022ee565b9250827fffffffffffffffffffffffffffffffffffffffffffffffffffffffffffffffff03821115620021c957620021c862002443565b5b828201905092915050565b6000620021e182620022ee565b9150620021ee83620022ee565b9250817fffffffffffffffffffffffffffffffffffffffffffffffffffffffffffffffff04831182151516156200222a576200222962002443565b5b828202905092915050565b60006200224282620022ee565b91506200224f83620022ee565b92508282101562002265576200226462002443565b5b828203905092915050565b60006200227d82620022ce565b9050919050565b60007fff0000000000000000000000000000000000000000000000000000000000000082169050919050565b6000819050919050565b6000620022c78262002270565b9050919050565b600073ffffffffffffffffffffffffffffffffffffffff82169050919050565b6000819050919050565b600062002305826200230c565b9050919050565b60006200231982620022ce565b9050919050565b60006200232d82620022ee565b9050919050565b82818337600083830152505050565b60005b838110156200236357808201518184015260208101905062002346565b8381111562002373576000848401525b50505050565b6200238482620024a1565b810181811067ffffffffffffffff82111715620023a657620023a562002472565b5b80604052505050565b6000620023bc82620022ee565b91507fffffffffffffffffffffffffffffffffffffffffffffffffffffffffffffffff821415620023f257620023f162002443565b5b600182019050919050565b60006200240a8262002425565b9050919050565b6000819050919050565b6000819050919050565b60006200243282620024b2565b9050919050565b6000819050919050565b7f4e487b7100000000000000000000000000000000000000000000000000000000600052601160045260246000fd5b7f4e487b7100000000000000000000000000000000000000000000000000000000600052604160045260246000fd5b6000601f19601f8301169050919050565b60008160601b9050919050565b7f476174657761792f656e64706f696e742d676174657761792d616c726561647960008201527f2d73657400000000000000000000000000000000000000000000000000000000602082015250565b7f596f752063616e206e6f742061636365737320746f207468617420656c656d6560008201527f6e74000000000000000000000000000000000000000000000000000000000000602082015250565b7f476174657761792f756e617574686f72697a6564000000000000000000000000600082015250565b7f507265636f6d70757465206164647265737320616e64206465706c6f7965642060008201527f6164647265737320617265206e6f74207468652073616d650000000000000000602082015250565b7f596f752063616e206e6f74206d696e7420696620796f7520646f6e277420686160008201527f766520616d6f756e7420666f72206120676976656e20746f6b656e4944000000602082015250565b7f5468652053697a65206f6620617272617920746f6b656e494420616e6420617260008201527f72617920616d6f756e74732073686f756c64206265207468652073616d650000602082015250565b7f746f6b656e20496420646f6573206e6f74206578697374206f722077726f6e6760008201527f20616d6f756e7400000000000000000000000000000000000000000000000000602082015250565b620026cd8162002270565b8114620026d957600080fd5b50565b620026e781620022b0565b8114620026f357600080fd5b50565b6200270181620022ba565b81146200270d57600080fd5b50565b6200271b81620022ee565b81146200272757600080fd5b5056fe60806040523480156200001157600080fd5b50604051620035f1380380620035f183398181016040528101906200003791906200018e565b6040518060800160405280604d8152602001620035a4604d91396200006281620000ab60201b60201c565b5080600360006101000a81548173ffffffffffffffffffffffffffffffffffffffff021916908373ffffffffffffffffffffffffffffffffffffffff160217905550506200026d565b8060029080519060200190620000c3929190620000c7565b5050565b828054620000d590620001ee565b90600052602060002090601f016020900481019282620000f9576000855562000145565b82601f106200011457805160ff191683800117855562000145565b8280016001018555821562000145579182015b828111156200014457825182559160200191906001019062000127565b5b50905062000154919062000158565b5090565b5b808211156200017357600081600090555060010162000159565b5090565b600081519050620001888162000253565b92915050565b600060208284031215620001a157600080fd5b6000620001b18482850162000177565b91505092915050565b6000620001c782620001ce565b9050919050565b600073ffffffffffffffffffffffffffffffffffffffff82169050919050565b600060028204905060018216806200020757607f821691505b602082108114156200021e576200021d62000224565b5b50919050565b7f4e487b7100000000000000000000000000000000000000000000000000000000600052602260045260246000fd5b6200025e81620001ba565b81146200026a57600080fd5b50565b613327806200027d6000396000f3fe608060405234801561001057600080fd5b50600436106100a85760003560e01c806350f1ae661161007157806350f1ae66146101895780638b851b95146101a5578063a22cb465146101c3578063e985e9c5146101df578063f03614161461020f578063f242432a1461022b576100a8565b8062fdd58e146100ad57806301ffc9a7146100dd5780630e89341c1461010d5780632eb2c2d61461013d5780634e1273f414610159575b600080fd5b6100c760048036038101906100c291906120fc565b610247565b6040516100d49190612904565b60405180910390f35b6100f760048036038101906100f291906121a4565b610310565b6040516101049190612707565b60405180910390f35b610127600480360381019061012291906121f6565b6103f2565b6040516101349190612722565b60405180910390f35b61015760048036038101906101529190611ef3565b610423565b005b610173600480360381019061016e9190612138565b6104c4565b60405161018091906126ae565b60405180910390f35b6101a3600480360381019061019e9190612041565b610675565b005b6101ad610715565b6040516101ba91906125d1565b60405180910390f35b6101dd60048036038101906101d891906120c0565b61073b565b005b6101f960048036038101906101f49190611eb7565b610751565b6040516102069190612707565b60405180910390f35b61022960048036038101906102249190612041565b6107e5565b005b61024560048036038101906102409190611fb2565b610895565b005b60008073ffffffffffffffffffffffffffffffffffffffff168373ffffffffffffffffffffffffffffffffffffffff1614156102b8576040517f08c379a00000000000000000000000000000000000000000000000000000000081526004016102af906127a4565b60405180910390fd5b60008083815260200190815260200160002060008473ffffffffffffffffffffffffffffffffffffffff1673ffffffffffffffffffffffffffffffffffffffff16815260200190815260200160002054905092915050565b60007fd9b67a26000000000000000000000000000000000000000000000000000000007bffffffffffffffffffffffffffffffffffffffffffffffffffffffff1916827bffffffffffffffffffffffffffffffffffffffffffffffffffffffff191614806103db57507f0e89341c000000000000000000000000000000000000000000000000000000007bffffffffffffffffffffffffffffffffffffffffffffffffffffffff1916827bffffffffffffffffffffffffffffffffffffffffffffffffffffffff1916145b806103eb57506103ea82610936565b5b9050919050565b60606103fd826109a0565b60405160200161040d91906125a4565b6040516020818303038152906040529050919050565b61042b610b4d565b73ffffffffffffffffffffffffffffffffffffffff168573ffffffffffffffffffffffffffffffffffffffff16148061047157506104708561046b610b4d565b610751565b5b6104b0576040517f08c379a00000000000000000000000000000000000000000000000000000000081526004016104a790612824565b60405180910390fd5b6104bd8585858585610b55565b5050505050565b6060815183511461050a576040517f08c379a0000000000000000000000000000000000000000000000000000000008152600401610501906128a4565b60405180910390fd5b6000835167ffffffffffffffff81111561054d577f4e487b7100000000000000000000000000000000000000000000000000000000600052604160045260246000fd5b60405190808252806020026020018201604052801561057b5781602001602082028036833780820191505090505b50905060005b845181101561066a576106148582815181106105c6577f4e487b7100000000000000000000000000000000000000000000000000000000600052603260045260246000fd5b6020026020010151858381518110610607577f4e487b7100000000000000000000000000000000000000000000000000000000600052603260045260246000fd5b6020026020010151610247565b82828151811061064d577f4e487b7100000000000000000000000000000000000000000000000000000000600052603260045260246000fd5b6020026020010181815250508061066390612c14565b9050610581565b508091505092915050565b600360009054906101000a900473ffffffffffffffffffffffffffffffffffffffff1673ffffffffffffffffffffffffffffffffffffffff163373ffffffffffffffffffffffffffffffffffffffff1614610705576040517f08c379a00000000000000000000000000000000000000000000000000000000081526004016106fc90612784565b60405180910390fd5b610710838383610eb5565b505050565b600360009054906101000a900473ffffffffffffffffffffffffffffffffffffffff1681565b61074d610746610b4d565b83836111b2565b5050565b6000600160008473ffffffffffffffffffffffffffffffffffffffff1673ffffffffffffffffffffffffffffffffffffffff16815260200190815260200160002060008373ffffffffffffffffffffffffffffffffffffffff1673ffffffffffffffffffffffffffffffffffffffff16815260200190815260200160002060009054906101000a900460ff16905092915050565b600360009054906101000a900473ffffffffffffffffffffffffffffffffffffffff1673ffffffffffffffffffffffffffffffffffffffff163373ffffffffffffffffffffffffffffffffffffffff1614610875576040517f08c379a000000000000000000000000000000000000000000000000000000000815260040161086c90612784565b60405180910390fd5b6108908383836040518060200160405280600081525061131f565b505050565b61089d610b4d565b73ffffffffffffffffffffffffffffffffffffffff168573ffffffffffffffffffffffffffffffffffffffff1614806108e357506108e2856108dd610b4d565b610751565b5b610922576040517f08c379a0000000000000000000000000000000000000000000000000000000008152600401610919906127e4565b60405180910390fd5b61092f8585858585611589565b5050505050565b60007f01ffc9a7000000000000000000000000000000000000000000000000000000007bffffffffffffffffffffffffffffffffffffffffffffffffffffffff1916827bffffffffffffffffffffffffffffffffffffffffffffffffffffffff1916149050919050565b606060008214156109e8576040518060400160405280600181526020017f30000000000000000000000000000000000000000000000000000000000000008152509050610b48565b600082905060005b60008214610a1a578080610a0390612c14565b915050600a82610a139190612ac8565b91506109f0565b60008167ffffffffffffffff811115610a5c577f4e487b7100000000000000000000000000000000000000000000000000000000600052604160045260246000fd5b6040519080825280601f01601f191660200182016040528015610a8e5781602001600182028036833780820191505090505b5090505b60008514610b4157600182610aa79190612af9565b9150600a85610ab69190612c5d565b6030610ac29190612a72565b60f81b818381518110610afe577f4e487b7100000000000000000000000000000000000000000000000000000000600052603260045260246000fd5b60200101907effffffffffffffffffffffffffffffffffffffffffffffffffffffffffffff1916908160001a905350600a85610b3a9190612ac8565b9450610a92565b8093505050505b919050565b600033905090565b8151835114610b99576040517f08c379a0000000000000000000000000000000000000000000000000000000008152600401610b90906128c4565b60405180910390fd5b600073ffffffffffffffffffffffffffffffffffffffff168473ffffffffffffffffffffffffffffffffffffffff161415610c09576040517f08c379a0000000000000000000000000000000000000000000000000000000008152600401610c0090612804565b60405180910390fd5b6000610c13610b4d565b9050610c2381878787878761180b565b60005b8451811015610e20576000858281518110610c6a577f4e487b7100000000000000000000000000000000000000000000000000000000600052603260045260246000fd5b602002602001015190506000858381518110610caf577f4e487b7100000000000000000000000000000000000000000000000000000000600052603260045260246000fd5b60200260200101519050600080600084815260200190815260200160002060008b73ffffffffffffffffffffffffffffffffffffffff1673ffffffffffffffffffffffffffffffffffffffff16815260200190815260200160002054905081811015610d50576040517f08c379a0000000000000000000000000000000000000000000000000000000008152600401610d4790612864565b60405180910390fd5b81810360008085815260200190815260200160002060008c73ffffffffffffffffffffffffffffffffffffffff1673ffffffffffffffffffffffffffffffffffffffff168152602001908152602001600020819055508160008085815260200190815260200160002060008b73ffffffffffffffffffffffffffffffffffffffff1673ffffffffffffffffffffffffffffffffffffffff1681526020019081526020016000206000828254610e059190612a72565b9250508190555050505080610e1990612c14565b9050610c26565b508473ffffffffffffffffffffffffffffffffffffffff168673ffffffffffffffffffffffffffffffffffffffff168273ffffffffffffffffffffffffffffffffffffffff167f4a39dc06d4c0dbc64b70af90fd698a233a518aa5d07e595d983b8c0526c8f7fb8787604051610e979291906126d0565b60405180910390a4610ead818787878787611813565b505050505050565b600073ffffffffffffffffffffffffffffffffffffffff168373ffffffffffffffffffffffffffffffffffffffff161415610f25576040517f08c379a0000000000000000000000000000000000000000000000000000000008152600401610f1c90612844565b60405180910390fd5b8051825114610f69576040517f08c379a0000000000000000000000000000000000000000000000000000000008152600401610f60906128c4565b60405180910390fd5b6000610f73610b4d565b9050610f938185600086866040518060200160405280600081525061180b565b60005b835181101561112c576000848281518110610fda577f4e487b7100000000000000000000000000000000000000000000000000000000600052603260045260246000fd5b60200260200101519050600084838151811061101f577f4e487b7100000000000000000000000000000000000000000000000000000000600052603260045260246000fd5b60200260200101519050600080600084815260200190815260200160002060008973ffffffffffffffffffffffffffffffffffffffff1673ffffffffffffffffffffffffffffffffffffffff168152602001908152602001600020549050818110156110c0576040517f08c379a00000000000000000000000000000000000000000000000000000000081526004016110b7906127c4565b60405180910390fd5b81810360008085815260200190815260200160002060008a73ffffffffffffffffffffffffffffffffffffffff1673ffffffffffffffffffffffffffffffffffffffff16815260200190815260200160002081905550505050808061112490612c14565b915050610f96565b50600073ffffffffffffffffffffffffffffffffffffffff168473ffffffffffffffffffffffffffffffffffffffff168273ffffffffffffffffffffffffffffffffffffffff167f4a39dc06d4c0dbc64b70af90fd698a233a518aa5d07e595d983b8c0526c8f7fb86866040516111a49291906126d0565b60405180910390a450505050565b8173ffffffffffffffffffffffffffffffffffffffff168373ffffffffffffffffffffffffffffffffffffffff161415611221576040517f08c379a000000000000000000000000000000000000000000000000000000000815260040161121890612884565b60405180910390fd5b80600160008573ffffffffffffffffffffffffffffffffffffffff1673ffffffffffffffffffffffffffffffffffffffff16815260200190815260200160002060008473ffffffffffffffffffffffffffffffffffffffff1673ffffffffffffffffffffffffffffffffffffffff16815260200190815260200160002060006101000a81548160ff0219169083151502179055508173ffffffffffffffffffffffffffffffffffffffff168373ffffffffffffffffffffffffffffffffffffffff167f17307eab39ab6107e8899845ad3d59bd9653f200f220920489ca2b5937696c31836040516113129190612707565b60405180910390a3505050565b600073ffffffffffffffffffffffffffffffffffffffff168473ffffffffffffffffffffffffffffffffffffffff16141561138f576040517f08c379a0000000000000000000000000000000000000000000000000000000008152600401611386906128e4565b60405180910390fd5b81518351146113d3576040517f08c379a00000000000000000000000000000000000000000000000000000000081526004016113ca906128c4565b60405180910390fd5b60006113dd610b4d565b90506113ee8160008787878761180b565b60005b84518110156114f357838181518110611433577f4e487b7100000000000000000000000000000000000000000000000000000000600052603260045260246000fd5b6020026020010151600080878481518110611477577f4e487b7100000000000000000000000000000000000000000000000000000000600052603260045260246000fd5b6020026020010151815260200190815260200160002060008873ffffffffffffffffffffffffffffffffffffffff1673ffffffffffffffffffffffffffffffffffffffff16815260200190815260200160002060008282546114d99190612a72565b9250508190555080806114eb90612c14565b9150506113f1565b508473ffffffffffffffffffffffffffffffffffffffff16600073ffffffffffffffffffffffffffffffffffffffff168273ffffffffffffffffffffffffffffffffffffffff167f4a39dc06d4c0dbc64b70af90fd698a233a518aa5d07e595d983b8c0526c8f7fb878760405161156b9291906126d0565b60405180910390a461158281600087878787611813565b5050505050565b600073ffffffffffffffffffffffffffffffffffffffff168473ffffffffffffffffffffffffffffffffffffffff1614156115f9576040517f08c379a00000000000000000000000000000000000000000000000000000000081526004016115f090612804565b60405180910390fd5b6000611603610b4d565b9050611623818787611614886119fa565b61161d886119fa565b8761180b565b600080600086815260200190815260200160002060008873ffffffffffffffffffffffffffffffffffffffff1673ffffffffffffffffffffffffffffffffffffffff168152602001908152602001600020549050838110156116ba576040517f08c379a00000000000000000000000000000000000000000000000000000000081526004016116b190612864565b60405180910390fd5b83810360008087815260200190815260200160002060008973ffffffffffffffffffffffffffffffffffffffff1673ffffffffffffffffffffffffffffffffffffffff168152602001908152602001600020819055508360008087815260200190815260200160002060008873ffffffffffffffffffffffffffffffffffffffff1673ffffffffffffffffffffffffffffffffffffffff168152602001908152602001600020600082825461176f9190612a72565b925050819055508573ffffffffffffffffffffffffffffffffffffffff168773ffffffffffffffffffffffffffffffffffffffff168373ffffffffffffffffffffffffffffffffffffffff167fc3d58168c5ae7397731d063d5bbf3d657854427343f4c083240f7aacaa2d0f6288886040516117ec92919061291f565b60405180910390a4611802828888888888611ac0565b50505050505050565b505050505050565b6118328473ffffffffffffffffffffffffffffffffffffffff16611ca7565b156119f2578373ffffffffffffffffffffffffffffffffffffffff1663bc197c8187878686866040518663ffffffff1660e01b81526004016118789594939291906125ec565b602060405180830381600087803b15801561189257600080fd5b505af19250505080156118c357506040513d601f19601f820116820180604052508101906118c091906121cd565b60015b611969576118cf612d1b565b806308c379a0141561192c57506118e46131ff565b806118ef575061192e565b806040517f08c379a00000000000000000000000000000000000000000000000000000000081526004016119239190612722565b60405180910390fd5b505b6040517f08c379a000000000000000000000000000000000000000000000000000000000815260040161196090612744565b60405180910390fd5b63bc197c8160e01b7bffffffffffffffffffffffffffffffffffffffffffffffffffffffff1916817bffffffffffffffffffffffffffffffffffffffffffffffffffffffff1916146119f0576040517f08c379a00000000000000000000000000000000000000000000000000000000081526004016119e790612764565b60405180910390fd5b505b505050505050565b60606000600167ffffffffffffffff811115611a3f577f4e487b7100000000000000000000000000000000000000000000000000000000600052604160045260246000fd5b604051908082528060200260200182016040528015611a6d5781602001602082028036833780820191505090505b5090508281600081518110611aab577f4e487b7100000000000000000000000000000000000000000000000000000000600052603260045260246000fd5b60200260200101818152505080915050919050565b611adf8473ffffffffffffffffffffffffffffffffffffffff16611ca7565b15611c9f578373ffffffffffffffffffffffffffffffffffffffff1663f23a6e6187878686866040518663ffffffff1660e01b8152600401611b25959493929190612654565b602060405180830381600087803b158015611b3f57600080fd5b505af1925050508015611b7057506040513d601f19601f82011682018060405250810190611b6d91906121cd565b60015b611c1657611b7c612d1b565b806308c379a01415611bd95750611b916131ff565b80611b9c5750611bdb565b806040517f08c379a0000000000000000000000000000000000000000000000000000000008152600401611bd09190612722565b60405180910390fd5b505b6040517f08c379a0000000000000000000000000000000000000000000000000000000008152600401611c0d90612744565b60405180910390fd5b63f23a6e6160e01b7bffffffffffffffffffffffffffffffffffffffffffffffffffffffff1916817bffffffffffffffffffffffffffffffffffffffffffffffffffffffff191614611c9d576040517f08c379a0000000000000000000000000000000000000000000000000000000008152600401611c9490612764565b60405180910390fd5b505b505050505050565b600080823b905060008111915050919050565b6000611ccd611cc88461296d565b612948565b90508083825260208201905082856020860282011115611cec57600080fd5b60005b85811015611d1c5781611d028882611dd0565b845260208401935060208301925050600181019050611cef565b5050509392505050565b6000611d39611d3484612999565b612948565b90508083825260208201905082856020860282011115611d5857600080fd5b60005b85811015611d885781611d6e8882611ea2565b845260208401935060208301925050600181019050611d5b565b5050509392505050565b6000611da5611da0846129c5565b612948565b905082815260208101848484011115611dbd57600080fd5b611dc8848285612ba1565b509392505050565b600081359050611ddf81613295565b92915050565b600082601f830112611df657600080fd5b8135611e06848260208601611cba565b91505092915050565b600082601f830112611e2057600080fd5b8135611e30848260208601611d26565b91505092915050565b600081359050611e48816132ac565b92915050565b600081359050611e5d816132c3565b92915050565b600081519050611e72816132c3565b92915050565b600082601f830112611e8957600080fd5b8135611e99848260208601611d92565b91505092915050565b600081359050611eb1816132da565b92915050565b60008060408385031215611eca57600080fd5b6000611ed885828601611dd0565b9250506020611ee985828601611dd0565b9150509250929050565b600080600080600060a08688031215611f0b57600080fd5b6000611f1988828901611dd0565b9550506020611f2a88828901611dd0565b945050604086013567ffffffffffffffff811115611f4757600080fd5b611f5388828901611e0f565b935050606086013567ffffffffffffffff811115611f7057600080fd5b611f7c88828901611e0f565b925050608086013567ffffffffffffffff811115611f9957600080fd5b611fa588828901611e78565b9150509295509295909350565b600080600080600060a08688031215611fca57600080fd5b6000611fd888828901611dd0565b9550506020611fe988828901611dd0565b9450506040611ffa88828901611ea2565b935050606061200b88828901611ea2565b925050608086013567ffffffffffffffff81111561202857600080fd5b61203488828901611e78565b9150509295509295909350565b60008060006060848603121561205657600080fd5b600061206486828701611dd0565b935050602084013567ffffffffffffffff81111561208157600080fd5b61208d86828701611e0f565b925050604084013567ffffffffffffffff8111156120aa57600080fd5b6120b686828701611e0f565b9150509250925092565b600080604083850312156120d357600080fd5b60006120e185828601611dd0565b92505060206120f285828601611e39565b9150509250929050565b6000806040838503121561210f57600080fd5b600061211d85828601611dd0565b925050602061212e85828601611ea2565b9150509250929050565b6000806040838503121561214b57600080fd5b600083013567ffffffffffffffff81111561216557600080fd5b61217185828601611de5565b925050602083013567ffffffffffffffff81111561218e57600080fd5b61219a85828601611e0f565b9150509250929050565b6000602082840312156121b657600080fd5b60006121c484828501611e4e565b91505092915050565b6000602082840312156121df57600080fd5b60006121ed84828501611e63565b91505092915050565b60006020828403121561220857600080fd5b600061221684828501611ea2565b91505092915050565b600061222b8383612586565b60208301905092915050565b61224081612b2d565b82525050565b600061225182612a06565b61225b8185612a34565b9350612266836129f6565b8060005b8381101561229757815161227e888261221f565b975061228983612a27565b92505060018101905061226a565b5085935050505092915050565b6122ad81612b3f565b82525050565b60006122be82612a11565b6122c88185612a45565b93506122d8818560208601612bb0565b6122e181612d3d565b840191505092915050565b60006122f782612a1c565b6123018185612a56565b9350612311818560208601612bb0565b61231a81612d3d565b840191505092915050565b600061233082612a1c565b61233a8185612a67565b935061234a818560208601612bb0565b80840191505092915050565b6000612363603483612a56565b915061236e82612d5b565b604082019050919050565b6000612386602883612a56565b915061239182612daa565b604082019050919050565b60006123a9601c83612a56565b91506123b482612df9565b602082019050919050565b60006123cc602b83612a56565b91506123d782612e22565b604082019050919050565b60006123ef602483612a56565b91506123fa82612e71565b604082019050919050565b6000612412602983612a56565b915061241d82612ec0565b604082019050919050565b6000612435602583612a56565b915061244082612f0f565b604082019050919050565b6000612458603283612a56565b915061246382612f5e565b604082019050919050565b600061247b602383612a56565b915061248682612fad565b604082019050919050565b600061249e602a83612a56565b91506124a982612ffc565b604082019050919050565b60006124c1603683612a67565b91506124cc8261304b565b603682019050919050565b60006124e4600583612a67565b91506124ef8261309a565b600582019050919050565b6000612507602983612a56565b9150612512826130c3565b604082019050919050565b600061252a602983612a56565b915061253582613112565b604082019050919050565b600061254d602883612a56565b915061255882613161565b604082019050919050565b6000612570602183612a56565b915061257b826131b0565b604082019050919050565b61258f81612b97565b82525050565b61259e81612b97565b82525050565b60006125af826124b4565b91506125bb8284612325565b91506125c6826124d7565b915081905092915050565b60006020820190506125e66000830184612237565b92915050565b600060a0820190506126016000830188612237565b61260e6020830187612237565b81810360408301526126208186612246565b905081810360608301526126348185612246565b9050818103608083015261264881846122b3565b90509695505050505050565b600060a0820190506126696000830188612237565b6126766020830187612237565b6126836040830186612595565b6126906060830185612595565b81810360808301526126a281846122b3565b90509695505050505050565b600060208201905081810360008301526126c88184612246565b905092915050565b600060408201905081810360008301526126ea8185612246565b905081810360208301526126fe8184612246565b90509392505050565b600060208201905061271c60008301846122a4565b92915050565b6000602082019050818103600083015261273c81846122ec565b905092915050565b6000602082019050818103600083015261275d81612356565b9050919050565b6000602082019050818103600083015261277d81612379565b9050919050565b6000602082019050818103600083015261279d8161239c565b9050919050565b600060208201905081810360008301526127bd816123bf565b9050919050565b600060208201905081810360008301526127dd816123e2565b9050919050565b600060208201905081810360008301526127fd81612405565b9050919050565b6000602082019050818103600083015261281d81612428565b9050919050565b6000602082019050818103600083015261283d8161244b565b9050919050565b6000602082019050818103600083015261285d8161246e565b9050919050565b6000602082019050818103600083015261287d81612491565b9050919050565b6000602082019050818103600083015261289d816124fa565b9050919050565b600060208201905081810360008301526128bd8161251d565b9050919050565b600060208201905081810360008301526128dd81612540565b9050919050565b600060208201905081810360008301526128fd81612563565b9050919050565b60006020820190506129196000830184612595565b92915050565b60006040820190506129346000830185612595565b6129416020830184612595565b9392505050565b6000612952612963565b905061295e8282612be3565b919050565b6000604051905090565b600067ffffffffffffffff82111561298857612987612cec565b5b602082029050602081019050919050565b600067ffffffffffffffff8211156129b4576129b3612cec565b5b602082029050602081019050919050565b600067ffffffffffffffff8211156129e0576129df612cec565b5b6129e982612d3d565b9050602081019050919050565b6000819050602082019050919050565b600081519050919050565b600081519050919050565b600081519050919050565b6000602082019050919050565b600082825260208201905092915050565b600082825260208201905092915050565b600082825260208201905092915050565b600081905092915050565b6000612a7d82612b97565b9150612a8883612b97565b9250827fffffffffffffffffffffffffffffffffffffffffffffffffffffffffffffffff03821115612abd57612abc612c8e565b5b828201905092915050565b6000612ad382612b97565b9150612ade83612b97565b925082612aee57612aed612cbd565b5b828204905092915050565b6000612b0482612b97565b9150612b0f83612b97565b925082821015612b2257612b21612c8e565b5b828203905092915050565b6000612b3882612b77565b9050919050565b60008115159050919050565b60007fffffffff0000000000000000000000000000000000000000000000000000000082169050919050565b600073ffffffffffffffffffffffffffffffffffffffff82169050919050565b6000819050919050565b82818337600083830152505050565b60005b83811015612bce578082015181840152602081019050612bb3565b83811115612bdd576000848401525b50505050565b612bec82612d3d565b810181811067ffffffffffffffff82111715612c0b57612c0a612cec565b5b80604052505050565b6000612c1f82612b97565b91507fffffffffffffffffffffffffffffffffffffffffffffffffffffffffffffffff821415612c5257612c51612c8e565b5b600182019050919050565b6000612c6882612b97565b9150612c7383612b97565b925082612c8357612c82612cbd565b5b828206905092915050565b7f4e487b7100000000000000000000000000000000000000000000000000000000600052601160045260246000fd5b7f4e487b7100000000000000000000000000000000000000000000000000000000600052601260045260246000fd5b7f4e487b7100000000000000000000000000000000000000000000000000000000600052604160045260246000fd5b600060033d1115612d3a5760046000803e612d37600051612d4e565b90505b90565b6000601f19601f8301169050919050565b60008160e01c9050919050565b7f455243313135353a207472616e7366657220746f206e6f6e204552433131353560008201527f526563656976657220696d706c656d656e746572000000000000000000000000602082015250565b7f455243313135353a204552433131353552656365697665722072656a6563746560008201527f6420746f6b656e73000000000000000000000000000000000000000000000000602082015250565b7f596f7520617265206e6f74204761746577617920436f6e747261637400000000600082015250565b7f455243313135353a2062616c616e636520717565727920666f7220746865207a60008201527f65726f2061646472657373000000000000000000000000000000000000000000602082015250565b7f455243313135353a206275726e20616d6f756e7420657863656564732062616c60008201527f616e636500000000000000000000000000000000000000000000000000000000602082015250565b7f455243313135353a2063616c6c6572206973206e6f74206f776e6572206e6f7260008201527f20617070726f7665640000000000000000000000000000000000000000000000602082015250565b7f455243313135353a207472616e7366657220746f20746865207a65726f20616460008201527f6472657373000000000000000000000000000000000000000000000000000000602082015250565b7f455243313135353a207472616e736665722063616c6c6572206973206e6f742060008201527f6f776e6572206e6f7220617070726f7665640000000000000000000000000000602082015250565b7f455243313135353a206275726e2066726f6d20746865207a65726f206164647260008201527f6573730000000000000000000000000000000000000000000000000000000000602082015250565b7f455243313135353a20696e73756666696369656e742062616c616e636520666f60008201527f72207472616e7366657200000000000000000000000000000000000000000000602082015250565b7f697066733a2f2f516d59715942626f753666637169554a546b7365765465776960008201527f377379734a7a457339427a63566b7a6d466932736d2f00000000000000000000602082015250565b7f2e6a736f6e000000000000000000000000000000000000000000000000000000600082015250565b7f455243313135353a2073657474696e6720617070726f76616c2073746174757360008201527f20666f722073656c660000000000000000000000000000000000000000000000602082015250565b7f455243313135353a206163636f756e747320616e6420696473206c656e67746860008201527f206d69736d617463680000000000000000000000000000000000000000000000602082015250565b7f455243313135353a2069647320616e6420616d6f756e7473206c656e6774682060008201527f6d69736d61746368000000000000000000000000000000000000000000000000602082015250565b7f455243313135353a206d696e7420746f20746865207a65726f2061646472657360008201527f7300000000000000000000000000000000000000000000000000000000000000602082015250565b600060443d101561320f57613292565b613217612963565b60043d036004823e80513d602482011167ffffffffffffffff8211171561323f575050613292565b808201805167ffffffffffffffff81111561325d5750505050613292565b80602083010160043d03850181111561327a575050505050613292565b61328982602001850186612be3565b82955050505050505b90565b61329e81612b2d565b81146132a957600080fd5b50565b6132b581612b3f565b81146132c057600080fd5b50565b6132cc81612b4b565b81146132d757600080fd5b50565b6132e381612b97565b81146132ee57600080fd5b5056fea2646970667358221220eabc72b8babaf37d5e1fe1135c7008d79d289a26c5eab0c4ddf739547e66fc9064736f6c6343000804003368747470733a2f2f697066732e696f2f697066732f516d59715942626f753666637169554a546b73657654657769377379734a7a457339427a63566b7a6d466932736d2f7b69647d2e6a736f6ea26469706673582212203b38f73294c91453c2513651f96e09bd816e7ebdb52e690c25f113eeb6be459864736f6c63430008040033",
  "linkReferences": {},
  "deployedLinkReferences": {}
}