{
  "_format": "hh-sol-artifact-1",
  "contractName": "Gateway1155",
  "sourceName": "contracts/Gateway1155.sol",
  "abi": [
    {
      "inputs": [
        {
          "internalType": "address",
          "name": "_starknetCore",
          "type": "address"
        }
      ],
      "stateMutability": "nonpayable",
      "type": "constructor"
    },
    {
      "anonymous": false,
      "inputs": [
        {
          "indexed": false,
          "internalType": "address",
          "name": "addr",
          "type": "address"
        },
        {
          "indexed": false,
          "internalType": "uint256",
          "name": "salt",
          "type": "uint256"
        }
      ],
      "name": "Deployed",
      "type": "event"
    },
    {
      "inputs": [
        {
          "internalType": "contract FakeErc1155",
          "name": "_l1TokenContract",
          "type": "address"
        },
        {
          "internalType": "uint256",
          "name": "_l2TokenContract",
          "type": "uint256"
        },
        {
          "internalType": "uint256[]",
          "name": "_tokensId",
          "type": "uint256[]"
        },
        {
          "internalType": "uint256[]",
          "name": "_amounts",
          "type": "uint256[]"
        }
      ],
      "name": "bridgeFromStarknet",
      "outputs": [],
      "stateMutability": "nonpayable",
      "type": "function"
    },
    {
      "inputs": [
        {
          "internalType": "contract ERC1155",
          "name": "_l1TokenContract",
          "type": "address"
        },
        {
          "internalType": "uint256",
          "name": "_l2TokenContract",
          "type": "uint256"
        },
        {
          "internalType": "uint256[]",
          "name": "_tokensId",
          "type": "uint256[]"
        },
        {
          "internalType": "uint256[]",
          "name": "_amounts",
          "type": "uint256[]"
        }
      ],
      "name": "bridgeFromStarknetAvailable",
      "outputs": [
        {
          "internalType": "bool",
          "name": "",
          "type": "bool"
        }
      ],
      "stateMutability": "view",
      "type": "function"
    },
    {
      "inputs": [
        {
          "internalType": "contract ERC1155",
          "name": "_l1TokenContract",
          "type": "address"
        },
        {
          "internalType": "uint256",
          "name": "_l2TokenContract",
          "type": "uint256"
        },
        {
          "internalType": "uint256[]",
          "name": "_tokensId",
          "type": "uint256[]"
        },
        {
          "internalType": "uint256[]",
          "name": "_amounts",
          "type": "uint256[]"
        },
        {
          "internalType": "uint256",
          "name": "_account",
          "type": "uint256"
        }
      ],
      "name": "bridgeToStarknet",
      "outputs": [],
      "stateMutability": "nonpayable",
      "type": "function"
    },
    {
      "inputs": [
        {
          "internalType": "bytes",
          "name": "bytecode",
          "type": "bytes"
        },
        {
          "internalType": "uint256",
          "name": "_salt",
          "type": "uint256"
        }
      ],
      "name": "deploy",
      "outputs": [
        {
          "internalType": "address",
          "name": "",
          "type": "address"
        }
      ],
      "stateMutability": "payable",
      "type": "function"
    },
    {
      "inputs": [],
      "name": "endpointGateway",
      "outputs": [
        {
          "internalType": "uint256",
          "name": "",
          "type": "uint256"
        }
      ],
      "stateMutability": "view",
      "type": "function"
    },
    {
      "inputs": [
        {
          "internalType": "bytes",
          "name": "bytecode",
          "type": "bytes"
        },
        {
          "internalType": "uint256",
          "name": "_salt",
          "type": "uint256"
        }
      ],
      "name": "getAddress",
      "outputs": [
        {
          "internalType": "address",
          "name": "",
          "type": "address"
        }
      ],
      "stateMutability": "view",
      "type": "function"
    },
    {
      "inputs": [],
      "name": "getBytecode",
      "outputs": [
        {
          "internalType": "bytes",
          "name": "",
          "type": "bytes"
        }
      ],
      "stateMutability": "view",
      "type": "function"
    },
    {
      "inputs": [],
      "name": "initialEndpointGatewaySetter",
      "outputs": [
        {
          "internalType": "address",
          "name": "",
          "type": "address"
        }
      ],
      "stateMutability": "view",
      "type": "function"
    },
    {
      "inputs": [
        {
          "internalType": "uint256[]",
          "name": "_tokensId",
          "type": "uint256[]"
        },
        {
          "internalType": "uint256[]",
          "name": "_amounts",
          "type": "uint256[]"
        }
      ],
      "name": "mintNFTFromStarknet",
      "outputs": [],
      "stateMutability": "nonpayable",
      "type": "function"
    },
    {
      "inputs": [
        {
          "internalType": "uint256",
          "name": "_endpointGateway",
          "type": "uint256"
        }
      ],
      "name": "setEndpointGateway",
      "outputs": [],
      "stateMutability": "nonpayable",
      "type": "function"
    },
    {
      "inputs": [],
      "name": "starknetCore",
      "outputs": [
        {
          "internalType": "contract IStarknetCore",
          "name": "",
          "type": "address"
        }
      ],
      "stateMutability": "view",
      "type": "function"
    }
  ],
  "bytecode": "0x60806040523480156200001157600080fd5b506040516200610838038062006108833981810160405281019062000037919062000149565b600073ffffffffffffffffffffffffffffffffffffffff168173ffffffffffffffffffffffffffffffffffffffff161415620000aa576040517f08c379a0000000000000000000000000000000000000000000000000000000008152600401620000a1906200019c565b60405180910390fd5b80600260006101000a81548173ffffffffffffffffffffffffffffffffffffffff021916908373ffffffffffffffffffffffffffffffffffffffff160217905550336000806101000a81548173ffffffffffffffffffffffffffffffffffffffff021916908373ffffffffffffffffffffffffffffffffffffffff160217905550506200026c565b600081519050620001438162000252565b92915050565b6000602082840312156200015c57600080fd5b60006200016c8482850162000132565b91505092915050565b600062000184602583620001be565b9150620001918262000203565b604082019050919050565b60006020820190508181036000830152620001b78162000175565b9050919050565b600082825260208201905092915050565b6000620001dc82620001e3565b9050919050565b600073ffffffffffffffffffffffffffffffffffffffff82169050919050565b7f476174657761792f696e76616c69642d737461726b6e65742d636f72652d616460008201527f6472657373000000000000000000000000000000000000000000000000000000602082015250565b6200025d81620001cf565b81146200026957600080fd5b50565b615e8c806200027c6000396000f3fe608060405260043610620000aa5760003560e01c806352c7420d116200006d57806352c7420d14620001af578063749e91ba14620001df57806394ca2cb5146200020d5780639c4ae2d01462000251578063aa5afdc41462000287578063c5cf2d5e14620002b557620000aa565b80631814104b14620000af578063378eb3b314620000dd5780633986c2d9146200012157806339e730ab146200014f57806341b3a0a1146200017f575b600080fd5b348015620000bc57600080fd5b50620000db6004803603810190620000d59190620020b2565b620002e5565b005b348015620000ea57600080fd5b5062000109600480360381019062000103919062001f60565b62000b36565b604051620001189190620026b9565b60405180910390f35b3480156200012e57600080fd5b506200014d600480360381019062000147919062001ffe565b62000fa3565b005b3480156200015c57600080fd5b506200016762001456565b6040516200017691906200274b565b60405180910390f35b3480156200018c57600080fd5b50620001976200147c565b604051620001a6919062002878565b60405180910390f35b348015620001bc57600080fd5b50620001c762001482565b604051620001d69190620026f3565b60405180910390f35b348015620001ec57600080fd5b506200020b600480360381019062000205919062001e22565b620014f9565b005b3480156200021a57600080fd5b5062000239600480360381019062000233919062001f06565b62001a05565b60405162000248919062002624565b60405180910390f35b6200026f600480360381019062000269919062001f06565b62001a51565b6040516200027e919062002624565b60405180910390f35b3480156200029457600080fd5b50620002b36004803603810190620002ad919062002150565b62001ab1565b005b348015620002c257600080fd5b50620002cd62001b94565b604051620002dc919062002624565b60405180910390f35b80518251146200032c576040517f08c379a0000000000000000000000000000000000000000000000000000000008152600401620003239062002834565b60405180910390fd5b6000600283516200033e919062002a74565b60046200034c919062002a17565b90506000808267ffffffffffffffff81111562000392577f4e487b7100000000000000000000000000000000000000000000000000000000600052604160045260246000fd5b604051908082528060200260200182016040528015620003c15781602001602082028036833780820191505090505b50905060018160008151811062000401577f4e487b7100000000000000000000000000000000000000000000000000000000600052603260045260246000fd5b602002602001018181525050620004183362001bb8565b8160018151811062000453577f4e487b7100000000000000000000000000000000000000000000000000000000600052603260045260246000fd5b6020026020010181815250506200046a8762001bb8565b81600281518110620004a5577f4e487b7100000000000000000000000000000000000000000000000000000000600052603260045260246000fd5b6020026020010181815250508581600381518110620004ed577f4e487b7100000000000000000000000000000000000000000000000000000000600052603260045260246000fd5b6020026020010181815250506000600490505b838110156200069557855183106200054f576040517f08c379a000000000000000000000000000000000000000000000000000000000815260040162000546906200278a565b60405180910390fd5b85838151811062000589577f4e487b7100000000000000000000000000000000000000000000000000000000600052603260045260246000fd5b6020026020010151828281518110620005cb577f4e487b7100000000000000000000000000000000000000000000000000000000600052603260045260246000fd5b6020026020010181815250508080620005e49062002c6f565b91505084838151811062000621577f4e487b7100000000000000000000000000000000000000000000000000000000600052603260045260246000fd5b602002602001015182828151811062000663577f4e487b7100000000000000000000000000000000000000000000000000000000600052603260045260246000fd5b60200260200101818152505082806200067c9062002c6f565b93505080806200068c9062002c6f565b91505062000500565b50600260009054906101000a900473ffffffffffffffffffffffffffffffffffffffff1673ffffffffffffffffffffffffffffffffffffffff16632c9dd5c0600154836040518363ffffffff1660e01b8152600401620006f792919062002895565b602060405180830381600087803b1580156200071257600080fd5b505af115801562000727573d6000803e3d6000fd5b505050506040513d601f19601f820116820180604052508101906200074d919062001e95565b5060003073ffffffffffffffffffffffffffffffffffffffff166352c7420d6040518163ffffffff1660e01b815260040160006040518083038186803b1580156200079757600080fd5b505afa158015620007ac573d6000803e3d6000fd5b505050506040513d6000823e3d601f19601f82011682018060405250810190620007d7919062001ec1565b905060003073ffffffffffffffffffffffffffffffffffffffff166394ca2cb5836401234567886040518363ffffffff1660e01b81526004016200081d92919062002717565b60206040518083038186803b1580156200083657600080fd5b505afa1580156200084b573d6000803e3d6000fd5b505050506040513d601f19601f8201168201806040525081019062000871919062001df6565b90508073ffffffffffffffffffffffffffffffffffffffff16600360003373ffffffffffffffffffffffffffffffffffffffff1673ffffffffffffffffffffffffffffffffffffffff16815260200190815260200160002060009054906101000a900473ffffffffffffffffffffffffffffffffffffffff1673ffffffffffffffffffffffffffffffffffffffff161462000a0c576000620009198364012345678862001a51565b90508173ffffffffffffffffffffffffffffffffffffffff168173ffffffffffffffffffffffffffffffffffffffff16146200098c576040517f08c379a00000000000000000000000000000000000000000000000000000000081526004016200098390620027ce565b60405180910390fd5b81600360003373ffffffffffffffffffffffffffffffffffffffff1673ffffffffffffffffffffffffffffffffffffffff16815260200190815260200160002060006101000a81548173ffffffffffffffffffffffffffffffffffffffff021916908373ffffffffffffffffffffffffffffffffffffffff160217905550505b60005b875181101562000b2a5786818151811062000a53577f4e487b7100000000000000000000000000000000000000000000000000000000600052603260045260246000fd5b6020026020010151600460003373ffffffffffffffffffffffffffffffffffffffff1673ffffffffffffffffffffffffffffffffffffffff16815260200190815260200160002060008a848151811062000ad6577f4e487b7100000000000000000000000000000000000000000000000000000000600052603260045260246000fd5b60200260200101518152602001908152602001600020600082825462000afd919062002a17565b92505081905550808062000b119062002c6f565b915050808062000b219062002c6f565b91505062000a0f565b50505050505050505050565b6000806002845162000b49919062002a74565b600462000b57919062002a17565b90506000808267ffffffffffffffff81111562000b9d577f4e487b7100000000000000000000000000000000000000000000000000000000600052604160045260246000fd5b60405190808252806020026020018201604052801562000bcc5781602001602082028036833780820191505090505b50905060018160008151811062000c0c577f4e487b7100000000000000000000000000000000000000000000000000000000600052603260045260246000fd5b60200260200101818152505062000c233362001bb8565b8160018151811062000c5e577f4e487b7100000000000000000000000000000000000000000000000000000000600052603260045260246000fd5b60200260200101818152505062000c758862001bb8565b8160028151811062000cb0577f4e487b7100000000000000000000000000000000000000000000000000000000600052603260045260246000fd5b602002602001018181525050868160038151811062000cf8577f4e487b7100000000000000000000000000000000000000000000000000000000600052603260045260246000fd5b6020026020010181815250506000600490505b8381101562000ea0578651831062000d5a576040517f08c379a000000000000000000000000000000000000000000000000000000000815260040162000d51906200278a565b60405180910390fd5b86838151811062000d94577f4e487b7100000000000000000000000000000000000000000000000000000000600052603260045260246000fd5b602002602001015182828151811062000dd6577f4e487b7100000000000000000000000000000000000000000000000000000000600052603260045260246000fd5b602002602001018181525050808062000def9062002c6f565b91505085838151811062000e2c577f4e487b7100000000000000000000000000000000000000000000000000000000600052603260045260246000fd5b602002602001015182828151811062000e6e577f4e487b7100000000000000000000000000000000000000000000000000000000600052603260045260246000fd5b602002602001018181525050828062000e879062002c6f565b935050808062000e979062002c6f565b91505062000d0b565b50600060015462000eb13062001bb8565b83518460405160200162000ec99493929190620025d2565b6040516020818303038152906040528051906020012090506000600260009054906101000a900473ffffffffffffffffffffffffffffffffffffffff1673ffffffffffffffffffffffffffffffffffffffff1663a46efaf3836040518263ffffffff1660e01b815260040162000f409190620026d6565b60206040518083038186803b15801562000f5957600080fd5b505afa15801562000f6e573d6000803e3d6000fd5b505050506040513d601f19601f8201168201806040525081019062000f9491906200217c565b11945050505050949350505050565b815183511462000fea576040517f08c379a000000000000000000000000000000000000000000000000000000000815260040162000fe19062002834565b60405180910390fd5b60006002845162000ffc919062002a74565b60056200100a919062002a17565b90506000806004905060008367ffffffffffffffff81111562001056577f4e487b7100000000000000000000000000000000000000000000000000000000600052604160045260246000fd5b604051908082528060200260200182016040528015620010855781602001602082028036833780820191505090505b5090508481600081518110620010c4577f4e487b7100000000000000000000000000000000000000000000000000000000600052603260045260246000fd5b602002602001018181525050620010db8962001bb8565b8160018151811062001116577f4e487b7100000000000000000000000000000000000000000000000000000000600052603260045260246000fd5b60200260200101818152505087816002815181106200115e577f4e487b7100000000000000000000000000000000000000000000000000000000600052603260045260246000fd5b602002602001018181525050865181600381518110620011a7577f4e487b7100000000000000000000000000000000000000000000000000000000600052603260045260246000fd5b6020026020010181815250505b86518310156200126c57868381518110620011f8577f4e487b7100000000000000000000000000000000000000000000000000000000600052603260045260246000fd5b60200260200101518183815181106200123a577f4e487b7100000000000000000000000000000000000000000000000000000000600052603260045260246000fd5b6020026020010181815250508280620012539062002c6f565b9350508180620012639062002c6f565b925050620011b4565b600092508551818381518110620012ac577f4e487b7100000000000000000000000000000000000000000000000000000000600052603260045260246000fd5b6020026020010181815250505b855183101562001371578180620012d09062002c6f565b9250508583815181106200130d577f4e487b7100000000000000000000000000000000000000000000000000000000600052603260045260246000fd5b60200260200101518183815181106200134f577f4e487b7100000000000000000000000000000000000000000000000000000000600052603260045260246000fd5b6020026020010181815250508280620013689062002c6f565b935050620012b9565b600260009054906101000a900473ffffffffffffffffffffffffffffffffffffffff1673ffffffffffffffffffffffffffffffffffffffff16633e3aa6c56001547f03d7e9aabaee46b2e84062eb3bca33a0c08e1142b329c095d47ec3d6af1adbc6846040518463ffffffff1660e01b8152600401620013f493929190620028c9565b602060405180830381600087803b1580156200140f57600080fd5b505af115801562001424573d6000803e3d6000fd5b505050506040513d601f19601f820116820180604052508101906200144a919062001e95565b50505050505050505050565b600260009054906101000a900473ffffffffffffffffffffffffffffffffffffffff1681565b60015481565b6060600060405180602001620014989062001bd8565b6020820181038252601f19601f8201166040525090508030604051602001620014c2919062002624565b604051602081830303815290604052604051602001620014e4929190620025aa565b60405160208183030381529060405291505090565b8181805182511462001542576040517f08c379a0000000000000000000000000000000000000000000000000000000008152600401620015399062002834565b60405180910390fd5b60005b82518110156200172f5760008382815181106200158b577f4e487b7100000000000000000000000000000000000000000000000000000000600052603260045260246000fd5b602002602001015190506000838381518110620015d1577f4e487b7100000000000000000000000000000000000000000000000000000000600052603260045260246000fd5b602002602001015190506000600460003373ffffffffffffffffffffffffffffffffffffffff1673ffffffffffffffffffffffffffffffffffffffff1681526020019081526020016000206000848152602001908152602001600020541162001671576040517f08c379a0000000000000000000000000000000000000000000000000000000008152600401620016689062002812565b60405180910390fd5b80600460003373ffffffffffffffffffffffffffffffffffffffff1673ffffffffffffffffffffffffffffffffffffffff168152602001908152602001600020600084815260200190815260200160002054101562001707576040517f08c379a0000000000000000000000000000000000000000000000000000000008152600401620016fe9062002856565b60405180910390fd5b8280620017149062002c6f565b93505050508080620017269062002c6f565b91505062001545565b50600073ffffffffffffffffffffffffffffffffffffffff16600360003373ffffffffffffffffffffffffffffffffffffffff1673ffffffffffffffffffffffffffffffffffffffff16815260200190815260200160002060009054906101000a900473ffffffffffffffffffffffffffffffffffffffff1673ffffffffffffffffffffffffffffffffffffffff16141562001802576040517f08c379a0000000000000000000000000000000000000000000000000000000008152600401620017f990620027f0565b60405180910390fd5b6000600360003373ffffffffffffffffffffffffffffffffffffffff1673ffffffffffffffffffffffffffffffffffffffff16815260200190815260200160002060009054906101000a900473ffffffffffffffffffffffffffffffffffffffff16905060008190508073ffffffffffffffffffffffffffffffffffffffff1663f03614163388886040518463ffffffff1660e01b8152600401620018aa9392919062002641565b600060405180830381600087803b158015620018c557600080fd5b505af1158015620018da573d6000803e3d6000fd5b5050505060005b8651811015620019fc5785818151811062001925577f4e487b7100000000000000000000000000000000000000000000000000000000600052603260045260246000fd5b6020026020010151600460003373ffffffffffffffffffffffffffffffffffffffff1673ffffffffffffffffffffffffffffffffffffffff1681526020019081526020016000206000898481518110620019a8577f4e487b7100000000000000000000000000000000000000000000000000000000600052603260045260246000fd5b602002602001015181526020019081526020016000206000828254620019cf919062002ad5565b925050819055508080620019e39062002c6f565b9150508080620019f39062002c6f565b915050620018e1565b50505050505050565b60008060ff60f81b3084868051906020012060405160200162001a2c949392919062002554565b6040516020818303038152906040528051906020012090508060001c91505092915050565b600080828451602086016000f59050803b62001a6c57600080fd5b7fb03c53b28e78a88e31607a27e1fa48234dce28d5d9d9ec7b295aeb02e674a1e1818460405162001a9f9291906200268c565b60405180910390a18091505092915050565b60008054906101000a900473ffffffffffffffffffffffffffffffffffffffff1673ffffffffffffffffffffffffffffffffffffffff163373ffffffffffffffffffffffffffffffffffffffff161462001b42576040517f08c379a000000000000000000000000000000000000000000000000000000000815260040162001b3990620027ac565b60405180910390fd5b60006001541462001b8a576040517f08c379a000000000000000000000000000000000000000000000000000000000815260040162001b819062002768565b60405180910390fd5b8060018190555050565b60008054906101000a900473ffffffffffffffffffffffffffffffffffffffff1681565b60008173ffffffffffffffffffffffffffffffffffffffff169050919050565b612e03806200305483390190565b600062001bfd62001bf78462002936565b6200290d565b9050808382526020820190508285602086028201111562001c1d57600080fd5b60005b8581101562001c51578162001c36888262001dc8565b84526020840193506020830192505060018101905062001c20565b5050509392505050565b600062001c7262001c6c8462002965565b6200290d565b90508281526020810184848401111562001c8b57600080fd5b62001c9884828562002bf4565b509392505050565b600062001cb762001cb18462002965565b6200290d565b90508281526020810184848401111562001cd057600080fd5b62001cdd84828562002c03565b509392505050565b60008151905062001cf68162002fd1565b92915050565b600082601f83011262001d0e57600080fd5b813562001d2084826020860162001be6565b91505092915050565b60008151905062001d3a8162002feb565b92915050565b600082601f83011262001d5257600080fd5b813562001d6484826020860162001c5b565b91505092915050565b600082601f83011262001d7f57600080fd5b815162001d9184826020860162001ca0565b91505092915050565b60008135905062001dab8162003005565b92915050565b60008135905062001dc2816200301f565b92915050565b60008135905062001dd98162003039565b92915050565b60008151905062001df08162003039565b92915050565b60006020828403121562001e0957600080fd5b600062001e198482850162001ce5565b91505092915050565b6000806040838503121562001e3657600080fd5b600083013567ffffffffffffffff81111562001e5157600080fd5b62001e5f8582860162001cfc565b925050602083013567ffffffffffffffff81111562001e7d57600080fd5b62001e8b8582860162001cfc565b9150509250929050565b60006020828403121562001ea857600080fd5b600062001eb88482850162001d29565b91505092915050565b60006020828403121562001ed457600080fd5b600082015167ffffffffffffffff81111562001eef57600080fd5b62001efd8482850162001d6d565b91505092915050565b6000806040838503121562001f1a57600080fd5b600083013567ffffffffffffffff81111562001f3557600080fd5b62001f438582860162001d40565b925050602062001f568582860162001dc8565b9150509250929050565b6000806000806080858703121562001f7757600080fd5b600062001f878782880162001d9a565b945050602062001f9a8782880162001dc8565b935050604085013567ffffffffffffffff81111562001fb857600080fd5b62001fc68782880162001cfc565b925050606085013567ffffffffffffffff81111562001fe457600080fd5b62001ff28782880162001cfc565b91505092959194509250565b600080600080600060a086880312156200201757600080fd5b6000620020278882890162001d9a565b95505060206200203a8882890162001dc8565b945050604086013567ffffffffffffffff8111156200205857600080fd5b620020668882890162001cfc565b935050606086013567ffffffffffffffff8111156200208457600080fd5b620020928882890162001cfc565b9250506080620020a58882890162001dc8565b9150509295509295909350565b60008060008060808587031215620020c957600080fd5b6000620020d98782880162001db1565b9450506020620020ec8782880162001dc8565b935050604085013567ffffffffffffffff8111156200210a57600080fd5b620021188782880162001cfc565b925050606085013567ffffffffffffffff8111156200213657600080fd5b620021448782880162001cfc565b91505092959194509250565b6000602082840312156200216357600080fd5b6000620021738482850162001dc8565b91505092915050565b6000602082840312156200218f57600080fd5b60006200219f8482850162001ddf565b91505092915050565b6000620021b6838362002506565b60208301905092915050565b6000620021d0838362002528565b60208301905092915050565b620021e78162002b10565b82525050565b62002202620021fc8262002b10565b62002cbd565b82525050565b60006200221582620029ab565b620022218185620029ce565b93506200222e836200299b565b8060005b8381101562002265578151620022498882620021a8565b97506200225683620029c1565b92505060018101905062002232565b5085935050505092915050565b60006200227f82620029ab565b6200228b8185620029df565b935062002298836200299b565b8060005b83811015620022cf578151620022b38882620021c2565b9750620022c083620029c1565b9250506001810190506200229c565b5085935050505092915050565b620022e78162002b24565b82525050565b62002302620022fc8262002b30565b62002cd1565b82525050565b620023138162002b5c565b82525050565b6200232e620023288262002b5c565b62002cdb565b82525050565b60006200234182620029b6565b6200234d8185620029ea565b93506200235f81856020860162002c03565b6200236a8162002d61565b840191505092915050565b60006200238282620029b6565b6200238e8185620029fb565b9350620023a081856020860162002c03565b80840191505092915050565b620023b78162002bb8565b82525050565b620023c88162002be0565b82525050565b6000620023dd60248362002a06565b9150620023ea8262002d7f565b604082019050919050565b60006200240460228362002a06565b9150620024118262002dce565b604082019050919050565b60006200242b60148362002a06565b9150620024388262002e1d565b602082019050919050565b60006200245260378362002a06565b91506200245f8262002e46565b604082019050919050565b60006200247960278362002a06565b9150620024868262002e95565b604082019050919050565b6000620024a0603d8362002a06565b9150620024ad8262002ee4565b604082019050919050565b6000620024c7603e8362002a06565b9150620024d48262002f33565b604082019050919050565b6000620024ee60278362002a06565b9150620024fb8262002f82565b604082019050919050565b620025118162002bae565b82525050565b620025228162002bae565b82525050565b620025338162002bae565b82525050565b6200254e620025488262002bae565b62002cf9565b82525050565b6000620025628287620022ed565b600182019150620025748286620021ed565b60148201915062002586828562002539565b60208201915062002598828462002319565b60208201915081905095945050505050565b6000620025b8828562002375565b9150620025c6828462002375565b91508190509392505050565b6000620025e0828762002539565b602082019150620025f2828662002539565b60208201915062002604828562002539565b60208201915062002616828462002272565b915081905095945050505050565b60006020820190506200263b6000830184620021dc565b92915050565b6000606082019050620026586000830186620021dc565b81810360208301526200266c818562002208565b9050818103604083015262002682818462002208565b9050949350505050565b6000604082019050620026a36000830185620021dc565b620026b2602083018462002517565b9392505050565b6000602082019050620026d06000830184620022dc565b92915050565b6000602082019050620026ed600083018462002308565b92915050565b600060208201905081810360008301526200270f818462002334565b905092915050565b6000604082019050818103600083015262002733818562002334565b9050620027446020830184620023bd565b9392505050565b6000602082019050620027626000830184620023ac565b92915050565b600060208201905081810360008301526200278381620023ce565b9050919050565b60006020820190508181036000830152620027a581620023f5565b9050919050565b60006020820190508181036000830152620027c7816200241c565b9050919050565b60006020820190508181036000830152620027e98162002443565b9050919050565b600060208201905081810360008301526200280b816200246a565b9050919050565b600060208201905081810360008301526200282d8162002491565b9050919050565b600060208201905081810360008301526200284f81620024b8565b9050919050565b600060208201905081810360008301526200287181620024df565b9050919050565b60006020820190506200288f600083018462002517565b92915050565b6000604082019050620028ac600083018562002517565b8181036020830152620028c0818462002208565b90509392505050565b6000606082019050620028e0600083018662002517565b620028ef602083018562002517565b818103604083015262002903818462002208565b9050949350505050565b6000620029196200292c565b905062002927828262002c39565b919050565b6000604051905090565b600067ffffffffffffffff82111562002954576200295362002d32565b5b602082029050602081019050919050565b600067ffffffffffffffff82111562002983576200298262002d32565b5b6200298e8262002d61565b9050602081019050919050565b6000819050602082019050919050565b600081519050919050565b600081519050919050565b6000602082019050919050565b600082825260208201905092915050565b600081905092915050565b600082825260208201905092915050565b600081905092915050565b600082825260208201905092915050565b600062002a248262002bae565b915062002a318362002bae565b9250827fffffffffffffffffffffffffffffffffffffffffffffffffffffffffffffffff0382111562002a695762002a6862002d03565b5b828201905092915050565b600062002a818262002bae565b915062002a8e8362002bae565b9250817fffffffffffffffffffffffffffffffffffffffffffffffffffffffffffffffff048311821515161562002aca5762002ac962002d03565b5b828202905092915050565b600062002ae28262002bae565b915062002aef8362002bae565b92508282101562002b055762002b0462002d03565b5b828203905092915050565b600062002b1d8262002b8e565b9050919050565b60008115159050919050565b60007fff0000000000000000000000000000000000000000000000000000000000000082169050919050565b6000819050919050565b600062002b738262002b10565b9050919050565b600062002b878262002b10565b9050919050565b600073ffffffffffffffffffffffffffffffffffffffff82169050919050565b6000819050919050565b600062002bc58262002bcc565b9050919050565b600062002bd98262002b8e565b9050919050565b600062002bed8262002bae565b9050919050565b82818337600083830152505050565b60005b8381101562002c2357808201518184015260208101905062002c06565b8381111562002c33576000848401525b50505050565b62002c448262002d61565b810181811067ffffffffffffffff8211171562002c665762002c6562002d32565b5b80604052505050565b600062002c7c8262002bae565b91507fffffffffffffffffffffffffffffffffffffffffffffffffffffffffffffffff82141562002cb25762002cb162002d03565b5b600182019050919050565b600062002cca8262002ce5565b9050919050565b6000819050919050565b6000819050919050565b600062002cf28262002d72565b9050919050565b6000819050919050565b7f4e487b7100000000000000000000000000000000000000000000000000000000600052601160045260246000fd5b7f4e487b7100000000000000000000000000000000000000000000000000000000600052604160045260246000fd5b6000601f19601f8301169050919050565b60008160601b9050919050565b7f476174657761792f656e64706f696e742d676174657761792d616c726561647960008201527f2d73657400000000000000000000000000000000000000000000000000000000602082015250565b7f596f752063616e206e6f742061636365737320746f207468617420656c656d6560008201527f6e74000000000000000000000000000000000000000000000000000000000000602082015250565b7f476174657761792f756e617574686f72697a6564000000000000000000000000600082015250565b7f41646472657373206465706c6f796564206973206e6f74207468652073616d6560008201527f207468616e2074686520707265646963746564206f6e65000000000000000000602082015250565b7f42726964676520636f6e747261637420616464726573732063616e206e6f742060008201527f6265207a65726f00000000000000000000000000000000000000000000000000602082015250565b7f596f752063616e206e6f74206d696e7420696620796f7520646f6e277420686160008201527f766520616d6f756e7420666f72206120676976656e20746f6b656e4944000000602082015250565b7f5468652053697a65206f6620617272617920746f6b656e494420616e6420617260008201527f72617920616d6f756e74732073686f756c64206265207468652073616d650000602082015250565b7f746f6b656e20496420646f6573206e6f74206578697374206f722077726f6e6760008201527f20616d6f756e7400000000000000000000000000000000000000000000000000602082015250565b62002fdc8162002b10565b811462002fe857600080fd5b50565b62002ff68162002b5c565b81146200300257600080fd5b50565b620030108162002b66565b81146200301c57600080fd5b50565b6200302a8162002b7a565b81146200303657600080fd5b50565b620030448162002bae565b81146200305057600080fd5b5056fe60806040523480156200001157600080fd5b5060405162002e0338038062002e038339818101604052810190620000379190620001aa565b6040518060400160405280600e81526020017f42726964676520455243313135350000000000000000000000000000000000008152506200007e81620000c760201b60201c565b5080600360006101000a81548173ffffffffffffffffffffffffffffffffffffffff021916908373ffffffffffffffffffffffffffffffffffffffff1602179055505062000289565b8060029080519060200190620000df929190620000e3565b5050565b828054620000f1906200020a565b90600052602060002090601f01602090048101928262000115576000855562000161565b82601f106200013057805160ff191683800117855562000161565b8280016001018555821562000161579182015b828111156200016057825182559160200191906001019062000143565b5b50905062000170919062000174565b5090565b5b808211156200018f57600081600090555060010162000175565b5090565b600081519050620001a4816200026f565b92915050565b600060208284031215620001bd57600080fd5b6000620001cd8482850162000193565b91505092915050565b6000620001e382620001ea565b9050919050565b600073ffffffffffffffffffffffffffffffffffffffff82169050919050565b600060028204905060018216806200022357607f821691505b602082108114156200023a576200023962000240565b5b50919050565b7f4e487b7100000000000000000000000000000000000000000000000000000000600052602260045260246000fd5b6200027a81620001d6565b81146200028657600080fd5b50565b612b6a80620002996000396000f3fe608060405234801561001057600080fd5b506004361061009d5760003560e01c80638b851b95116100665780638b851b951461017e578063a22cb4651461019c578063e985e9c5146101b8578063f0361416146101e8578063f242432a146102045761009d565b8062fdd58e146100a257806301ffc9a7146100d25780630e89341c146101025780632eb2c2d6146101325780634e1273f41461014e575b600080fd5b6100bc60048036038101906100b79190611bee565b610220565b6040516100c991906122cc565b60405180910390f35b6100ec60048036038101906100e79190611c96565b6102e9565b6040516100f9919061210f565b60405180910390f35b61011c60048036038101906101179190611ce8565b6103cb565b604051610129919061212a565b60405180910390f35b61014c600480360381019061014791906119e5565b61045f565b005b61016860048036038101906101639190611c2a565b610500565b60405161017591906120b6565b60405180910390f35b6101866106b1565b6040516101939190611fd9565b60405180910390f35b6101b660048036038101906101b19190611bb2565b6106d7565b005b6101d260048036038101906101cd91906119a9565b6106ed565b6040516101df919061210f565b60405180910390f35b61020260048036038101906101fd9190611b33565b610781565b005b61021e60048036038101906102199190611aa4565b610831565b005b60008073ffffffffffffffffffffffffffffffffffffffff168373ffffffffffffffffffffffffffffffffffffffff161415610291576040517f08c379a0000000000000000000000000000000000000000000000000000000008152600401610288906121ac565b60405180910390fd5b60008083815260200190815260200160002060008473ffffffffffffffffffffffffffffffffffffffff1673ffffffffffffffffffffffffffffffffffffffff16815260200190815260200160002054905092915050565b60007fd9b67a26000000000000000000000000000000000000000000000000000000007bffffffffffffffffffffffffffffffffffffffffffffffffffffffff1916827bffffffffffffffffffffffffffffffffffffffffffffffffffffffff191614806103b457507f0e89341c000000000000000000000000000000000000000000000000000000007bffffffffffffffffffffffffffffffffffffffffffffffffffffffff1916827bffffffffffffffffffffffffffffffffffffffffffffffffffffffff1916145b806103c457506103c3826108d2565b5b9050919050565b6060600280546103da9061253b565b80601f01602080910402602001604051908101604052809291908181526020018280546104069061253b565b80156104535780601f1061042857610100808354040283529160200191610453565b820191906000526020600020905b81548152906001019060200180831161043657829003601f168201915b50505050509050919050565b61046761093c565b73ffffffffffffffffffffffffffffffffffffffff168573ffffffffffffffffffffffffffffffffffffffff1614806104ad57506104ac856104a761093c565b6106ed565b5b6104ec576040517f08c379a00000000000000000000000000000000000000000000000000000000081526004016104e39061220c565b60405180910390fd5b6104f98585858585610944565b5050505050565b60608151835114610546576040517f08c379a000000000000000000000000000000000000000000000000000000000815260040161053d9061226c565b60405180910390fd5b6000835167ffffffffffffffff811115610589577f4e487b7100000000000000000000000000000000000000000000000000000000600052604160045260246000fd5b6040519080825280602002602001820160405280156105b75781602001602082028036833780820191505090505b50905060005b84518110156106a657610650858281518110610602577f4e487b7100000000000000000000000000000000000000000000000000000000600052603260045260246000fd5b6020026020010151858381518110610643577f4e487b7100000000000000000000000000000000000000000000000000000000600052603260045260246000fd5b6020026020010151610220565b828281518110610689577f4e487b7100000000000000000000000000000000000000000000000000000000600052603260045260246000fd5b6020026020010181815250508061069f9061259e565b90506105bd565b508091505092915050565b600360009054906101000a900473ffffffffffffffffffffffffffffffffffffffff1681565b6106e96106e261093c565b8383610ca4565b5050565b6000600160008473ffffffffffffffffffffffffffffffffffffffff1673ffffffffffffffffffffffffffffffffffffffff16815260200190815260200160002060008373ffffffffffffffffffffffffffffffffffffffff1673ffffffffffffffffffffffffffffffffffffffff16815260200190815260200160002060009054906101000a900460ff16905092915050565b600360009054906101000a900473ffffffffffffffffffffffffffffffffffffffff1673ffffffffffffffffffffffffffffffffffffffff163373ffffffffffffffffffffffffffffffffffffffff1614610811576040517f08c379a00000000000000000000000000000000000000000000000000000000081526004016108089061218c565b60405180910390fd5b61082c83838360405180602001604052806000815250610e11565b505050565b61083961093c565b73ffffffffffffffffffffffffffffffffffffffff168573ffffffffffffffffffffffffffffffffffffffff16148061087f575061087e8561087961093c565b6106ed565b5b6108be576040517f08c379a00000000000000000000000000000000000000000000000000000000081526004016108b5906121cc565b60405180910390fd5b6108cb858585858561107b565b5050505050565b60007f01ffc9a7000000000000000000000000000000000000000000000000000000007bffffffffffffffffffffffffffffffffffffffffffffffffffffffff1916827bffffffffffffffffffffffffffffffffffffffffffffffffffffffff1916149050919050565b600033905090565b8151835114610988576040517f08c379a000000000000000000000000000000000000000000000000000000000815260040161097f9061228c565b60405180910390fd5b600073ffffffffffffffffffffffffffffffffffffffff168473ffffffffffffffffffffffffffffffffffffffff1614156109f8576040517f08c379a00000000000000000000000000000000000000000000000000000000081526004016109ef906121ec565b60405180910390fd5b6000610a0261093c565b9050610a128187878787876112fd565b60005b8451811015610c0f576000858281518110610a59577f4e487b7100000000000000000000000000000000000000000000000000000000600052603260045260246000fd5b602002602001015190506000858381518110610a9e577f4e487b7100000000000000000000000000000000000000000000000000000000600052603260045260246000fd5b60200260200101519050600080600084815260200190815260200160002060008b73ffffffffffffffffffffffffffffffffffffffff1673ffffffffffffffffffffffffffffffffffffffff16815260200190815260200160002054905081811015610b3f576040517f08c379a0000000000000000000000000000000000000000000000000000000008152600401610b369061222c565b60405180910390fd5b81810360008085815260200190815260200160002060008c73ffffffffffffffffffffffffffffffffffffffff1673ffffffffffffffffffffffffffffffffffffffff168152602001908152602001600020819055508160008085815260200190815260200160002060008b73ffffffffffffffffffffffffffffffffffffffff1673ffffffffffffffffffffffffffffffffffffffff1681526020019081526020016000206000828254610bf4919061242f565b9250508190555050505080610c089061259e565b9050610a15565b508473ffffffffffffffffffffffffffffffffffffffff168673ffffffffffffffffffffffffffffffffffffffff168273ffffffffffffffffffffffffffffffffffffffff167f4a39dc06d4c0dbc64b70af90fd698a233a518aa5d07e595d983b8c0526c8f7fb8787604051610c869291906120d8565b60405180910390a4610c9c818787878787611305565b505050505050565b8173ffffffffffffffffffffffffffffffffffffffff168373ffffffffffffffffffffffffffffffffffffffff161415610d13576040517f08c379a0000000000000000000000000000000000000000000000000000000008152600401610d0a9061224c565b60405180910390fd5b80600160008573ffffffffffffffffffffffffffffffffffffffff1673ffffffffffffffffffffffffffffffffffffffff16815260200190815260200160002060008473ffffffffffffffffffffffffffffffffffffffff1673ffffffffffffffffffffffffffffffffffffffff16815260200190815260200160002060006101000a81548160ff0219169083151502179055508173ffffffffffffffffffffffffffffffffffffffff168373ffffffffffffffffffffffffffffffffffffffff167f17307eab39ab6107e8899845ad3d59bd9653f200f220920489ca2b5937696c3183604051610e04919061210f565b60405180910390a3505050565b600073ffffffffffffffffffffffffffffffffffffffff168473ffffffffffffffffffffffffffffffffffffffff161415610e81576040517f08c379a0000000000000000000000000000000000000000000000000000000008152600401610e78906122ac565b60405180910390fd5b8151835114610ec5576040517f08c379a0000000000000000000000000000000000000000000000000000000008152600401610ebc9061228c565b60405180910390fd5b6000610ecf61093c565b9050610ee0816000878787876112fd565b60005b8451811015610fe557838181518110610f25577f4e487b7100000000000000000000000000000000000000000000000000000000600052603260045260246000fd5b6020026020010151600080878481518110610f69577f4e487b7100000000000000000000000000000000000000000000000000000000600052603260045260246000fd5b6020026020010151815260200190815260200160002060008873ffffffffffffffffffffffffffffffffffffffff1673ffffffffffffffffffffffffffffffffffffffff1681526020019081526020016000206000828254610fcb919061242f565b925050819055508080610fdd9061259e565b915050610ee3565b508473ffffffffffffffffffffffffffffffffffffffff16600073ffffffffffffffffffffffffffffffffffffffff168273ffffffffffffffffffffffffffffffffffffffff167f4a39dc06d4c0dbc64b70af90fd698a233a518aa5d07e595d983b8c0526c8f7fb878760405161105d9291906120d8565b60405180910390a461107481600087878787611305565b5050505050565b600073ffffffffffffffffffffffffffffffffffffffff168473ffffffffffffffffffffffffffffffffffffffff1614156110eb576040517f08c379a00000000000000000000000000000000000000000000000000000000081526004016110e2906121ec565b60405180910390fd5b60006110f561093c565b9050611115818787611106886114ec565b61110f886114ec565b876112fd565b600080600086815260200190815260200160002060008873ffffffffffffffffffffffffffffffffffffffff1673ffffffffffffffffffffffffffffffffffffffff168152602001908152602001600020549050838110156111ac576040517f08c379a00000000000000000000000000000000000000000000000000000000081526004016111a39061222c565b60405180910390fd5b83810360008087815260200190815260200160002060008973ffffffffffffffffffffffffffffffffffffffff1673ffffffffffffffffffffffffffffffffffffffff168152602001908152602001600020819055508360008087815260200190815260200160002060008873ffffffffffffffffffffffffffffffffffffffff1673ffffffffffffffffffffffffffffffffffffffff1681526020019081526020016000206000828254611261919061242f565b925050819055508573ffffffffffffffffffffffffffffffffffffffff168773ffffffffffffffffffffffffffffffffffffffff168373ffffffffffffffffffffffffffffffffffffffff167fc3d58168c5ae7397731d063d5bbf3d657854427343f4c083240f7aacaa2d0f6288886040516112de9291906122e7565b60405180910390a46112f48288888888886115b2565b50505050505050565b505050505050565b6113248473ffffffffffffffffffffffffffffffffffffffff16611799565b156114e4578373ffffffffffffffffffffffffffffffffffffffff1663bc197c8187878686866040518663ffffffff1660e01b815260040161136a959493929190611ff4565b602060405180830381600087803b15801561138457600080fd5b505af19250505080156113b557506040513d601f19601f820116820180604052508101906113b29190611cbf565b60015b61145b576113c1612674565b806308c379a0141561141e57506113d6612a42565b806113e15750611420565b806040517f08c379a0000000000000000000000000000000000000000000000000000000008152600401611415919061212a565b60405180910390fd5b505b6040517f08c379a00000000000000000000000000000000000000000000000000000000081526004016114529061214c565b60405180910390fd5b63bc197c8160e01b7bffffffffffffffffffffffffffffffffffffffffffffffffffffffff1916817bffffffffffffffffffffffffffffffffffffffffffffffffffffffff1916146114e2576040517f08c379a00000000000000000000000000000000000000000000000000000000081526004016114d99061216c565b60405180910390fd5b505b505050505050565b60606000600167ffffffffffffffff811115611531577f4e487b7100000000000000000000000000000000000000000000000000000000600052604160045260246000fd5b60405190808252806020026020018201604052801561155f5781602001602082028036833780820191505090505b509050828160008151811061159d577f4e487b7100000000000000000000000000000000000000000000000000000000600052603260045260246000fd5b60200260200101818152505080915050919050565b6115d18473ffffffffffffffffffffffffffffffffffffffff16611799565b15611791578373ffffffffffffffffffffffffffffffffffffffff1663f23a6e6187878686866040518663ffffffff1660e01b815260040161161795949392919061205c565b602060405180830381600087803b15801561163157600080fd5b505af192505050801561166257506040513d601f19601f8201168201806040525081019061165f9190611cbf565b60015b6117085761166e612674565b806308c379a014156116cb5750611683612a42565b8061168e57506116cd565b806040517f08c379a00000000000000000000000000000000000000000000000000000000081526004016116c2919061212a565b60405180910390fd5b505b6040517f08c379a00000000000000000000000000000000000000000000000000000000081526004016116ff9061214c565b60405180910390fd5b63f23a6e6160e01b7bffffffffffffffffffffffffffffffffffffffffffffffffffffffff1916817bffffffffffffffffffffffffffffffffffffffffffffffffffffffff19161461178f576040517f08c379a00000000000000000000000000000000000000000000000000000000081526004016117869061216c565b60405180910390fd5b505b505050505050565b600080823b905060008111915050919050565b60006117bf6117ba84612335565b612310565b905080838252602082019050828560208602820111156117de57600080fd5b60005b8581101561180e57816117f488826118c2565b8452602084019350602083019250506001810190506117e1565b5050509392505050565b600061182b61182684612361565b612310565b9050808382526020820190508285602086028201111561184a57600080fd5b60005b8581101561187a57816118608882611994565b84526020840193506020830192505060018101905061184d565b5050509392505050565b60006118976118928461238d565b612310565b9050828152602081018484840111156118af57600080fd5b6118ba8482856124f9565b509392505050565b6000813590506118d181612ad8565b92915050565b600082601f8301126118e857600080fd5b81356118f88482602086016117ac565b91505092915050565b600082601f83011261191257600080fd5b8135611922848260208601611818565b91505092915050565b60008135905061193a81612aef565b92915050565b60008135905061194f81612b06565b92915050565b60008151905061196481612b06565b92915050565b600082601f83011261197b57600080fd5b813561198b848260208601611884565b91505092915050565b6000813590506119a381612b1d565b92915050565b600080604083850312156119bc57600080fd5b60006119ca858286016118c2565b92505060206119db858286016118c2565b9150509250929050565b600080600080600060a086880312156119fd57600080fd5b6000611a0b888289016118c2565b9550506020611a1c888289016118c2565b945050604086013567ffffffffffffffff811115611a3957600080fd5b611a4588828901611901565b935050606086013567ffffffffffffffff811115611a6257600080fd5b611a6e88828901611901565b925050608086013567ffffffffffffffff811115611a8b57600080fd5b611a978882890161196a565b9150509295509295909350565b600080600080600060a08688031215611abc57600080fd5b6000611aca888289016118c2565b9550506020611adb888289016118c2565b9450506040611aec88828901611994565b9350506060611afd88828901611994565b925050608086013567ffffffffffffffff811115611b1a57600080fd5b611b268882890161196a565b9150509295509295909350565b600080600060608486031215611b4857600080fd5b6000611b56868287016118c2565b935050602084013567ffffffffffffffff811115611b7357600080fd5b611b7f86828701611901565b925050604084013567ffffffffffffffff811115611b9c57600080fd5b611ba886828701611901565b9150509250925092565b60008060408385031215611bc557600080fd5b6000611bd3858286016118c2565b9250506020611be48582860161192b565b9150509250929050565b60008060408385031215611c0157600080fd5b6000611c0f858286016118c2565b9250506020611c2085828601611994565b9150509250929050565b60008060408385031215611c3d57600080fd5b600083013567ffffffffffffffff811115611c5757600080fd5b611c63858286016118d7565b925050602083013567ffffffffffffffff811115611c8057600080fd5b611c8c85828601611901565b9150509250929050565b600060208284031215611ca857600080fd5b6000611cb684828501611940565b91505092915050565b600060208284031215611cd157600080fd5b6000611cdf84828501611955565b91505092915050565b600060208284031215611cfa57600080fd5b6000611d0884828501611994565b91505092915050565b6000611d1d8383611fbb565b60208301905092915050565b611d3281612485565b82525050565b6000611d43826123ce565b611d4d81856123fc565b9350611d58836123be565b8060005b83811015611d89578151611d708882611d11565b9750611d7b836123ef565b925050600181019050611d5c565b5085935050505092915050565b611d9f81612497565b82525050565b6000611db0826123d9565b611dba818561240d565b9350611dca818560208601612508565b611dd381612696565b840191505092915050565b6000611de9826123e4565b611df3818561241e565b9350611e03818560208601612508565b611e0c81612696565b840191505092915050565b6000611e2460348361241e565b9150611e2f826126b4565b604082019050919050565b6000611e4760288361241e565b9150611e5282612703565b604082019050919050565b6000611e6a601c8361241e565b9150611e7582612752565b602082019050919050565b6000611e8d602b8361241e565b9150611e988261277b565b604082019050919050565b6000611eb060298361241e565b9150611ebb826127ca565b604082019050919050565b6000611ed360258361241e565b9150611ede82612819565b604082019050919050565b6000611ef660328361241e565b9150611f0182612868565b604082019050919050565b6000611f19602a8361241e565b9150611f24826128b7565b604082019050919050565b6000611f3c60298361241e565b9150611f4782612906565b604082019050919050565b6000611f5f60298361241e565b9150611f6a82612955565b604082019050919050565b6000611f8260288361241e565b9150611f8d826129a4565b604082019050919050565b6000611fa560218361241e565b9150611fb0826129f3565b604082019050919050565b611fc4816124ef565b82525050565b611fd3816124ef565b82525050565b6000602082019050611fee6000830184611d29565b92915050565b600060a0820190506120096000830188611d29565b6120166020830187611d29565b81810360408301526120288186611d38565b9050818103606083015261203c8185611d38565b905081810360808301526120508184611da5565b90509695505050505050565b600060a0820190506120716000830188611d29565b61207e6020830187611d29565b61208b6040830186611fca565b6120986060830185611fca565b81810360808301526120aa8184611da5565b90509695505050505050565b600060208201905081810360008301526120d08184611d38565b905092915050565b600060408201905081810360008301526120f28185611d38565b905081810360208301526121068184611d38565b90509392505050565b60006020820190506121246000830184611d96565b92915050565b600060208201905081810360008301526121448184611dde565b905092915050565b6000602082019050818103600083015261216581611e17565b9050919050565b6000602082019050818103600083015261218581611e3a565b9050919050565b600060208201905081810360008301526121a581611e5d565b9050919050565b600060208201905081810360008301526121c581611e80565b9050919050565b600060208201905081810360008301526121e581611ea3565b9050919050565b6000602082019050818103600083015261220581611ec6565b9050919050565b6000602082019050818103600083015261222581611ee9565b9050919050565b6000602082019050818103600083015261224581611f0c565b9050919050565b6000602082019050818103600083015261226581611f2f565b9050919050565b6000602082019050818103600083015261228581611f52565b9050919050565b600060208201905081810360008301526122a581611f75565b9050919050565b600060208201905081810360008301526122c581611f98565b9050919050565b60006020820190506122e16000830184611fca565b92915050565b60006040820190506122fc6000830185611fca565b6123096020830184611fca565b9392505050565b600061231a61232b565b9050612326828261256d565b919050565b6000604051905090565b600067ffffffffffffffff8211156123505761234f612645565b5b602082029050602081019050919050565b600067ffffffffffffffff82111561237c5761237b612645565b5b602082029050602081019050919050565b600067ffffffffffffffff8211156123a8576123a7612645565b5b6123b182612696565b9050602081019050919050565b6000819050602082019050919050565b600081519050919050565b600081519050919050565b600081519050919050565b6000602082019050919050565b600082825260208201905092915050565b600082825260208201905092915050565b600082825260208201905092915050565b600061243a826124ef565b9150612445836124ef565b9250827fffffffffffffffffffffffffffffffffffffffffffffffffffffffffffffffff0382111561247a576124796125e7565b5b828201905092915050565b6000612490826124cf565b9050919050565b60008115159050919050565b60007fffffffff0000000000000000000000000000000000000000000000000000000082169050919050565b600073ffffffffffffffffffffffffffffffffffffffff82169050919050565b6000819050919050565b82818337600083830152505050565b60005b8381101561252657808201518184015260208101905061250b565b83811115612535576000848401525b50505050565b6000600282049050600182168061255357607f821691505b6020821081141561256757612566612616565b5b50919050565b61257682612696565b810181811067ffffffffffffffff8211171561259557612594612645565b5b80604052505050565b60006125a9826124ef565b91507fffffffffffffffffffffffffffffffffffffffffffffffffffffffffffffffff8214156125dc576125db6125e7565b5b600182019050919050565b7f4e487b7100000000000000000000000000000000000000000000000000000000600052601160045260246000fd5b7f4e487b7100000000000000000000000000000000000000000000000000000000600052602260045260246000fd5b7f4e487b7100000000000000000000000000000000000000000000000000000000600052604160045260246000fd5b600060033d11156126935760046000803e6126906000516126a7565b90505b90565b6000601f19601f8301169050919050565b60008160e01c9050919050565b7f455243313135353a207472616e7366657220746f206e6f6e204552433131353560008201527f526563656976657220696d706c656d656e746572000000000000000000000000602082015250565b7f455243313135353a204552433131353552656365697665722072656a6563746560008201527f6420746f6b656e73000000000000000000000000000000000000000000000000602082015250565b7f596f7520617265206e6f74204761746577617920436f6e747261637400000000600082015250565b7f455243313135353a2062616c616e636520717565727920666f7220746865207a60008201527f65726f2061646472657373000000000000000000000000000000000000000000602082015250565b7f455243313135353a2063616c6c6572206973206e6f74206f776e6572206e6f7260008201527f20617070726f7665640000000000000000000000000000000000000000000000602082015250565b7f455243313135353a207472616e7366657220746f20746865207a65726f20616460008201527f6472657373000000000000000000000000000000000000000000000000000000602082015250565b7f455243313135353a207472616e736665722063616c6c6572206973206e6f742060008201527f6f776e6572206e6f7220617070726f7665640000000000000000000000000000602082015250565b7f455243313135353a20696e73756666696369656e742062616c616e636520666f60008201527f72207472616e7366657200000000000000000000000000000000000000000000602082015250565b7f455243313135353a2073657474696e6720617070726f76616c2073746174757360008201527f20666f722073656c660000000000000000000000000000000000000000000000602082015250565b7f455243313135353a206163636f756e747320616e6420696473206c656e67746860008201527f206d69736d617463680000000000000000000000000000000000000000000000602082015250565b7f455243313135353a2069647320616e6420616d6f756e7473206c656e6774682060008201527f6d69736d61746368000000000000000000000000000000000000000000000000602082015250565b7f455243313135353a206d696e7420746f20746865207a65726f2061646472657360008201527f7300000000000000000000000000000000000000000000000000000000000000602082015250565b600060443d1015612a5257612ad5565b612a5a61232b565b60043d036004823e80513d602482011167ffffffffffffffff82111715612a82575050612ad5565b808201805167ffffffffffffffff811115612aa05750505050612ad5565b80602083010160043d038501811115612abd575050505050612ad5565b612acc8260200185018661256d565b82955050505050505b90565b612ae181612485565b8114612aec57600080fd5b50565b612af881612497565b8114612b0357600080fd5b50565b612b0f816124a3565b8114612b1a57600080fd5b50565b612b26816124ef565b8114612b3157600080fd5b5056fea264697066735822122077b427acffeb49b70a83666b6493149cda815f06ead9655f155533dae935ac7c64736f6c63430008040033a2646970667358221220ea26dc2806c801868425db5ead5eec221f991c946f8e61346778032a36a0da5064736f6c63430008040033",
  "linkReferences": {},
  "deployedLinkReferences": {}
}